{
    "_format": "hh-sol-artifact-1",
    "contractName": "RegistrarStorageChildEvents",
    "sourceName": "contracts/RegistrarStorageChildEvents.sol",
    "abi": [
        {
            "inputs": [],
            "stateMutability": "nonpayable",
            "type": "constructor"
        },
        {
            "inputs": [],
            "name": "AccessControlBadConfirmation",
            "type": "error"
        },
        {
            "inputs": [
                {
                    "internalType": "address",
                    "name": "account",
                    "type": "address"
                },
                {
                    "internalType": "bytes32",
                    "name": "neededRole",
                    "type": "bytes32"
                }
            ],
            "name": "AccessControlUnauthorizedAccount",
            "type": "error"
        },
        {
            "inputs": [
                {
                    "internalType": "address",
                    "name": "target",
                    "type": "address"
                }
            ],
            "name": "AddressEmptyCode",
            "type": "error"
        },
        {
            "inputs": [],
            "name": "E1",
            "type": "error"
        },
        {
            "inputs": [],
            "name": "E10",
            "type": "error"
        },
        {
            "inputs": [],
            "name": "E11",
            "type": "error"
        },
        {
            "inputs": [],
            "name": "E12",
            "type": "error"
        },
        {
            "inputs": [],
            "name": "E13",
            "type": "error"
        },
        {
            "inputs": [],
            "name": "E14",
            "type": "error"
        },
        {
            "inputs": [],
            "name": "E15",
            "type": "error"
        },
        {
            "inputs": [],
            "name": "E16",
            "type": "error"
        },
        {
            "inputs": [],
            "name": "E17",
            "type": "error"
        },
        {
            "inputs": [],
            "name": "E18",
            "type": "error"
        },
        {
            "inputs": [],
            "name": "E19",
            "type": "error"
        },
        {
            "inputs": [],
            "name": "E2",
            "type": "error"
        },
        {
            "inputs": [],
            "name": "E20",
            "type": "error"
        },
        {
            "inputs": [],
            "name": "E21",
            "type": "error"
        },
        {
            "inputs": [],
            "name": "E22",
            "type": "error"
        },
        {
            "inputs": [],
            "name": "E23",
            "type": "error"
        },
        {
            "inputs": [],
            "name": "E24",
            "type": "error"
        },
        {
            "inputs": [],
            "name": "E25",
            "type": "error"
        },
        {
            "inputs": [],
            "name": "E26",
            "type": "error"
        },
        {
            "inputs": [],
            "name": "E27",
            "type": "error"
        },
        {
            "inputs": [],
            "name": "E28",
            "type": "error"
        },
        {
            "inputs": [],
            "name": "E29",
            "type": "error"
        },
        {
            "inputs": [],
            "name": "E3",
            "type": "error"
        },
        {
            "inputs": [],
            "name": "E30",
            "type": "error"
        },
        {
            "inputs": [],
            "name": "E31",
            "type": "error"
        },
        {
            "inputs": [],
            "name": "E32",
            "type": "error"
        },
        {
            "inputs": [],
            "name": "E33",
            "type": "error"
        },
        {
            "inputs": [],
            "name": "E34",
            "type": "error"
        },
        {
            "inputs": [],
            "name": "E35",
            "type": "error"
        },
        {
            "inputs": [],
            "name": "E36",
            "type": "error"
        },
        {
            "inputs": [],
            "name": "E37",
            "type": "error"
        },
        {
            "inputs": [],
            "name": "E38",
            "type": "error"
        },
        {
            "inputs": [],
            "name": "E39",
            "type": "error"
        },
        {
            "inputs": [],
            "name": "E4",
            "type": "error"
        },
        {
            "inputs": [],
            "name": "E40",
            "type": "error"
        },
        {
            "inputs": [],
            "name": "E41",
            "type": "error"
        },
        {
            "inputs": [],
            "name": "E42",
            "type": "error"
        },
        {
            "inputs": [],
            "name": "E43",
            "type": "error"
        },
        {
            "inputs": [],
            "name": "E44",
            "type": "error"
        },
        {
            "inputs": [],
            "name": "E45",
            "type": "error"
        },
        {
            "inputs": [],
            "name": "E46",
            "type": "error"
        },
        {
            "inputs": [],
            "name": "E47",
            "type": "error"
        },
        {
            "inputs": [],
            "name": "E48",
            "type": "error"
        },
        {
            "inputs": [],
            "name": "E5",
            "type": "error"
        },
        {
            "inputs": [],
            "name": "E6",
            "type": "error"
        },
        {
            "inputs": [],
            "name": "E7",
            "type": "error"
        },
        {
            "inputs": [],
            "name": "E8",
            "type": "error"
        },
        {
            "inputs": [],
            "name": "E9",
            "type": "error"
        },
        {
            "inputs": [
                {
                    "internalType": "address",
                    "name": "implementation",
                    "type": "address"
                }
            ],
            "name": "ERC1967InvalidImplementation",
            "type": "error"
        },
        {
            "inputs": [],
            "name": "ERC1967NonPayable",
            "type": "error"
        },
        {
            "inputs": [],
            "name": "FailedCall",
            "type": "error"
        },
        {
            "inputs": [],
            "name": "InvalidInitialization",
            "type": "error"
        },
        {
            "inputs": [],
            "name": "NotInitializing",
            "type": "error"
        },
        {
            "inputs": [],
            "name": "UUPSUnauthorizedCallContext",
            "type": "error"
        },
        {
            "inputs": [
                {
                    "internalType": "bytes32",
                    "name": "slot",
                    "type": "bytes32"
                }
            ],
            "name": "UUPSUnsupportedProxiableUUID",
            "type": "error"
        },
        {
            "anonymous": false,
            "inputs": [
                {
                    "indexed": true,
                    "internalType": "address",
                    "name": "secondaryAddress",
                    "type": "address"
                },
                {
                    "indexed": true,
                    "internalType": "address",
                    "name": "registrar",
                    "type": "address"
                },
                {
                    "indexed": false,
                    "internalType": "string",
                    "name": "unifiedId",
                    "type": "string"
                },
                {
                    "indexed": false,
                    "internalType": "bytes",
                    "name": "primarySignature",
                    "type": "bytes"
                },
                {
                    "indexed": false,
                    "internalType": "bytes",
                    "name": "secondarySignature",
                    "type": "bytes"
                },
                {
                    "indexed": false,
                    "internalType": "bytes",
                    "name": "options",
                    "type": "bytes"
                },
                {
                    "indexed": false,
                    "internalType": "uint256",
                    "name": "timestamp",
                    "type": "uint256"
                }
            ],
            "name": "AddSecondaryAddressInitiated",
            "type": "event"
        },
        {
            "anonymous": false,
            "inputs": [
                {
                    "indexed": false,
                    "internalType": "address",
                    "name": "relayer",
                    "type": "address"
                },
                {
                    "indexed": false,
                    "internalType": "bool",
                    "name": "authorized",
                    "type": "bool"
                },
                {
                    "indexed": false,
                    "internalType": "address",
                    "name": "updatedBy",
                    "type": "address"
                }
            ],
            "name": "AuthorizedRelayerUpdated",
            "type": "event"
        },
        {
            "anonymous": false,
            "inputs": [
                {
                    "indexed": false,
                    "internalType": "uint256",
                    "name": "oldChainId",
                    "type": "uint256"
                },
                {
                    "indexed": false,
                    "internalType": "uint256",
                    "name": "newChainId",
                    "type": "uint256"
                },
                {
                    "indexed": false,
                    "internalType": "address",
                    "name": "updatedBy",
                    "type": "address"
                }
            ],
            "name": "ChainIdUpdated",
            "type": "event"
        },
        {
            "anonymous": false,
            "inputs": [
                {
                    "indexed": false,
                    "internalType": "address",
                    "name": "token",
                    "type": "address"
                },
                {
                    "indexed": false,
                    "internalType": "address",
                    "name": "to",
                    "type": "address"
                },
                {
                    "indexed": false,
                    "internalType": "uint256",
                    "name": "amount",
                    "type": "uint256"
                }
            ],
            "name": "ERC20Withdrawn",
            "type": "event"
        },
        {
            "anonymous": false,
            "inputs": [
                {
                    "indexed": false,
                    "internalType": "bool",
                    "name": "enabled",
                    "type": "bool"
                }
            ],
            "name": "EmergencyModeToggled",
            "type": "event"
        },
        {
            "anonymous": false,
            "inputs": [
                {
                    "indexed": false,
                    "internalType": "address",
                    "name": "registrarAddress",
                    "type": "address"
                },
                {
                    "indexed": false,
                    "internalType": "string",
                    "name": "registrarName",
                    "type": "string"
                },
                {
                    "indexed": false,
                    "internalType": "address",
                    "name": "removedBy",
                    "type": "address"
                }
            ],
            "name": "EmergencyRegistrarRemoved",
            "type": "event"
        },
        {
            "anonymous": false,
            "inputs": [
                {
                    "indexed": false,
                    "internalType": "string",
                    "name": "unifiedId",
                    "type": "string"
                },
                {
                    "indexed": false,
                    "internalType": "bool",
                    "name": "available",
                    "type": "bool"
                },
                {
                    "indexed": false,
                    "internalType": "address",
                    "name": "updatedBy",
                    "type": "address"
                }
            ],
            "name": "EmergencyUnifiedIdMarked",
            "type": "event"
        },
        {
            "anonymous": false,
            "inputs": [
                {
                    "indexed": false,
                    "internalType": "address",
                    "name": "to",
                    "type": "address"
                },
                {
                    "indexed": false,
                    "internalType": "uint256",
                    "name": "amount",
                    "type": "uint256"
                }
            ],
            "name": "EthWithdrawn",
            "type": "event"
        },
        {
            "anonymous": false,
            "inputs": [
                {
                    "indexed": false,
                    "internalType": "uint64",
                    "name": "version",
                    "type": "uint64"
                }
            ],
            "name": "Initialized",
            "type": "event"
        },
        {
            "anonymous": false,
            "inputs": [
                {
                    "indexed": false,
                    "internalType": "uint256",
                    "name": "oldMax",
                    "type": "uint256"
                },
                {
                    "indexed": false,
                    "internalType": "uint256",
                    "name": "newMax",
                    "type": "uint256"
                }
            ],
            "name": "MaxSecondaryAddressesUpdated",
            "type": "event"
        },
        {
            "anonymous": false,
            "inputs": [
                {
                    "indexed": false,
                    "internalType": "address",
                    "name": "previousOwner",
                    "type": "address"
                },
                {
                    "indexed": false,
                    "internalType": "address",
                    "name": "newOwner",
                    "type": "address"
                }
            ],
            "name": "OwnershipTransferStarted",
            "type": "event"
        },
        {
            "anonymous": false,
            "inputs": [
                {
                    "indexed": false,
                    "internalType": "address",
                    "name": "previousOwner",
                    "type": "address"
                },
                {
                    "indexed": false,
                    "internalType": "address",
                    "name": "newOwner",
                    "type": "address"
                }
            ],
            "name": "OwnershipTransferred",
            "type": "event"
        },
        {
            "anonymous": false,
            "inputs": [
                {
                    "indexed": true,
                    "internalType": "address",
                    "name": "oldPrimary",
                    "type": "address"
                },
                {
                    "indexed": true,
                    "internalType": "address",
                    "name": "newPrimaryAddress",
                    "type": "address"
                },
                {
                    "indexed": false,
                    "internalType": "string",
                    "name": "unifiedId",
                    "type": "string"
                }
            ],
            "name": "PrimaryAddressUpdated",
            "type": "event"
        },
        {
            "anonymous": false,
            "inputs": [
                {
                    "indexed": false,
                    "internalType": "bool",
                    "name": "enabled",
                    "type": "bool"
                }
            ],
            "name": "PublicRegistrarRegistrationToggled",
            "type": "event"
        },
        {
            "anonymous": false,
            "inputs": [
                {
                    "indexed": true,
                    "internalType": "address",
                    "name": "primaryAddress",
                    "type": "address"
                },
                {
                    "indexed": true,
                    "internalType": "address",
                    "name": "registrar",
                    "type": "address"
                },
                {
                    "indexed": false,
                    "internalType": "string",
                    "name": "unifiedId",
                    "type": "string"
                },
                {
                    "indexed": false,
                    "internalType": "bytes",
                    "name": "masterSignature",
                    "type": "bytes"
                },
                {
                    "indexed": false,
                    "internalType": "bytes",
                    "name": "primarySignature",
                    "type": "bytes"
                },
                {
                    "indexed": false,
                    "internalType": "bytes",
                    "name": "options",
                    "type": "bytes"
                },
                {
                    "indexed": false,
                    "internalType": "uint256",
                    "name": "timestamp",
                    "type": "uint256"
                }
            ],
            "name": "RegisterUnifiedIdInitiated",
            "type": "event"
        },
        {
            "anonymous": false,
            "inputs": [
                {
                    "indexed": false,
                    "internalType": "address",
                    "name": "registrarAddress",
                    "type": "address"
                },
                {
                    "indexed": false,
                    "internalType": "string",
                    "name": "registrarName",
                    "type": "string"
                }
            ],
            "name": "RegistrarRegistered",
            "type": "event"
        },
        {
            "anonymous": false,
            "inputs": [
                {
                    "indexed": false,
                    "internalType": "address",
                    "name": "pausedBy",
                    "type": "address"
                }
            ],
            "name": "RegistrationPaused",
            "type": "event"
        },
        {
            "anonymous": false,
            "inputs": [
                {
                    "indexed": false,
                    "internalType": "address",
                    "name": "unpausedBy",
                    "type": "address"
                }
            ],
            "name": "RegistrationUnpaused",
            "type": "event"
        },
        {
            "anonymous": false,
            "inputs": [
                {
                    "indexed": true,
                    "internalType": "address",
                    "name": "secondaryAddress",
                    "type": "address"
                },
                {
                    "indexed": true,
                    "internalType": "address",
                    "name": "registrar",
                    "type": "address"
                },
                {
                    "indexed": false,
                    "internalType": "string",
                    "name": "unifiedId",
                    "type": "string"
                },
                {
                    "indexed": false,
                    "internalType": "bytes",
                    "name": "signature",
                    "type": "bytes"
                },
                {
                    "indexed": false,
                    "internalType": "bytes",
                    "name": "options",
                    "type": "bytes"
                },
                {
                    "indexed": false,
                    "internalType": "uint256",
                    "name": "timestamp",
                    "type": "uint256"
                }
            ],
            "name": "RemoveSecondaryAddressInitiated",
            "type": "event"
        },
        {
            "anonymous": false,
            "inputs": [
                {
                    "indexed": false,
                    "internalType": "address",
                    "name": "oldResolver",
                    "type": "address"
                },
                {
                    "indexed": false,
                    "internalType": "address",
                    "name": "newResolver",
                    "type": "address"
                },
                {
                    "indexed": false,
                    "internalType": "address",
                    "name": "updatedBy",
                    "type": "address"
                }
            ],
            "name": "ResolverUpdated",
            "type": "event"
        },
        {
            "anonymous": false,
            "inputs": [
                {
                    "indexed": true,
                    "internalType": "bytes32",
                    "name": "role",
                    "type": "bytes32"
                },
                {
                    "indexed": true,
                    "internalType": "bytes32",
                    "name": "previousAdminRole",
                    "type": "bytes32"
                },
                {
                    "indexed": true,
                    "internalType": "bytes32",
                    "name": "newAdminRole",
                    "type": "bytes32"
                }
            ],
            "name": "RoleAdminChanged",
            "type": "event"
        },
        {
            "anonymous": false,
            "inputs": [
                {
                    "indexed": true,
                    "internalType": "bytes32",
                    "name": "role",
                    "type": "bytes32"
                },
                {
                    "indexed": true,
                    "internalType": "address",
                    "name": "account",
                    "type": "address"
                },
                {
                    "indexed": true,
                    "internalType": "address",
                    "name": "sender",
                    "type": "address"
                }
            ],
            "name": "RoleGranted",
            "type": "event"
        },
        {
            "anonymous": false,
            "inputs": [
                {
                    "indexed": true,
                    "internalType": "bytes32",
                    "name": "role",
                    "type": "bytes32"
                },
                {
                    "indexed": true,
                    "internalType": "address",
                    "name": "account",
                    "type": "address"
                },
                {
                    "indexed": true,
                    "internalType": "address",
                    "name": "sender",
                    "type": "address"
                }
            ],
            "name": "RoleRevoked",
            "type": "event"
        },
        {
            "anonymous": false,
            "inputs": [
                {
                    "indexed": true,
                    "internalType": "address",
                    "name": "secondaryAddress",
                    "type": "address"
                },
                {
                    "indexed": false,
                    "internalType": "string",
                    "name": "unifiedId",
                    "type": "string"
                }
            ],
            "name": "SecondaryAddressAdded",
            "type": "event"
        },
        {
            "anonymous": false,
            "inputs": [
                {
                    "indexed": true,
                    "internalType": "address",
                    "name": "secondaryAddress",
                    "type": "address"
                },
                {
                    "indexed": false,
                    "internalType": "string",
                    "name": "unifiedId",
                    "type": "string"
                }
            ],
            "name": "SecondaryAddressRemoved",
            "type": "event"
        },
        {
            "anonymous": false,
            "inputs": [
                {
                    "indexed": true,
                    "internalType": "address",
                    "name": "primaryAddress",
                    "type": "address"
                },
                {
                    "indexed": false,
                    "internalType": "string",
                    "name": "oldUnifiedId",
                    "type": "string"
                },
                {
                    "indexed": false,
                    "internalType": "string",
                    "name": "newUnifiedId",
                    "type": "string"
                },
                {
                    "indexed": false,
                    "internalType": "uint256",
                    "name": "timestamp",
                    "type": "uint256"
                }
            ],
            "name": "UnifiedIDChanged",
            "type": "event"
        },
        {
            "anonymous": false,
            "inputs": [
                {
                    "indexed": true,
                    "internalType": "address",
                    "name": "primaryAddress",
                    "type": "address"
                },
                {
                    "indexed": false,
                    "internalType": "string",
                    "name": "unifiedId",
                    "type": "string"
                },
                {
                    "indexed": false,
                    "internalType": "uint256",
                    "name": "timestamp",
                    "type": "uint256"
                }
            ],
            "name": "UnifiedIDRegistered",
            "type": "event"
        },
        {
            "anonymous": false,
            "inputs": [
                {
                    "indexed": true,
                    "internalType": "address",
                    "name": "oldPrimary",
                    "type": "address"
                },
                {
                    "indexed": true,
                    "internalType": "address",
                    "name": "newPrimary",
                    "type": "address"
                },
                {
                    "indexed": false,
                    "internalType": "string",
                    "name": "unifiedId",
                    "type": "string"
                }
            ],
            "name": "UnifiedIDUpdated",
            "type": "event"
        },
        {
            "anonymous": false,
            "inputs": [
                {
                    "indexed": false,
                    "internalType": "uint256",
                    "name": "minLength",
                    "type": "uint256"
                },
                {
                    "indexed": false,
                    "internalType": "uint256",
                    "name": "maxLength",
                    "type": "uint256"
                }
            ],
            "name": "UnifiedIdLengthLimitsUpdated",
            "type": "event"
        },
        {
            "anonymous": false,
            "inputs": [
                {
                    "indexed": true,
                    "internalType": "address",
                    "name": "registrar",
                    "type": "address"
                },
                {
                    "indexed": false,
                    "internalType": "string",
                    "name": "oldUnifiedId",
                    "type": "string"
                },
                {
                    "indexed": false,
                    "internalType": "string",
                    "name": "newUnifiedId",
                    "type": "string"
                },
                {
                    "indexed": false,
                    "internalType": "bytes",
                    "name": "signature",
                    "type": "bytes"
                },
                {
                    "indexed": false,
                    "internalType": "bytes",
                    "name": "options",
                    "type": "bytes"
                },
                {
                    "indexed": false,
                    "internalType": "uint256",
                    "name": "timestamp",
                    "type": "uint256"
                }
            ],
            "name": "UpdateUnifiedIdInitiated",
            "type": "event"
        },
        {
            "anonymous": false,
            "inputs": [
                {
                    "indexed": true,
                    "internalType": "address",
                    "name": "newPrimaryAddress",
                    "type": "address"
                },
                {
                    "indexed": true,
                    "internalType": "address",
                    "name": "registrar",
                    "type": "address"
                },
                {
                    "indexed": false,
                    "internalType": "string",
                    "name": "unifiedId",
                    "type": "string"
                },
                {
                    "indexed": false,
                    "internalType": "bytes",
                    "name": "currentPrimarySignature",
                    "type": "bytes"
                },
                {
                    "indexed": false,
                    "internalType": "bytes",
                    "name": "newPrimarySignature",
                    "type": "bytes"
                },
                {
                    "indexed": false,
                    "internalType": "bytes",
                    "name": "options",
                    "type": "bytes"
                },
                {
                    "indexed": false,
                    "internalType": "uint256",
                    "name": "timestamp",
                    "type": "uint256"
                }
            ],
            "name": "UpdateUnifiedIdPrimaryAddressInitiated",
            "type": "event"
        },
        {
            "anonymous": false,
            "inputs": [
                {
                    "indexed": true,
                    "internalType": "address",
                    "name": "implementation",
                    "type": "address"
                }
            ],
            "name": "Upgraded",
            "type": "event"
        },
        {
            "anonymous": false,
            "inputs": [
                {
                    "indexed": false,
                    "internalType": "address",
                    "name": "oldUtil",
                    "type": "address"
                },
                {
                    "indexed": false,
                    "internalType": "address",
                    "name": "newUtil",
                    "type": "address"
                },
                {
                    "indexed": false,
                    "internalType": "address",
                    "name": "updatedBy",
                    "type": "address"
                }
            ],
            "name": "UtilImplementationUpdated",
            "type": "event"
        },
        {
            "stateMutability": "payable",
            "type": "fallback"
        },
        {
            "inputs": [],
            "name": "ADMIN_ROLE",
            "outputs": [
                {
                    "internalType": "bytes32",
                    "name": "",
                    "type": "bytes32"
                }
            ],
            "stateMutability": "view",
            "type": "function"
        },
        {
            "inputs": [],
            "name": "DEFAULT_ADMIN_ROLE",
            "outputs": [
                {
                    "internalType": "bytes32",
                    "name": "",
                    "type": "bytes32"
                }
            ],
            "stateMutability": "view",
            "type": "function"
        },
        {
            "inputs": [],
            "name": "EMERGENCY_ROLE",
            "outputs": [
                {
                    "internalType": "bytes32",
                    "name": "",
                    "type": "bytes32"
                }
            ],
            "stateMutability": "view",
            "type": "function"
        },
        {
            "inputs": [],
            "name": "REGISTRAR_ROLE",
            "outputs": [
                {
                    "internalType": "bytes32",
                    "name": "",
                    "type": "bytes32"
                }
            ],
            "stateMutability": "view",
            "type": "function"
        },
        {
            "inputs": [],
            "name": "RELAYER_ROLE",
            "outputs": [
                {
                    "internalType": "bytes32",
                    "name": "",
                    "type": "bytes32"
                }
            ],
            "stateMutability": "view",
            "type": "function"
        },
        {
            "inputs": [],
            "name": "UPGRADER_ROLE",
            "outputs": [
                {
                    "internalType": "bytes32",
                    "name": "",
                    "type": "bytes32"
                }
            ],
            "stateMutability": "view",
            "type": "function"
        },
        {
            "inputs": [],
            "name": "UPGRADE_INTERFACE_VERSION",
            "outputs": [
                {
                    "internalType": "string",
                    "name": "",
                    "type": "string"
                }
            ],
            "stateMutability": "view",
            "type": "function"
        },
        {
            "inputs": [],
            "name": "acceptOwnership",
            "outputs": [],
            "stateMutability": "nonpayable",
            "type": "function"
        },
        {
            "inputs": [],
            "name": "chainId",
            "outputs": [
                {
                    "internalType": "uint256",
                    "name": "",
                    "type": "uint256"
                }
            ],
            "stateMutability": "view",
            "type": "function"
        },
        {
            "inputs": [
                {
                    "internalType": "string",
                    "name": "_unifiedId",
                    "type": "string"
                },
                {
                    "internalType": "address",
                    "name": "_secondaryAddress",
                    "type": "address"
                }
            ],
            "name": "completeAddSecondaryAddress",
            "outputs": [
                {
                    "internalType": "bool",
                    "name": "",
                    "type": "bool"
                }
            ],
            "stateMutability": "nonpayable",
            "type": "function"
        },
        {
            "inputs": [
                {
                    "internalType": "string",
                    "name": "_unifiedId",
                    "type": "string"
                },
                {
                    "internalType": "address",
                    "name": "_primaryAddress",
                    "type": "address"
                }
            ],
            "name": "completeRegisterUnifiedId",
            "outputs": [
                {
                    "internalType": "bool",
                    "name": "",
                    "type": "bool"
                }
            ],
            "stateMutability": "nonpayable",
            "type": "function"
        },
        {
            "inputs": [
                {
                    "internalType": "string",
                    "name": "_unifiedId",
                    "type": "string"
                },
                {
                    "internalType": "address",
                    "name": "_secondaryAddress",
                    "type": "address"
                }
            ],
            "name": "completeRemoveSecondaryAddress",
            "outputs": [
                {
                    "internalType": "bool",
                    "name": "",
                    "type": "bool"
                }
            ],
            "stateMutability": "nonpayable",
            "type": "function"
        },
        {
            "inputs": [
                {
                    "internalType": "string",
                    "name": "_oldUnifiedId",
                    "type": "string"
                },
                {
                    "internalType": "string",
                    "name": "_newUnifiedId",
                    "type": "string"
                }
            ],
            "name": "completeUpdateUnifiedId",
            "outputs": [
                {
                    "internalType": "bool",
                    "name": "",
                    "type": "bool"
                }
            ],
            "stateMutability": "nonpayable",
            "type": "function"
        },
        {
            "inputs": [],
            "name": "config",
            "outputs": [
                {
                    "internalType": "uint8",
                    "name": "maxSecondaryAddresses",
                    "type": "uint8"
                },
                {
                    "internalType": "uint8",
                    "name": "minUnifiedIdLength",
                    "type": "uint8"
                },
                {
                    "internalType": "uint8",
                    "name": "maxUnifiedIdLength",
                    "type": "uint8"
                },
                {
                    "internalType": "bool",
                    "name": "isPaused",
                    "type": "bool"
                },
                {
                    "internalType": "bool",
                    "name": "publicRegistrarRegistration",
                    "type": "bool"
                },
                {
                    "internalType": "bool",
                    "name": "emergencyMode",
                    "type": "bool"
                }
            ],
            "stateMutability": "view",
            "type": "function"
        },
        {
            "inputs": [
                {
                    "internalType": "string",
                    "name": "_unifiedId",
                    "type": "string"
                }
            ],
            "name": "emergencyMarkAvailable",
            "outputs": [],
            "stateMutability": "nonpayable",
            "type": "function"
        },
        {
            "inputs": [
                {
                    "internalType": "string",
                    "name": "_unifiedId",
                    "type": "string"
                }
            ],
            "name": "emergencyMarkUnavailable",
            "outputs": [],
            "stateMutability": "nonpayable",
            "type": "function"
        },
        {
            "inputs": [
                {
                    "internalType": "address",
                    "name": "_registrarAddress",
                    "type": "address"
                }
            ],
            "name": "emergencyRemoveRegistrar",
            "outputs": [],
            "stateMutability": "nonpayable",
            "type": "function"
        },
        {
            "inputs": [
                {
                    "internalType": "string",
                    "name": "_unifiedId",
                    "type": "string"
                },
                {
                    "internalType": "address",
                    "name": "_newPrimaryAddress",
                    "type": "address"
                }
            ],
            "name": "finalizePrimaryAddressChange",
            "outputs": [
                {
                    "internalType": "bool",
                    "name": "",
                    "type": "bool"
                }
            ],
            "stateMutability": "nonpayable",
            "type": "function"
        },
        {
            "inputs": [
                {
                    "internalType": "string",
                    "name": "unifiedId",
                    "type": "string"
                }
            ],
            "name": "getAddressCount",
            "outputs": [
                {
                    "internalType": "uint256",
                    "name": "count",
                    "type": "uint256"
                }
            ],
            "stateMutability": "view",
            "type": "function"
        },
        {
            "inputs": [
                {
                    "internalType": "string",
                    "name": "unifiedId",
                    "type": "string"
                }
            ],
            "name": "getAllAddresses",
            "outputs": [
                {
                    "internalType": "address[]",
                    "name": "allAddresses",
                    "type": "address[]"
                }
            ],
            "stateMutability": "view",
            "type": "function"
        },
        {
            "inputs": [],
            "name": "getAllRegistrars",
            "outputs": [
                {
                    "internalType": "address[]",
                    "name": "",
                    "type": "address[]"
                }
            ],
            "stateMutability": "view",
            "type": "function"
        },
        {
            "inputs": [],
            "name": "getAllRegistrarsWithNames",
            "outputs": [
                {
                    "internalType": "address[]",
                    "name": "addresses",
                    "type": "address[]"
                },
                {
                    "internalType": "string[]",
                    "name": "names",
                    "type": "string[]"
                }
            ],
            "stateMutability": "view",
            "type": "function"
        },
        {
            "inputs": [],
            "name": "getConfiguration",
            "outputs": [
                {
                    "internalType": "uint256",
                    "name": "",
                    "type": "uint256"
                },
                {
                    "internalType": "bool",
                    "name": "",
                    "type": "bool"
                },
                {
                    "internalType": "bool",
                    "name": "",
                    "type": "bool"
                },
                {
                    "internalType": "uint256",
                    "name": "",
                    "type": "uint256"
                },
                {
                    "internalType": "uint256",
                    "name": "",
                    "type": "uint256"
                }
            ],
            "stateMutability": "view",
            "type": "function"
        },
        {
            "inputs": [
                {
                    "internalType": "string",
                    "name": "_unifiedId",
                    "type": "string"
                }
            ],
            "name": "getPrimaryAddress",
            "outputs": [
                {
                    "internalType": "address",
                    "name": "",
                    "type": "address"
                }
            ],
            "stateMutability": "view",
            "type": "function"
        },
        {
            "inputs": [
                {
                    "internalType": "address",
                    "name": "_address",
                    "type": "address"
                }
            ],
            "name": "getRegistrarInfo",
            "outputs": [
                {
                    "internalType": "bool",
                    "name": "isReg",
                    "type": "bool"
                },
                {
                    "internalType": "string",
                    "name": "registrarName",
                    "type": "string"
                },
                {
                    "internalType": "uint8",
                    "name": "updateCount",
                    "type": "uint8"
                }
            ],
            "stateMutability": "view",
            "type": "function"
        },
        {
            "inputs": [
                {
                    "internalType": "address",
                    "name": "_address",
                    "type": "address"
                }
            ],
            "name": "getRegistrarName",
            "outputs": [
                {
                    "internalType": "string",
                    "name": "",
                    "type": "string"
                }
            ],
            "stateMutability": "view",
            "type": "function"
        },
        {
            "inputs": [
                {
                    "internalType": "bytes32",
                    "name": "role",
                    "type": "bytes32"
                }
            ],
            "name": "getRoleAdmin",
            "outputs": [
                {
                    "internalType": "bytes32",
                    "name": "",
                    "type": "bytes32"
                }
            ],
            "stateMutability": "view",
            "type": "function"
        },
        {
            "inputs": [
                {
                    "internalType": "string",
                    "name": "_unifiedId",
                    "type": "string"
                }
            ],
            "name": "getSecondaryAddresses",
            "outputs": [
                {
                    "internalType": "address[]",
                    "name": "",
                    "type": "address[]"
                }
            ],
            "stateMutability": "view",
            "type": "function"
        },
        {
            "inputs": [],
            "name": "getTotalRegisteredUnifiedIds",
            "outputs": [
                {
                    "internalType": "uint256",
                    "name": "",
                    "type": "uint256"
                }
            ],
            "stateMutability": "view",
            "type": "function"
        },
        {
            "inputs": [],
            "name": "getTotalRegistrars",
            "outputs": [
                {
                    "internalType": "uint256",
                    "name": "",
                    "type": "uint256"
                }
            ],
            "stateMutability": "view",
            "type": "function"
        },
        {
            "inputs": [
                {
                    "internalType": "bytes32",
                    "name": "role",
                    "type": "bytes32"
                },
                {
                    "internalType": "address",
                    "name": "account",
                    "type": "address"
                }
            ],
            "name": "grantRole",
            "outputs": [],
            "stateMutability": "nonpayable",
            "type": "function"
        },
        {
            "inputs": [
                {
                    "internalType": "string",
                    "name": "unifiedId",
                    "type": "string"
                }
            ],
            "name": "hasMultipleAddresses",
            "outputs": [
                {
                    "internalType": "bool",
                    "name": "hasMultiple",
                    "type": "bool"
                }
            ],
            "stateMutability": "view",
            "type": "function"
        },
        {
            "inputs": [
                {
                    "internalType": "bytes32",
                    "name": "role",
                    "type": "bytes32"
                },
                {
                    "internalType": "address",
                    "name": "account",
                    "type": "address"
                }
            ],
            "name": "hasRole",
            "outputs": [
                {
                    "internalType": "bool",
                    "name": "",
                    "type": "bool"
                }
            ],
            "stateMutability": "view",
            "type": "function"
        },
        {
            "inputs": [
                {
                    "internalType": "address",
                    "name": "_RegistrarStorageUtil",
                    "type": "address"
                },
                {
                    "internalType": "address",
                    "name": "_resolver",
                    "type": "address"
                },
                {
                    "internalType": "uint256",
                    "name": "_chainId",
                    "type": "uint256"
                }
            ],
            "name": "initialize",
            "outputs": [],
            "stateMutability": "nonpayable",
            "type": "function"
        },
        {
            "inputs": [
                {
                    "internalType": "string",
                    "name": "_unifiedId",
                    "type": "string"
                },
                {
                    "internalType": "address",
                    "name": "_secondaryAddress",
                    "type": "address"
                },
                {
                    "internalType": "bytes",
                    "name": "_primarySignature",
                    "type": "bytes"
                },
                {
                    "internalType": "bytes",
                    "name": "_secondarySignature",
                    "type": "bytes"
                },
                {
                    "internalType": "bytes",
                    "name": "_options",
                    "type": "bytes"
                }
            ],
            "name": "initiateAddSecondaryAddress",
            "outputs": [
                {
                    "internalType": "bool",
                    "name": "",
                    "type": "bool"
                }
            ],
            "stateMutability": "payable",
            "type": "function"
        },
        {
            "inputs": [
                {
                    "internalType": "string",
                    "name": "_unifiedId",
                    "type": "string"
                },
                {
                    "internalType": "address",
                    "name": "_newPrimaryAddress",
                    "type": "address"
                },
                {
                    "internalType": "bytes",
                    "name": "currentPrimarySignature",
                    "type": "bytes"
                },
                {
                    "internalType": "bytes",
                    "name": "newPrimarySignature",
                    "type": "bytes"
                },
                {
                    "internalType": "bytes",
                    "name": "_options",
                    "type": "bytes"
                }
            ],
            "name": "initiatePrimaryAddressChange",
            "outputs": [
                {
                    "internalType": "bool",
                    "name": "",
                    "type": "bool"
                }
            ],
            "stateMutability": "payable",
            "type": "function"
        },
        {
            "inputs": [
                {
                    "internalType": "string",
                    "name": "_unifiedId",
                    "type": "string"
                },
                {
                    "internalType": "address",
                    "name": "_primaryAddress",
                    "type": "address"
                },
                {
                    "internalType": "bytes",
                    "name": "_masterSignature",
                    "type": "bytes"
                },
                {
                    "internalType": "bytes",
                    "name": "_primarySignature",
                    "type": "bytes"
                },
                {
                    "internalType": "bytes",
                    "name": "_options",
                    "type": "bytes"
                }
            ],
            "name": "initiateRegisterUnifiedId",
            "outputs": [
                {
                    "internalType": "bool",
                    "name": "",
                    "type": "bool"
                }
            ],
            "stateMutability": "payable",
            "type": "function"
        },
        {
            "inputs": [
                {
                    "internalType": "string",
                    "name": "_unifiedId",
                    "type": "string"
                },
                {
                    "internalType": "address",
                    "name": "_secondaryAddress",
                    "type": "address"
                },
                {
                    "internalType": "bytes",
                    "name": "_signature",
                    "type": "bytes"
                },
                {
                    "internalType": "bytes",
                    "name": "_options",
                    "type": "bytes"
                }
            ],
            "name": "initiateRemoveSecondaryAddress",
            "outputs": [
                {
                    "internalType": "bool",
                    "name": "",
                    "type": "bool"
                }
            ],
            "stateMutability": "payable",
            "type": "function"
        },
        {
            "inputs": [
                {
                    "internalType": "string",
                    "name": "_oldUnifiedId",
                    "type": "string"
                },
                {
                    "internalType": "string",
                    "name": "_newUnifiedId",
                    "type": "string"
                },
                {
                    "internalType": "bytes",
                    "name": "_signature",
                    "type": "bytes"
                },
                {
                    "internalType": "bytes",
                    "name": "_options",
                    "type": "bytes"
                }
            ],
            "name": "initiateUpdateUnifiedId",
            "outputs": [
                {
                    "internalType": "bool",
                    "name": "",
                    "type": "bool"
                }
            ],
            "stateMutability": "payable",
            "type": "function"
        },
        {
            "inputs": [
                {
                    "internalType": "address",
                    "name": "account",
                    "type": "address"
                }
            ],
            "name": "isAdmin",
            "outputs": [
                {
                    "internalType": "bool",
                    "name": "",
                    "type": "bool"
                }
            ],
            "stateMutability": "view",
            "type": "function"
        },
        {
            "inputs": [
                {
                    "internalType": "address",
                    "name": "account",
                    "type": "address"
                }
            ],
            "name": "isEmergencyResponder",
            "outputs": [
                {
                    "internalType": "bool",
                    "name": "",
                    "type": "bool"
                }
            ],
            "stateMutability": "view",
            "type": "function"
        },
        {
            "inputs": [
                {
                    "internalType": "string",
                    "name": "_unifiedId",
                    "type": "string"
                },
                {
                    "internalType": "address",
                    "name": "_address",
                    "type": "address"
                }
            ],
            "name": "isPrimaryAddress",
            "outputs": [
                {
                    "internalType": "bool",
                    "name": "",
                    "type": "bool"
                }
            ],
            "stateMutability": "view",
            "type": "function"
        },
        {
            "inputs": [
                {
                    "internalType": "address",
                    "name": "account",
                    "type": "address"
                }
            ],
            "name": "isRegistrar",
            "outputs": [
                {
                    "internalType": "bool",
                    "name": "",
                    "type": "bool"
                }
            ],
            "stateMutability": "view",
            "type": "function"
        },
        {
            "inputs": [
                {
                    "internalType": "address",
                    "name": "account",
                    "type": "address"
                }
            ],
            "name": "isRelayer",
            "outputs": [
                {
                    "internalType": "bool",
                    "name": "",
                    "type": "bool"
                }
            ],
            "stateMutability": "view",
            "type": "function"
        },
        {
            "inputs": [
                {
                    "internalType": "string",
                    "name": "_unifiedId",
                    "type": "string"
                },
                {
                    "internalType": "address",
                    "name": "_address",
                    "type": "address"
                }
            ],
            "name": "isSecondaryAddress",
            "outputs": [
                {
                    "internalType": "bool",
                    "name": "",
                    "type": "bool"
                }
            ],
            "stateMutability": "view",
            "type": "function"
        },
        {
            "inputs": [
                {
                    "internalType": "address",
                    "name": "account",
                    "type": "address"
                }
            ],
            "name": "isUpgrader",
            "outputs": [
                {
                    "internalType": "bool",
                    "name": "",
                    "type": "bool"
                }
            ],
            "stateMutability": "view",
            "type": "function"
        },
        {
            "inputs": [
                {
                    "internalType": "bytes32",
                    "name": "role",
                    "type": "bytes32"
                },
                {
                    "internalType": "address",
                    "name": "account",
                    "type": "address"
                },
                {
                    "internalType": "bool",
                    "name": "grant",
                    "type": "bool"
                }
            ],
            "name": "manageRole",
            "outputs": [],
            "stateMutability": "nonpayable",
            "type": "function"
        },
        {
            "inputs": [],
            "name": "owner",
            "outputs": [
                {
                    "internalType": "address",
                    "name": "",
                    "type": "address"
                }
            ],
            "stateMutability": "view",
            "type": "function"
        },
        {
            "inputs": [],
            "name": "pauseRegistration",
            "outputs": [],
            "stateMutability": "nonpayable",
            "type": "function"
        },
        {
            "inputs": [],
            "name": "pendingOwner",
            "outputs": [
                {
                    "internalType": "address",
                    "name": "",
                    "type": "address"
                }
            ],
            "stateMutability": "view",
            "type": "function"
        },
        {
            "inputs": [],
            "name": "proxiableUUID",
            "outputs": [
                {
                    "internalType": "bytes32",
                    "name": "",
                    "type": "bytes32"
                }
            ],
            "stateMutability": "view",
            "type": "function"
        },
        {
            "inputs": [
                {
                    "internalType": "string",
                    "name": "_registrarName",
                    "type": "string"
                },
                {
                    "internalType": "address",
                    "name": "_registrarAddress",
                    "type": "address"
                }
            ],
            "name": "registerRegistrar",
            "outputs": [
                {
                    "internalType": "bool",
                    "name": "",
                    "type": "bool"
                }
            ],
            "stateMutability": "payable",
            "type": "function"
        },
        {
            "inputs": [
                {
                    "internalType": "bytes32",
                    "name": "",
                    "type": "bytes32"
                }
            ],
            "name": "registeredUnifiedIds",
            "outputs": [
                {
                    "internalType": "bool",
                    "name": "",
                    "type": "bool"
                }
            ],
            "stateMutability": "view",
            "type": "function"
        },
        {
            "inputs": [
                {
                    "internalType": "uint256",
                    "name": "",
                    "type": "uint256"
                }
            ],
            "name": "registrarAddresses",
            "outputs": [
                {
                    "internalType": "address",
                    "name": "",
                    "type": "address"
                }
            ],
            "stateMutability": "view",
            "type": "function"
        },
        {
            "inputs": [
                {
                    "internalType": "bytes32",
                    "name": "",
                    "type": "bytes32"
                }
            ],
            "name": "registrarNameToAddress",
            "outputs": [
                {
                    "internalType": "address",
                    "name": "",
                    "type": "address"
                }
            ],
            "stateMutability": "view",
            "type": "function"
        },
        {
            "inputs": [
                {
                    "internalType": "uint256",
                    "name": "",
                    "type": "uint256"
                }
            ],
            "name": "registrarNames",
            "outputs": [
                {
                    "internalType": "string",
                    "name": "",
                    "type": "string"
                }
            ],
            "stateMutability": "view",
            "type": "function"
        },
        {
            "inputs": [],
            "name": "renounceOwnership",
            "outputs": [],
            "stateMutability": "nonpayable",
            "type": "function"
        },
        {
            "inputs": [
                {
                    "internalType": "bytes32",
                    "name": "role",
                    "type": "bytes32"
                },
                {
                    "internalType": "address",
                    "name": "callerConfirmation",
                    "type": "address"
                }
            ],
            "name": "renounceRole",
            "outputs": [],
            "stateMutability": "nonpayable",
            "type": "function"
        },
        {
            "inputs": [
                {
                    "internalType": "string",
                    "name": "unifiedId",
                    "type": "string"
                },
                {
                    "internalType": "address",
                    "name": "addr",
                    "type": "address"
                }
            ],
            "name": "resolveAddressAssociation",
            "outputs": [
                {
                    "internalType": "bool",
                    "name": "isPrimary",
                    "type": "bool"
                },
                {
                    "internalType": "bool",
                    "name": "isSecondary",
                    "type": "bool"
                }
            ],
            "stateMutability": "view",
            "type": "function"
        },
        {
            "inputs": [
                {
                    "internalType": "bytes32",
                    "name": "",
                    "type": "bytes32"
                }
            ],
            "name": "resolveAddressFromUnifiedId",
            "outputs": [
                {
                    "internalType": "address",
                    "name": "",
                    "type": "address"
                }
            ],
            "stateMutability": "view",
            "type": "function"
        },
        {
            "inputs": [
                {
                    "internalType": "address",
                    "name": "addr",
                    "type": "address"
                }
            ],
            "name": "resolveAddressToUnifiedId",
            "outputs": [
                {
                    "internalType": "string",
                    "name": "",
                    "type": "string"
                }
            ],
            "stateMutability": "view",
            "type": "function"
        },
        {
            "inputs": [
                {
                    "internalType": "string",
                    "name": "unifiedId",
                    "type": "string"
                }
            ],
            "name": "resolveAllAddresses",
            "outputs": [
                {
                    "internalType": "address",
                    "name": "primary",
                    "type": "address"
                },
                {
                    "internalType": "address[]",
                    "name": "secondaries",
                    "type": "address[]"
                }
            ],
            "stateMutability": "view",
            "type": "function"
        },
        {
            "inputs": [
                {
                    "internalType": "address",
                    "name": "addr",
                    "type": "address"
                }
            ],
            "name": "resolveAnyAddressToUnifiedId",
            "outputs": [
                {
                    "internalType": "string",
                    "name": "unifiedId",
                    "type": "string"
                },
                {
                    "internalType": "bool",
                    "name": "isPrimary",
                    "type": "bool"
                },
                {
                    "internalType": "bool",
                    "name": "isSecondary",
                    "type": "bool"
                }
            ],
            "stateMutability": "view",
            "type": "function"
        },
        {
            "inputs": [
                {
                    "internalType": "string",
                    "name": "unifiedId",
                    "type": "string"
                }
            ],
            "name": "resolvePrimaryAddress",
            "outputs": [
                {
                    "internalType": "address",
                    "name": "",
                    "type": "address"
                }
            ],
            "stateMutability": "view",
            "type": "function"
        },
        {
            "inputs": [
                {
                    "internalType": "address",
                    "name": "secondaryAddr",
                    "type": "address"
                }
            ],
            "name": "resolveSecondaryAddressToUnifiedId",
            "outputs": [
                {
                    "internalType": "string",
                    "name": "",
                    "type": "string"
                }
            ],
            "stateMutability": "view",
            "type": "function"
        },
        {
            "inputs": [
                {
                    "internalType": "address",
                    "name": "",
                    "type": "address"
                }
            ],
            "name": "resolveUnifiedIdFromAddress",
            "outputs": [
                {
                    "internalType": "bytes32",
                    "name": "",
                    "type": "bytes32"
                }
            ],
            "stateMutability": "view",
            "type": "function"
        },
        {
            "inputs": [],
            "name": "resolver",
            "outputs": [
                {
                    "internalType": "contract IUnifiedIdResolver",
                    "name": "",
                    "type": "address"
                }
            ],
            "stateMutability": "view",
            "type": "function"
        },
        {
            "inputs": [
                {
                    "internalType": "bytes32",
                    "name": "role",
                    "type": "bytes32"
                },
                {
                    "internalType": "address",
                    "name": "account",
                    "type": "address"
                }
            ],
            "name": "revokeRole",
            "outputs": [],
            "stateMutability": "nonpayable",
            "type": "function"
        },
        {
            "inputs": [
                {
                    "internalType": "uint256",
                    "name": "_chainId",
                    "type": "uint256"
                }
            ],
            "name": "setChainId",
            "outputs": [],
            "stateMutability": "nonpayable",
            "type": "function"
        },
        {
            "inputs": [
                {
                    "internalType": "bool",
                    "name": "_enabled",
                    "type": "bool"
                }
            ],
            "name": "setEmergencyMode",
            "outputs": [],
            "stateMutability": "nonpayable",
            "type": "function"
        },
        {
            "inputs": [
                {
                    "internalType": "uint256",
                    "name": "_maxSecondaryAddresses",
                    "type": "uint256"
                }
            ],
            "name": "setMaxSecondaryAddresses",
            "outputs": [],
            "stateMutability": "nonpayable",
            "type": "function"
        },
        {
            "inputs": [
                {
                    "internalType": "bool",
                    "name": "_enabled",
                    "type": "bool"
                }
            ],
            "name": "setRegistrarRegistrationPermission",
            "outputs": [],
            "stateMutability": "nonpayable",
            "type": "function"
        },
        {
            "inputs": [
                {
                    "internalType": "address",
                    "name": "_resolver",
                    "type": "address"
                }
            ],
            "name": "setResolver",
            "outputs": [],
            "stateMutability": "nonpayable",
            "type": "function"
        },
        {
            "inputs": [
                {
                    "internalType": "uint256",
                    "name": "_minLength",
                    "type": "uint256"
                },
                {
                    "internalType": "uint256",
                    "name": "_maxLength",
                    "type": "uint256"
                }
            ],
            "name": "setUnifiedIdLengthLimits",
            "outputs": [],
            "stateMutability": "nonpayable",
            "type": "function"
        },
        {
            "inputs": [
                {
                    "internalType": "address",
                    "name": "_RegistrarStorageUtil",
                    "type": "address"
                }
            ],
            "name": "setUtilImplementation",
            "outputs": [],
            "stateMutability": "nonpayable",
            "type": "function"
        },
        {
            "inputs": [
                {
                    "internalType": "bytes4",
                    "name": "interfaceId",
                    "type": "bytes4"
                }
            ],
            "name": "supportsInterface",
            "outputs": [
                {
                    "internalType": "bool",
                    "name": "",
                    "type": "bool"
                }
            ],
            "stateMutability": "view",
            "type": "function"
        },
        {
            "inputs": [],
            "name": "totalRegisteredUnifiedIds",
            "outputs": [
                {
                    "internalType": "uint256",
                    "name": "",
                    "type": "uint256"
                }
            ],
            "stateMutability": "view",
            "type": "function"
        },
        {
            "inputs": [
                {
                    "internalType": "address",
                    "name": "",
                    "type": "address"
                }
            ],
            "name": "totalRegistrarUpdates",
            "outputs": [
                {
                    "internalType": "uint8",
                    "name": "",
                    "type": "uint8"
                }
            ],
            "stateMutability": "view",
            "type": "function"
        },
        {
            "inputs": [
                {
                    "internalType": "address",
                    "name": "newOwner",
                    "type": "address"
                }
            ],
            "name": "transferOwnership",
            "outputs": [],
            "stateMutability": "nonpayable",
            "type": "function"
        },
        {
            "inputs": [
                {
                    "internalType": "bytes32",
                    "name": "",
                    "type": "bytes32"
                }
            ],
            "name": "unavailableUnifiedIds",
            "outputs": [
                {
                    "internalType": "bool",
                    "name": "",
                    "type": "bool"
                }
            ],
            "stateMutability": "view",
            "type": "function"
        },
        {
            "inputs": [],
            "name": "unpauseRegistration",
            "outputs": [],
            "stateMutability": "nonpayable",
            "type": "function"
        },
        {
            "inputs": [
                {
                    "internalType": "address",
                    "name": "newImplementation",
                    "type": "address"
                },
                {
                    "internalType": "bytes",
                    "name": "data",
                    "type": "bytes"
                }
            ],
            "name": "upgradeToAndCall",
            "outputs": [],
            "stateMutability": "payable",
            "type": "function"
        },
        {
            "inputs": [
                {
                    "internalType": "bytes32",
                    "name": "",
                    "type": "bytes32"
                },
                {
                    "internalType": "uint256",
                    "name": "",
                    "type": "uint256"
                }
            ],
            "name": "usedNonces",
            "outputs": [
                {
                    "internalType": "bool",
                    "name": "",
                    "type": "bool"
                }
            ],
            "stateMutability": "view",
            "type": "function"
        },
        {
            "inputs": [],
            "name": "util",
            "outputs": [
                {
                    "internalType": "contract RegistrarStorageUtil",
                    "name": "",
                    "type": "address"
                }
            ],
            "stateMutability": "view",
            "type": "function"
        },
        {
            "inputs": [
                {
                    "internalType": "address",
                    "name": "token",
                    "type": "address"
                },
                {
                    "internalType": "address",
                    "name": "to",
                    "type": "address"
                },
                {
                    "internalType": "uint256",
                    "name": "amount",
                    "type": "uint256"
                }
            ],
            "name": "withdrawERC20",
            "outputs": [],
            "stateMutability": "nonpayable",
            "type": "function"
        },
        {
            "inputs": [
                {
                    "internalType": "address payable",
                    "name": "to",
                    "type": "address"
                },
                {
                    "internalType": "uint256",
                    "name": "amount",
                    "type": "uint256"
                }
            ],
            "name": "withdrawEth",
            "outputs": [],
            "stateMutability": "nonpayable",
            "type": "function"
        },
        {
            "stateMutability": "payable",
            "type": "receive"
        }
    ],
    "bytecode": "0x60a0806040523460c857306080527ff0c57e16840df040f15088dc2f81fe391c3923bec73e23a9662efc9c229c6a009081549060ff8260401c1660b957506001600160401b036002600160401b0319828216016075575b604051614f3c90816100ce8239608051818181612a3e0152612d4c0152f35b6001600160401b031990911681179091556040519081527fc7f505b2f371ae2175ee4913f4499e1f2633a7b5936321eed1cdaeb6115181d290602090a13880806056565b63f92ee8a960e01b8152600490fd5b600080fdfe608080604052600436101561001a575b50361561001857005b005b60003560e01c9081622d755114613be15750806301443a8c14613b9857806301ffc9a714613b4357806303c9842e14613a7957806304f3bcec14613a5057806306395c8614613a11578063150341a2146139cd578063175c6323146138bd5780631794bb3c146136bc5780631b9a91a4146136005780631f5c9057146135b057806320df435914613587578063248a9ca31461354b57806324d7806c146134fb5780632f2ff15d146134af5780632fde76bd1461347e57806330822cf41461344a57806336568abe146134035780633d2a0487146133c15780633ef1bdde1461217557806340e7fe73146132d95780634327086a1461329c57806344004cc1146130ae57806349dac93c14612fd55780634bc723b514612fb15780634e543b2614612f115780634f1ef28614612cfc5780634f9195af14612c7257806350d2519d14612c3857806352d0e3ca14612a9657806352d1902d14612a2b57806353a14e0c146129fa578063541d554814612998578063630a7435146128765780636717a591146127f05780636aba058b1461278b5780636bd50cef1461273a578063715018a6146126dd5780637209a1db1461267c57806375b238fc1461265357806376e7a637146126085780637938414c1461253e57806379502c55146124e057806379ba50971461246c57806383a864f414612193578063841ad2171461217557806384f22aed14611eaa5780638842b39614611c415780638877733f14611b5d5780638da5cb5b14611b345780638eec32ea14611ad457806391d1485414611a7a5780639253f38c146117b8578063926d7d7f1461178f578063943202e414611655578063956138751461162c57806397e5e41c146115d45780639a34843e146115395780639a8a05921461151b5780639d56b2d9146113d3578063a217fddf146113b7578063a4d4329014611383578063ab7f9f1b14611353578063ad3cb1cc146112e5578063b7b9479114611245578063bc85fd2c14610f56578063bd47d87514610ebf578063be32b3f814610e0b578063be4625b614610c8a578063cb6629d314610c3a578063cc37aadd14610ae3578063d4eea68f14610a1b578063d547741f146109cf578063d5a7035f146109b1578063d5db72eb14610961578063df0447d0146108c3578063e30c39781461089a578063e79f31c5146107bb578063ec6ca60714610734578063ed753b0b146106e2578063ef0e2ff414610687578063f2fde38b146105e4578063f39f1f44146104f8578063f68e9553146104cf578063f72c0d8b146104a65763fdf6b179146103d8573861000f565b3461048e5760208060031936011261048e576004356001600160401b03811161048e578161040d610446923690600401613dc7565b6006546004805460408051631cdd0ed760e11b815292830152909586946001600160a01b039093169385938493929160448501916141cf565b90602483015203915afa90811561049a57600091610468575b50604051908152f35b90508181813d8311610493575b61047f8183613fa2565b8101031261048e57513861045f565b600080fd5b503d610475565b6040513d6000823e3d90fd5b3461048e57600036600319011261048e576020604051600080516020614ce78339815191528152f35b3461048e57600036600319011261048e576020604051600080516020614e278339815191528152f35b3461048e57602036600319011261048e576105416000610516613e0a565b60018060a01b0360065416600454916040518095819482936301b03ab960e21b845260048401614286565b03915afa801561049a57600090600090600090610585575b6105729350604051938493606085526060850190613e43565b9115156020840152151560408301520390f35b5050503d806000833e6105988183613fa2565b81019060608183031261048e5780516001600160401b03811161048e57610572926105c491830161421f565b6105dc60406105d5602085016141a8565b93016141a8565b909190610559565b3461048e57602036600319011261048e576105fd613e0a565b6000546001600160a01b039081169190338303610675578116918215610663577f38d16b8cac22d99fc7c124b9cd0de2d3fa1faef420bfe791d8c362d765e227009260018060a01b0319600154161760015561065e604051928392836142b5565b0390a1005b604051633485c51360e21b8152600490fd5b60405163440a57bf60e01b8152600490fd5b3461048e57602036600319011261048e577fd1721e673f3f092b231fe2a31b20dc7abcbf2dd781c93c70327e89e060b1d88160606004356106c6614a09565b60045490806004556040519182526020820152336040820152a1005b3461048e57600036600319011261048e576106fb614a09565b63ff00000019600254166002557ffe624b70ee91a6cf93fd4031bb09b73d868ff9ccc4fc6abaa00dd996e4c262726020604051338152a1005b3461048e5760208060031936011261048e576004356001600160401b03811161048e578161040d610769923690600401613dc7565b90602483015203915afa90811561049a5760009161078e575b50600160405191118152f35b90508181813d83116107b4575b6107a58183613fa2565b8101031261048e575182610782565b503d61079b565b6107c436614017565b9060ff6002999397999695965460181c16610888576107e4368985613fe0565b60208151910120600052600a60205260ff60406000205460a01c161561087657336000908152600080516020614d87833981519152602052604090205460ff161561048e577fa56239c6892cc394e11f3c07e312c8b14da84ec4d68fe939e115e05a6ad99c449661086894604051978897339c60018060a01b03169b42978a6144d3565b0390a3602060405160018152f35b604051631bd18a1960e31b8152600490fd5b6040516388d0662b60e01b8152600490fd5b3461048e57600036600319011261048e576001546040516001600160a01b039091168152602090f35b3461048e5760406108d336613e68565b60065460048054865163ccf365a360e01b8152969587956001600160a01b0390941694869485946109089492939086016141f0565b03915afa90811561049a57604091600091600091610932575b508251911515825215156020820152f35b90506109549150823d841161095a575b61094c8183613fa2565b8101906141b5565b83610921565b503d610942565b3461048e57602036600319011261048e5761097a613e0a565b6001600160a01b03166000908152600080516020614d87833981519152602090815260409182902054915160ff9092161515825290f35b3461048e57600036600319011261048e576020600754604051908152f35b3461048e57604036600319011261048e576100186004356109ee613df4565b9080600052600080516020614de7833981519152602052610a16600160406000200154614a41565b614af8565b3461048e57602036600319011261048e576004356001600160401b03811161048e576000610a50610a89923690600401613dc7565b6006546004805460408051630194b1eb60e51b815292830152909586946001600160a01b039093169385938493929160448501916141cf565b90602483015203915afa801561049a57610aba91600091610abe575b50604051918291602083526020830190613f52565b0390f35b610adb91503d806000833e610ad38183613fa2565b810190614529565b905082610aa5565b610aec36614017565b60025498929593929160188a901c60ff1661088857610b0c368a85613fe0565b998a516020809c0120600052600a8b5260ff60406000205460a01c161561087657600080516020614e27833981519152600052600080516020614de78339815191528b526040600020336000528b5260ff604060002054161561048e57610b74368b86613fe0565b8051908c01206000908152600a8c526040902080546001600160a01b039a8b169a168a14610c285789600052600181018c5260ff60406000205416610c1657600260ff91015491161115610c04577fc8eb5731f9530481b11621f233fbf2ab7d81272676a606202c50c1f7218e456996610bf894604051978897339c42978a6144d3565b0390a360405160018152f35b604051635fb383fd60e11b8152600490fd5b604051631839ac6f60e21b8152600490fd5b60405163ea5e680560e01b8152600490fd5b3461048e57602036600319011261048e57610c53613e0a565b6001600160a01b03166000908152600080516020614ea7833981519152602090815260409182902054915160ff9092161515825290f35b3461048e57610c9836613e68565b336000908152600080516020614d87833981519152602090815260409091205490939060ff161561048e57610cce368483613fe0565b8051908501206000908152600a855260409020546001600160a01b03838116949181168514610c285760065416926004549060405163ccf365a360e01b815260408180610d218587898b600486016141f0565b0381895afa90811561049a57600091610dea575b5015610d70575050600080516020614d678339815191529250610d63604051928392878452878401916141cf565b0390a25b60405160018152f35b843b1561048e57610d9d9460009283604051809881958294630dbde82b60e41b8452898b600486016141f0565b03925af192831561049a57600080516020614d6783398151915293610ddb575b50610dd3604051928392878452878401916141cf565b0390a2610d67565b610de490613f8f565b85610dbd565b610e03915060403d60401161095a5761094c8183613fa2565b905088610d35565b3461048e57602036600319011261048e57610e24613f43565b336000908152600080516020614c678339815191526020526040902054600080516020614c878339815191529060ff1615610ea1577fb8a34678623c94d0d3977ce6d4db867e7e96ffd365f2c0f677563f8dddd4c840602083151560025460ff60281b8260281b169060ff60281b191617600255604051908152a1005b6044906040519063e2517d3f60e01b82523360048301526024820152fd5b3461048e57602036600319011261048e57610f086000610edd613e0a565b60018060a01b03600654166004549160405180958194829363ba78abeb60e01b845260048401614286565b03915afa801561049a57610aba91600091610f33575b50604051918291602083526020830190613e43565b610f5091503d806000833e610f488183613fa2565b810190614261565b82610f1e565b3461048e5760208060031936011261048e57610f70613e0a565b90600080516020614c87833981519152600052600080516020614de7833981519152808252604060002033600052825260ff604060002054168015611216575b8015611202575b1561048e57600080516020614e278339815191526000528152604060002060018060a01b038084169182600052835260ff60406000205416156111f05761100661100085614439565b94614a74565b508351838501206000908152600884526040812080546001600160a01b031916905560078054915b82811061106d575b600080516020614da783398151915286866110628a606060405194859485528401526060830190613e43565b3360408301520390a1005b838561107883613edf565b929054600393841b1c1614611090575060010161102e565b9693919092600019978882019182116111da576110de846110b084613edf565b905490841b1c166110c087613edf565b90919060018060a01b038084549260031b9316831b921b1916179055565b82549283156111c457611113948a61110c9501926110fb84613edf565b81939154921b1b1916905555613f10565b5091613f10565b9190916111ae5761112391614616565b601093845480156111c457019061113982613f10565b9290926111ae57600080516020614da7833981519152958361115e61106295546140ab565b9081611170575b505055938580611036565b600091601f80821160011461118a575050555b8780611165565b916111a78492938284528b8420940160051c84016001850161455f565b5555611183565b634e487b7160e01b600052600060045260246000fd5b634e487b7160e01b600052603160045260246000fd5b634e487b7160e01b600052601160045260246000fd5b6040516373123a4960e01b8152600490fd5b506000546001600160a01b03163314610fb7565b50600080516020614e87833981519152600052808252604060002033600052825260ff60406000205416610fb0565b3461048e57602036600319011261048e5761125e613e0a565b611266614a09565b6001600160a01b03818116919082156112d35761065e7f65a47e724c47e24032dddddd75bda55c78d8693238ee40ef8408ba8de6b53104936112b063ffffffff853b1615156142cf565b600580546001600160a01b031981169092179055604051938493339216846144b0565b6040516340079e1f60e11b8152600490fd5b3461048e57600036600319011261048e5760408051908101906001600160401b0382118183101761133d57610aba9160405260058152640352e302e360dc1b6020820152604051918291602083526020830190613e43565b634e487b7160e01b600052604160045260246000fd5b3461048e57600036600319011261048e57610aba61136f6145bb565b604051918291602083526020830190613f52565b3461048e57602036600319011261048e57600435600052600d602052602060018060a01b0360406000205416604051908152f35b3461048e57600036600319011261048e57602060405160008152f35b3461048e576113e136613e68565b336000908152600080516020614d8783398151915260209081526040909120549093919060ff161561048e5760018060a01b03908160065416926004549360405163ccf365a360e01b815260408180611440878a8c89600486016141f0565b0381855afa90811561049a576000916114fa575b50156114d057803b1561048e578260009161148896836040518099819582946342f0afe960e01b84528d8a600486016141f0565b03925af190811561049a57600080516020614ee783398151915294610d63926114c1575b506040519384938885521695878401916141cf565b6114ca90613f8f565b876114ac565b50600080516020614ee78339815191529350610dd3906040519384938885521695878401916141cf565b611513915060403d60401161095a5761094c8183613fa2565b905088611454565b3461048e57600036600319011261048e576020600454604051908152f35b3461048e57604036600319011261048e57600435602435611558614a09565b811580156115ca575b6115b8577f84c2c3b2464170fd78a7522676a9980e0ba51467e3bceaea7f2a6545b8cbc0709160409160025462ff00008260101b169061ff008460081b169062ffff001916171760025582519182526020820152a1005b604051633c20e84b60e21b8152600490fd5b5081811115611561565b3461048e57600036600319011261048e576115ed614a09565b630100000063ff0000001960025416176002557f938ca4d289d41391fa62d32dc2c522cefc56969c323876dc95904a0d8e7ac8c26020604051338152a1005b3461048e57600036600319011261048e576005546040516001600160a01b039091168152602090f35b3461048e5761166336613e68565b90600080516020614e27833981519152600052602092600080516020614de78339815191528452604060002033600052845260ff604060002054161561048e576116ae368383613fe0565b8051908501206000818152600a8652604080822080546001600160a81b0319166001600160a01b03909716968717600160a01b179055600d875280822080546001600160a01b03191687179055858252600e8752808220839055918152600c8652818120805460ff199081166001908117909255600b88529290912080549092161790556003549160001983146111da5760017fb29cfb83fe19770764bd376750a3430648eda0b72e850613b7b3040fde4a66aa930160035561177e6040519283926040845260408401916141cf565b42868301520390a260405160018152f35b3461048e57600036600319011261048e576020604051600080516020614ca78339815191528152f35b3461048e576117c636613e68565b336000908152600080516020614d87833981519152602052604090205460ff161561048e576117f6368385613fe0565b80516020918201206000818152600a9092526040909120805494916001600160a01b0380871690851614611a68576001600160a01b03841615611a565760065460048054604080516306a3206b60e31b8152928301529093916001600160a01b03166020858061186a604482018c8b6141cf565b8560248301520381845afa94851561049a57600095611a12575b506118a89160009160405180809581946335b0ce6160e11b83528c60048401614286565b03915afa90811561049a576000916119f7575b50805180151591826119d6575b505061048e576001600160a01b038581166001600160a01b031989811682179093556000848152600d6020908152604080832080549096168417909555828252600e905283812094909455818916845291832092909255911603611960575b60405160208082526001600160a01b039384169590931693600080516020614e47833981519152939192839261086892908401916141cf565b60065460045492906001600160a01b0316803b1561048e578160009161199f95836040518098819582946338e1552760e21b84528c8b600486016141f0565b03925af192831561049a57600080516020614e47833981519152936119c7575b509150611927565b6119d090613f8f565b856119bf565b6020012090506119e7368887613fe0565b60208151910120141588806118c8565b611a0c91503d806000833e610f488183613fa2565b886118bb565b9094506020813d602011611a4e575b81611a2e60209383613fa2565b8101031261048e576118a891611a456000926142a1565b95915091611884565b3d9150611a21565b604051632256b7b360e01b8152600490fd5b60405163c83e2c8360e01b8152600490fd5b3461048e57604036600319011261048e57611a93613df4565b600435600052600080516020614de783398151915260205260406000209060018060a01b0316600052602052602060ff604060002054166040519015158152f35b3461048e57602036600319011261048e577f2a54d6b0cbb1614fb9cae4cf847053e1c44a6aa44623319d761b656f60935da16040600435611b13614a09565b6002549060ff811660ff1983161760025560ff8351921682526020820152a1005b3461048e57600036600319011261048e576000546040516001600160a01b039091168152602090f35b3461048e57600036600319011261048e57611b766145bb565b60105490611b83826143b9565b91611b916040519384613fa2565b80835260208084019182601060005282600020836000925b848410611c23575050505050611bca60405193604085526040850190613f52565b93838503828501525180855281850191808260051b87010193926000965b838810611bf55786860387f35b90919293948380611c12600193601f198682030187528951613e43565b970193019701969093929193611be8565b6001918291611c31856140e5565b8152019201920191908490611ba9565b608036600319011261048e576001600160401b0360043581811161048e57611c6d903690600401613dc7565b9160243581811161048e57611c86903690600401613dc7565b909160443581811161048e57611ca0903690600401613dc7565b95909160643590811161048e57611cbb903690600401613dc7565b91909260ff60025460181c1661088857611cd6368389613fe0565b9788516020809a0120600052600a895260ff60406000205460a01c161561087657611d02368789613fe0565b89815191012080600052600a8a5260ff60406000205460a01c16611e9857600052600b895260ff60406000205416611e8657600080516020614e27833981519152600052600080516020614de78339815191528952604060002033600052895260ff604060002054161561048e5760055460405163139c8deb60e01b8152600481018b9052908a9082906001600160a01b03168180611da5602482018d8f6141cf565b03915afa90811561049a57600091611e51575b5015611e3f57611e0d7fdd79f9445e732608668bd829be7a6dcab673347846e6d459648641750c9bcefe97611e2997611e0060a09b611e1b976040519d8e81815201916141cf565b918b83038d8d01526141cf565b9188830360408a01526141cf565b9185830360608701526141cf565b914260808201528033930390a260405160018152f35b60405163ce1ffe1360e01b8152600490fd5b90508981813d8311611e7f575b611e688183613fa2565b8101031261048e57611e79906141a8565b8a611db8565b503d611e5e565b604051633c4117f160e21b8152600490fd5b604051639ce22bbb60e01b8152600490fd5b3461048e57604036600319011261048e576001600160401b0360043581811161048e57611edb90369060040161418a565b9060243590811161048e57611ef490369060040161418a565b336000908152600080516020614d87833981519152602052604090205460ff161561048e578151602083012091815160208301209183600052600c60205260ff60406000205416156121635782600052600c60205260ff604060002054166121515782841461213f576000848152600a6020526040808220805486845291832080546001600160a81b0319166001600160a01b0393909316928317600160a01b178155969094919391925b600286015481101561201257611fb88160028801613f2b565b905460028a0154929160031b1c6001600160a01b0316600160401b83101561133d57611ff4816110c08560028e60018099018282015501613f2b565b60005281890160205260406000208260ff1982541617905501611f9f565b509161210f612101927fc267c77d050d5cd4d1e219abaa745a20607b9e28a6432105a23071cb6ddad647948887600052600e6020528060406000205580600052600d602052604060002060018060a01b031990898282541617905582600052604060002090815416905580600052600c60205260406000209060ff1991600183825416179055826000526040600020828154169055600b60205260406000206001838254161790556000526001604060002091825416179055600052600a60205260026040600020600081550180546000825580612123575b5050604051938493606085526060850190613e43565b908382036020850152613e43565b4260408301520390a2602060405160018152f35b6121389160005260206000209081019061455f565b86806120eb565b6040516379a8694f60e01b8152600490fd5b604051637740537b60e11b8152600490fd5b604051630790a08960e11b8152600490fd5b3461048e57600036600319011261048e576020600354604051908152f35b61219c36613e68565b90916002549260ff8460181c16610888576121b8368284613fe0565b93845160208096012090816000526008865260018060a01b0391826040600020541661245a57600052600d865281604060002054166124485760ff81871c16158061240a575b806123fc575b6123ea5760281c60ff166123d857831680156123c65761222384614b69565b6123b457612232368385613fe0565b8051908601206000908152600886526040902080546001600160a01b0319168217905560075492600160401b8085101561133d5761227b866110c0600197888101600755613edf565b6010549081101561133d5780856122959201601055613f10565b6111ae576001600160401b03841161133d576122bb846122b583546140ab565b83614576565b6000601f851160011461233957600080516020614e6783398151915295966123239392612303878061230a9560009161232e575b508160011b916000199060031b1c19161790565b905561490e565b50604051938493845260408885015260408401916141cf565b0390a1604051908152f35b90508601358d6122ef565b601f1985169082600052886000209160005b8a8282106123a05750509261230a92600080516020614e6783398151915298999288612323979610612386575b50508887811b01905561490e565b85013560001960038a901b60f8161c191690558a80612378565b86840135855593890193928301920161234b565b60405163a97809f560e01b8152600490fd5b60405163066d598f60e41b8152600490fd5b60405163496abc0760e01b8152600490fd5b6040516302b0eba760e21b8152600490fd5b508160005416331415612204565b50600080516020614e87833981519152600052600080516020614de78339815191528652604060002033600052865260ff60406000205416156121fe565b604051630cba69cb60e01b8152600490fd5b6040516329be7c4760e11b8152600490fd5b3461048e57600036600319011261048e576001546001600160a01b039033828216036124ce57600080516020614dc78339815191529160018060a01b031980921660015560005491339083161760005561065e604051928392339116836142b5565b604051632fd8225d60e21b8152600490fd5b3461048e57600036600319011261048e5760c060025460ff604051918181168352818160081c166020840152818160101c166040840152818160181c1615156060840152818160201c161515608084015260281c16151560a0820152f35b3461048e57602036600319011261048e576004356001600160401b03811161048e5761256e903690600401613dc7565b6006546004805460408051630194b1eb60e51b8152928301526001600160a01b03949193600093859390871692849283926125ad9160448501916141cf565b90602483015203915afa801561049a576000916000916125e7575b50610aba90604051938493168352604060208401526040830190613f52565b610aba925061260191503d806000833e610ad38183613fa2565b90916125c8565b3461048e57602036600319011261048e5760043560105481101561048e5761262f90613f10565b6111ae5761263f610aba916140e5565b604051918291602083526020830190613e43565b3461048e57600036600319011261048e576020604051600080516020614e878339815191528152f35b3461048e57602036600319011261048e576004356001600160401b03811161048e576126af6126b6913690600401613dc7565b3691613fe0565b60208151910120600052600a602052602060018060a01b0360406000205416604051908152f35b3461048e57600036600319011261048e576000546001600160a01b0381169033820361067557600080516020614dc78339815191529160409160018060a01b031990816001541660015516600055815190815260006020820152a1005b3461048e57600036600319011261048e5760a060025460ff604051918181168352818160201c1615156020840152818160281c1615156040840152818160081c16606084015260101c166080820152f35b3461048e57602036600319011261048e577f4db063d27f53353d66d58a8480f9e8f62f12b6ec8273620b59447908557d2fbe60206127c7613f43565b6127cf614a09565b151560025460ff831b82841b169060ff841b191617600255604051908152a1005b3461048e57604061280036613e68565b60065460048054865163ccf365a360e01b8152969587956001600160a01b0390941694869485946128359492939086016141f0565b03915afa801561049a57602091600091612855575b506040519015158152f35b61286e915060403d60401161095a5761094c8183613fa2565b90508261284a565b3461048e5760208060031936011261048e576004356001600160401b03811161048e576128a7903690600401613dc7565b600080516020614c87833981519152600052600080516020614de7833981519152808452604060002033600052845260ff60406000205416908115612968575b508015612954575b1561048e57600080516020614d478339815191529261290f368385613fe0565b818151910120600052600b81526040600020600160ff1982541617905560006129456040519485946060865260608601916141cf565b918301523360408301520390a1005b506000546001600160a01b031633146128ef565b9050600080516020614e878339815191526000528352604060002033600052835260ff60406000205416846128e7565b3461048e57602036600319011261048e576129b1613e0a565b6001600160a01b031660009081527fa9ed30483ca8e7e18edb58c7d68a44612fe881c88cebad0b52b41698e9844de2602090815260409182902054915160ff9092161515825290f35b3461048e57602036600319011261048e57600435600052600b602052602060ff604060002054166040519015158152f35b3461048e57600036600319011261048e577f00000000000000000000000000000000000000000000000000000000000000006001600160a01b03163003612a84576020604051600080516020614d278339815191528152f35b60405163703e46dd60e11b8152600490fd5b612a9f36614017565b60ff600299929998979896959394965460181c1661088857336000908152600080516020614d87833981519152602090815260409091205490999060ff161561048e5760018060a01b0394612b178b8a8860055416604051808095819463139c8deb60e01b835286600484015260248301908c6141cf565b03915afa90811561049a57600091612c03575b5015612bf157612b3b368a86613fe0565b8b815191012080600052600a8c5260ff60406000205460a01c16611e985780600052600b8c5260ff60406000205416611e86578060005260088c528660406000205416612bdf57600052600d8b528560406000205416612bcd577f76b1aa126f2635806ee3f6346085e4459850049d97bffc5b33632a5f5c9023ee97610bf895604051988998339d169b42978a6144d3565b60405163f139695160e01b8152600490fd5b60405163bf68d22160e01b8152600490fd5b604051632c4b588360e21b8152600490fd5b90508b81813d8311612c31575b612c1a8183613fa2565b8101031261048e57612c2b906141a8565b8c612b2a565b503d612c10565b3461048e57602036600319011261048e576001600160a01b03612c59613e0a565b16600052600e6020526020604060002054604051908152f35b3461048e57602036600319011261048e57612c8b613e0a565b6001600160a01b0381166000818152600080516020614d878339815191526020526040902054909160ff90911690612cc290614439565b91600052600960205260ff60406000205416612cf260405193849315158452606060208501526060840190613e43565b9060408301520390f35b604036600319011261048e57612d10613e0a565b6024356001600160401b03811161048e573660238201121561048e57612d40903690602481600401359101613fe0565b906001600160a01b03907f00000000000000000000000000000000000000000000000000000000000000008216308114908115612ef5575b50612a8457336000908152600080516020614ea7833981519152602090815260409091205490929060ff168015612ee8575b1561048e578116916040516352d1902d60e01b81528181600481875afa60009181612eb9575b50612dee57604051634c9c8ce360e01b815260048101859052602490fd5b928493600080516020614d2783398151915290818103612ea15750833b15612e885780546001600160a01b03191682179055604051907fbc7cd75a20ee27fd9adebab32041f755214dbc6bffa90cc0225b39da2e5c2d3b600080a2835115612e6e5750600083819261001895519101845af4612e68614389565b91614be3565b9250505034612e7957005b63b398979f60e01b8152600490fd5b604051634c9c8ce360e01b815260048101839052602490fd5b60249060405190632a87526960e21b82526004820152fd5b9091508281813d8311612ee1575b612ed18183613fa2565b8101031261048e57519086612dd0565b503d612ec7565b5080600054163314612daa565b905082600080516020614d278339815191525416141584612d78565b3461048e57602036600319011261048e57612f2a613e0a565b612f32614a09565b6001600160a01b0381811691908215612f9f5761065e7f3577fd52b5e616a2013386241840458a284555f78e4638ef92a61c38bcfa812d93612f7c63ffffffff853b161515614332565b600680546001600160a01b031981169092179055604051938493339216846144b0565b604051633c96bfd560e11b8152600490fd5b3461048e57602036600319011261048e57610aba61263f612fd0613e0a565b614439565b3461048e57602036600319011261048e576001600160401b0360043581811161048e57600061300b613044923690600401613dc7565b6006546004805460408051632fba7e8d60e01b815292830152909586946001600160a01b039093169385938493929160448501916141cf565b90602483015203915afa90811561049a57600091613073575b60405160208082528190610aba90820185613f52565b90503d806000833e6130858183613fa2565b810160208282031261048e57815192831161048e57610aba926130a892016143d0565b8261305d565b3461048e576130bc36613eaa565b6000546001600160a01b03939190841633036106755760ff60025460181c166108885783821691821561328a578484169485156132785760055416936040518095631627905560e01b825285600483015281602460209889935afa90811561049a57600091613243575b50156131fe5760009182918260405161316281613154898c83019663a9059cbb60e01b885260248401614286565b03601f198101835282613fa2565b51925af161316e614389565b90159081156131c5575b506131b3577fbfed55bdcd242e3dd0f60ddd7d1e87c67f61c34cd9527b3e6455d841b1025362936060936040519384528301526040820152a1005b6040516360a91fa760e01b8152600490fd5b809150518481151591826131de575b5050905085613178565b838092935001031261048e57836131f591016141a8565b158084876131d4565b60405162461bcd60e51b815260048101869052601f60248201527f546f6b656e2061646472657373206973206e6f74206120636f6e7472616374006044820152606490fd5b90508581813d8311613271575b61325a8183613fa2565b8101031261048e5761326b906141a8565b87613126565b503d613250565b604051639f11854960e01b8152600490fd5b60405163196b899560e31b8152600490fd5b3461048e57602036600319011261048e576001600160a01b036132bd613e0a565b166000526009602052602060ff60406000205416604051908152f35b3461048e57606036600319011261048e576004356132f5613df4565b906044358015159182820361048e57336000908152600080516020614d07833981519152602052604090205460ff16156133a257600080516020614ca78339815191529115613392576133488482614994565b505b1461335157005b7fb24030807d025e6bc8a9544fbd84aa517b0924132497e7acf74da46fc23c5f8d916060916040519160018060a01b031682526020820152336040820152a1005b61339c8482614af8565b5061334a565b60405163e2517d3f60e01b815233600482015260006024820152604490fd5b3461048e57602036600319011261048e5760043560075481101561048e576133ea602091613edf565b905460405160039290921b1c6001600160a01b03168152f35b3461048e57604036600319011261048e5761341c613df4565b336001600160a01b038216036134385761001890600435614af8565b60405163334bd91960e11b8152600490fd5b3461048e57602036600319011261048e576004356000526008602052602060018060a01b0360406000205416604051908152f35b3461048e57602036600319011261048e57600435600052600c602052602060ff604060002054166040519015158152f35b3461048e57604036600319011261048e576100186004356134ce613df4565b9080600052600080516020614de78339815191526020526134f6600160406000200154614a41565b614994565b3461048e57602036600319011261048e57613514613e0a565b6001600160a01b03166000908152600080516020614cc7833981519152602090815260409182902054915160ff9092161515825290f35b3461048e57602036600319011261048e57600435600052600080516020614de78339815191526020526020600160406000200154604051908152f35b3461048e57600036600319011261048e576020604051600080516020614c878339815191528152f35b3461048e57602036600319011261048e576135c9613e0a565b6001600160a01b03166000908152600080516020614c67833981519152602090815260409182902054915160ff9092161515825290f35b3461048e57604036600319011261048e576004356001600160a01b038181169182900361048e57602435906000541633036106755760ff60025460181c16610888578115613278574781116136aa57600080808084865af1613660614389565b5015613698577f8455ae6be5d92f1df1c3c1484388e247a36c7e60d72055ae216dbc258f257d4b9160409182519182526020820152a1005b604051630a911c6960e21b8152600490fd5b604051630e59ae0960e21b8152600490fd5b3461048e576136ca36613eaa565b600080516020614ec783398151915280549093604082901c60ff1615936001600160401b039392848116801590816138b5575b60011490816138ab575b1590816138a2575b50613890576001600160401b03198116600117875585613875575b50613733614bb4565b61373b614bb4565b60018060a01b03199033826000541617600055600080516020614dc78339815191526040805160008152336020820152a1613775336146fa565b5061377f33614776565b5061378933614802565b5061379333614888565b506001600160a01b03838116919082156112d3576137ba63ffffffff80963b1615156142cf565b8116938415612f9f576137d0913b161515614332565b81600554161760055560065416176006556004556040519060c08201908282109082111761133d5760009160a091604052600a8152600460208201526010604082015282606082015282608082015201526210040a65ffffffffffff19600254161760025561383b57005b805460ff60401b19169055604051600181527fc7f505b2f371ae2175ee4913f4499e1f2633a7b5936321eed1cdaeb6115181d290602090a1005b6001600160481b0319166001600160401b011786558661372a565b60405163f92ee8a960e01b8152600490fd5b9050158861370f565b303b159150613707565b8791506136fd565b3461048e5760208060031936011261048e576004356001600160401b03811161048e576138ee903690600401613dc7565b600080516020614c87833981519152600052600080516020614de7833981519152808452604060002033600052845260ff6040600020541690811561399d575b508015613989575b1561048e57600080516020614d4783398151915292613956368385613fe0565b818151910120600052600b8152604060002060ff19815416905560016129456040519485946060865260608601916141cf565b506000546001600160a01b03163314613936565b9050600080516020614e878339815191526000528352604060002033600052835260ff604060002054168461392e565b3461048e5760206139ea6139e036613e68565b9291903691613fe0565b828151910120600052600a825260018060a01b038060406000205416906040519216148152f35b3461048e57604036600319011261048e57600435600052600f6020526040600020602435600052602052602060ff604060002054166040519015158152f35b3461048e57600036600319011261048e576006546040516001600160a01b039091168152602090f35b3461048e5760208060031936011261048e576004356001600160401b03811161048e57613aaa903690600401613dc7565b60065460048054604080516306a3206b60e31b81529283015290936001600160a01b039386938693908616928492839291613ae99160448501916141cf565b90602483015203915afa91821561049a57600092613b0c575b5060405191168152f35b9091508281813d8311613b3c575b613b248183613fa2565b8101031261048e57613b35906142a1565b9083613b02565b503d613b1a565b3461048e57602036600319011261048e5760043563ffffffff60e01b811680910361048e57602090637965db0b60e01b8114908115613b8757506040519015158152f35b6301ffc9a760e01b1490508261284a565b3461048e57602036600319011261048e57610f086000613bb6613e0a565b60018060a01b0360065416600454916040518095819482936335b0ce6160e11b845260048401614286565b608036600319011261048e576001600160401b0360043581811161048e57613c0d903690600401613dc7565b613c18929192613df4565b9260443583811161048e57613c31903690600401613dc7565b92909360643590811161048e57613c4c903690600401613dc7565b94909660ff60025460181c16613db85750613c68368385613fe0565b968751602080990120600052600a885260ff60406000205460a01c161561087657600080516020614e27833981519152600052600080516020614de78339815191528852604060002033600052885260ff604060002054161561048e5760018060a01b03958760408860065416600454908789613cfa85519687958694859463ccf365a360e01b8652600486016141f0565b03915afa90811561049a57600091613d97575b5015613d8557613d60613d6e937f7d13e87c50f31e84ef4b0372796933b2eabe8e6b9f7e5b427fed6e44ec9e6e1f97613d5360405198899860808a5260808a01916141cf565b918783038d8901526141cf565b9184830360408601526141cf565b93426060830152339516930390a360405160018152f35b60405163b14365a360e01b8152600490fd5b613db0915060403d60401161095a5761094c8183613fa2565b90508a613d0d565b6388d0662b60e01b8152600490fd5b9181601f8401121561048e578235916001600160401b03831161048e576020838186019501011161048e57565b602435906001600160a01b038216820361048e57565b600435906001600160a01b038216820361048e57565b60005b838110613e335750506000910152565b8181015183820152602001613e23565b90602091613e5c81518092818552858086019101613e20565b601f01601f1916010190565b604060031982011261048e57600435906001600160401b03821161048e57613e9291600401613dc7565b90916024356001600160a01b038116810361048e5790565b606090600319011261048e576001600160a01b0390600435828116810361048e5791602435908116810361048e579060443590565b600754811015613efa57600760005260206000200190600090565b634e487b7160e01b600052603260045260246000fd5b601054811015613efa57601060005260206000200190600090565b8054821015613efa5760005260206000200190600090565b60043590811515820361048e57565b90815180825260208080930193019160005b828110613f72575050505090565b83516001600160a01b031685529381019392810192600101613f64565b6001600160401b03811161133d57604052565b601f909101601f19168101906001600160401b0382119082101761133d57604052565b6001600160401b03811161133d57601f01601f191660200190565b929192613fec82613fc5565b91613ffa6040519384613fa2565b82948184528183011161048e578281602093846000960137010152565b9060a060031983011261048e576001600160401b0360043581811161048e578361404391600401613dc7565b909390926024356001600160a01b038116810361048e579260443581811161048e578361407291600401613dc7565b9390939260643583811161048e578261408d91600401613dc7565b9390939260843591821161048e576140a791600401613dc7565b9091565b90600182811c921680156140db575b60208310146140c557565b634e487b7160e01b600052602260045260246000fd5b91607f16916140ba565b906040519182600082546140f8816140ab565b908184526020946001916001811690816000146141685750600114614129575b50505061412792500383613fa2565b565b600090815285812095935091905b8183106141505750506141279350820101388080614118565b85548884018501529485019487945091830191614137565b9250505061412794925060ff191682840152151560051b820101388080614118565b9080601f8301121561048e578160206141a593359101613fe0565b90565b5190811515820361048e57565b919082604091031261048e576141a560206105d5846141a8565b908060209392818452848401376000828201840152601f01601f1916010190565b92949390614209906040936060865260608601916141cf565b60208401959095526001600160a01b0316910152565b81601f8201121561048e57805161423581613fc5565b926142436040519485613fa2565b8184526020828401011161048e576141a59160208085019101613e20565b9060208282031261048e5781516001600160401b03811161048e576141a5920161421f565b6001600160a01b039091168152602081019190915260400190565b51906001600160a01b038216820361048e57565b6001600160a01b0391821681529116602082015260400190565b156142d657565b60405162461bcd60e51b815260206004820152602e60248201527f52656769737472617253746f726167655574696c20616464726573732069732060448201526d1b9bdd08184818dbdb9d1c9858dd60921b6064820152608490fd5b1561433957565b60405162461bcd60e51b815260206004820152602260248201527f5265736f6c7665722061646472657373206973206e6f74206120636f6e74726160448201526118dd60f21b6064820152608490fd5b3d156143b4573d9061439a82613fc5565b916143a86040519384613fa2565b82523d6000602084013e565b606090565b6001600160401b03811161133d5760051b60200190565b9080601f8301121561048e578151906020916143eb816143b9565b936143f96040519586613fa2565b81855260208086019260051b82010192831161048e57602001905b828210614422575050505090565b83809161442e846142a1565b815201910190614414565b6007549060005b82811061446e5750506040519050602081016001600160401b0381118282101761133d576040526000815290565b61447781613edf565b905460039190911b1c6001600160a01b039081169083161461449b57600101614440565b6141a592506144aa9150613f10565b506140e5565b6001600160a01b0391821681529181166020830152909116604082015260600190565b9998979361451693614508916144fa614524999460809b99968f60a09081815201916141cf565b8d810360208f0152916141cf565b918a830360408c01526141cf565b9187830360608901526141cf565b930152565b91909160408184031261048e5761453f816142a1565b60208201519093906001600160401b03811161048e576141a592016143d0565b81811061456a575050565b6000815560010161455f565b9190601f811161458557505050565b614127926000526020600020906020601f840160051c830193106145b1575b601f0160051c019061455f565b90915081906145a4565b6040519060075480835282602091602082019060076000526020600020936000905b8282106145f35750505061412792500383613fa2565b85546001600160a01b0316845260019586019588955093810193909101906145dd565b908082146146f65761462881546140ab565b906001600160401b03821161133d5761464b8261464585546140ab565b85614576565b600090601f831160011461468b5761467c929160009183614680575b50508160011b916000199060031b1c19161790565b9055565b015490503880614667565b815260208082208483528183209291601f1985169083905b8282106146dd5750509084600195949392106146c4575b505050811b019055565b015460001960f88460031b161c191690553880806146ba565b84958192958501548155600180910196019401906146a3565b5050565b6001600160a01b03166000818152600080516020614d078339815191526020526040812054909190600080516020614de78339815191529060ff16614771578280526020526040822081835260205260408220600160ff198254161790553391600080516020614c478339815191528180a4600190565b505090565b6001600160a01b03166000818152600080516020614cc78339815191526020526040812054909190600080516020614e8783398151915290600080516020614de78339815191529060ff166147fc578184526020526040832082845260205260408320600160ff19825416179055600080516020614c47833981519152339380a4600190565b50505090565b6001600160a01b03166000818152600080516020614c678339815191526020526040812054909190600080516020614c8783398151915290600080516020614de78339815191529060ff166147fc578184526020526040832082845260205260408320600160ff19825416179055600080516020614c47833981519152339380a4600190565b6001600160a01b03166000818152600080516020614ea78339815191526020526040812054909190600080516020614ce783398151915290600080516020614de78339815191529060ff166147fc578184526020526040832082845260205260408320600160ff19825416179055600080516020614c47833981519152339380a4600190565b6001600160a01b03166000818152600080516020614d878339815191526020526040812054909190600080516020614e2783398151915290600080516020614de78339815191529060ff166147fc578184526020526040832082845260205260408320600160ff19825416179055600080516020614c47833981519152339380a4600190565b90600091808352600080516020614de783398151915280602052604084209260018060a01b03169283855260205260ff604085205416156000146147fc578184526020526040832082845260205260408320600160ff19825416179055600080516020614c47833981519152339380a4600190565b336000908152600080516020614cc78339815191526020526040902054600080516020614e878339815191529060ff1615610ea15750565b80600052600080516020614de783398151915260205260406000203360005260205260ff6040600020541615610ea15750565b6001600160a01b03166000818152600080516020614d878339815191526020526040812054909190600080516020614e2783398151915290600080516020614de78339815191529060ff16156147fc57818452602052604083208284526020526040832060ff198154169055600080516020614e07833981519152339380a4600190565b90600091808352600080516020614de783398151915280602052604084209260018060a01b03169283855260205260ff6040852054166000146147fc57818452602052604083208284526020526040832060ff198154169055600080516020614e07833981519152339380a4600190565b6007549060005b828110614b7f57505050600090565b614b8881613edf565b905460039190911b1c6001600160a01b0390811690831614614bac57600101614b70565b505050600190565b60ff600080516020614ec78339815191525460401c1615614bd157565b604051631afcd79f60e31b8152600490fd5b90614c0a5750805115614bf857805190602001fd5b60405163d6bda27560e01b8152600490fd5b81511580614c3d575b614c1b575090565b604051639996b31560e01b81526001600160a01b039091166004820152602490fd5b50803b15614c1356fe2f8788117e7eff1d82e926ec794901d17c78024a50270940304540a733656f0d762c7c328dd70a077c65c77b60e4c38eed3d2f6aa056d4d0fa114aeff8234b56bf233dd2aafeb4d50879c4aa5c81e96d92f6e6945c906a58f9f2d1c1631b4b26e2b7fb3b832174769106daebcfd6d1970523240dda11281102db9363b83b0dc4b16e88c42fd4e48df2dd6a2eabd6bc9aec654ec170056b470819f8892cc6431c189ab7a9244df0848122154315af71fe140f3db0fe014031783b0946b8c9d2e3b7db2dd08fcb62d0c9e08c51941cae53c267786a0b75803fb7960902fc8ef97d360894a13ba1a3210667c828492db98dca3e2076cc3735a920a3ca505d382bbc480a6a6163a3c4e6abcd3ab8b93a7cbd2e3fe85735479e9abe054c892ff0a43faca93f9978d67d34a6c43956b25c35ab25a0255242d5fde3517feaca3b9cc15507966f2ab141347034724e9b2a472c2f77f5cd745aeba27cacba797b8fcb70862eec44bcc4fff6bb3a356c25b48f25326ad40caccd43b5fb2461f0cb2270023e8be0079c531659141344cd1fd0a4f28419497f9722a3daafe3b4186f6b6457e002dd7bc7dec4dceedda775e58dd541e08a116c6c53815c0bd028192f7b626800f6391f5c32d9c69d2a47ea670b442974b53935d1edc7fd64eb21e047a839171bedcc084d3dcd65a1f7f23c65c46722faca6953d28e43150a467cf43e5c30923845732d8f013d0f5e06970a5cb1423b3d8e5b90a34ca7b3cb75bb95c130b0f2fec8a2a9ff09aa9d84d12842b33828e81e5b6e555d6b586d5daf01d90b0ab5798fa49807205ce4d355092ef5a8a18f56e8913cf4a201fbe287825b095693c21775ab71e3f32666744d246edff3f96e4bdafee2e9867098cdd118a979a7464786a8f0c57e16840df040f15088dc2f81fe391c3923bec73e23a9662efc9c229c6a00dc51d95c59017553c8e19b0d2a2711bb18b6e3bf2f7b3648895a998dcf2f6f16a2646970667358221220ca553538e658dce67185e135e03cca9efda4fa16fb28a069f6d2234d8dcd683c64736f6c63430008190033",
    "linkReferences": {},
    "deployedLinkReferences": {}
}