{
  "_format": "hh-sol-artifact-1",
  "contractName": "RegistrarStorageMother",
  "sourceName": "contracts/MotherContract.sol",
  "abi": [
    {
      "inputs": [],
      "stateMutability": "nonpayable",
      "type": "constructor"
    },
    {
      "inputs": [],
      "name": "AccessControlBadConfirmation",
      "type": "error"
    },
    {
      "inputs": [
        {
          "internalType": "address",
          "name": "account",
          "type": "address"
        },
        {
          "internalType": "bytes32",
          "name": "neededRole",
          "type": "bytes32"
        }
      ],
      "name": "AccessControlUnauthorizedAccount",
      "type": "error"
    },
    {
      "inputs": [
        {
          "internalType": "address",
          "name": "target",
          "type": "address"
        }
      ],
      "name": "AddressEmptyCode",
      "type": "error"
    },
    {
      "inputs": [],
      "name": "E1",
      "type": "error"
    },
    {
      "inputs": [],
      "name": "E10",
      "type": "error"
    },
    {
      "inputs": [],
      "name": "E11",
      "type": "error"
    },
    {
      "inputs": [],
      "name": "E12",
      "type": "error"
    },
    {
      "inputs": [],
      "name": "E13",
      "type": "error"
    },
    {
      "inputs": [],
      "name": "E14",
      "type": "error"
    },
    {
      "inputs": [],
      "name": "E15",
      "type": "error"
    },
    {
      "inputs": [],
      "name": "E16",
      "type": "error"
    },
    {
      "inputs": [],
      "name": "E17",
      "type": "error"
    },
    {
      "inputs": [],
      "name": "E18",
      "type": "error"
    },
    {
      "inputs": [],
      "name": "E19",
      "type": "error"
    },
    {
      "inputs": [],
      "name": "E2",
      "type": "error"
    },
    {
      "inputs": [],
      "name": "E20",
      "type": "error"
    },
    {
      "inputs": [],
      "name": "E21",
      "type": "error"
    },
    {
      "inputs": [],
      "name": "E22",
      "type": "error"
    },
    {
      "inputs": [],
      "name": "E23",
      "type": "error"
    },
    {
      "inputs": [],
      "name": "E24",
      "type": "error"
    },
    {
      "inputs": [],
      "name": "E25",
      "type": "error"
    },
    {
      "inputs": [],
      "name": "E26",
      "type": "error"
    },
    {
      "inputs": [],
      "name": "E27",
      "type": "error"
    },
    {
      "inputs": [],
      "name": "E28",
      "type": "error"
    },
    {
      "inputs": [],
      "name": "E29",
      "type": "error"
    },
    {
      "inputs": [],
      "name": "E3",
      "type": "error"
    },
    {
      "inputs": [],
      "name": "E30",
      "type": "error"
    },
    {
      "inputs": [],
      "name": "E31",
      "type": "error"
    },
    {
      "inputs": [],
      "name": "E32",
      "type": "error"
    },
    {
      "inputs": [],
      "name": "E33",
      "type": "error"
    },
    {
      "inputs": [],
      "name": "E4",
      "type": "error"
    },
    {
      "inputs": [],
      "name": "E5",
      "type": "error"
    },
    {
      "inputs": [],
      "name": "E6",
      "type": "error"
    },
    {
      "inputs": [],
      "name": "E7",
      "type": "error"
    },
    {
      "inputs": [],
      "name": "E8",
      "type": "error"
    },
    {
      "inputs": [],
      "name": "E9",
      "type": "error"
    },
    {
      "inputs": [
        {
          "internalType": "address",
          "name": "implementation",
          "type": "address"
        }
      ],
      "name": "ERC1967InvalidImplementation",
      "type": "error"
    },
    {
      "inputs": [],
      "name": "ERC1967NonPayable",
      "type": "error"
    },
    {
      "inputs": [],
      "name": "EnforcedPause",
      "type": "error"
    },
    {
      "inputs": [],
      "name": "ExpectedPause",
      "type": "error"
    },
    {
      "inputs": [],
      "name": "FailedCall",
      "type": "error"
    },
    {
      "inputs": [],
      "name": "InvalidInitialization",
      "type": "error"
    },
    {
      "inputs": [],
      "name": "NotInitializing",
      "type": "error"
    },
    {
      "inputs": [],
      "name": "ReentrancyGuardReentrantCall",
      "type": "error"
    },
    {
      "inputs": [
        {
          "internalType": "address",
          "name": "token",
          "type": "address"
        }
      ],
      "name": "SafeERC20FailedOperation",
      "type": "error"
    },
    {
      "inputs": [],
      "name": "UUPSUnauthorizedCallContext",
      "type": "error"
    },
    {
      "inputs": [
        {
          "internalType": "bytes32",
          "name": "slot",
          "type": "bytes32"
        }
      ],
      "name": "UUPSUnsupportedProxiableUUID",
      "type": "error"
    },
    {
      "anonymous": false,
      "inputs": [
        {
          "indexed": true,
          "internalType": "address",
          "name": "pausedBy",
          "type": "address"
        },
        {
          "indexed": false,
          "internalType": "uint256",
          "name": "timestamp",
          "type": "uint256"
        }
      ],
      "name": "ContractPaused",
      "type": "event"
    },
    {
      "anonymous": false,
      "inputs": [
        {
          "indexed": true,
          "internalType": "address",
          "name": "unpausedBy",
          "type": "address"
        },
        {
          "indexed": false,
          "internalType": "uint256",
          "name": "timestamp",
          "type": "uint256"
        }
      ],
      "name": "ContractUnpaused",
      "type": "event"
    },
    {
      "anonymous": false,
      "inputs": [
        {
          "indexed": true,
          "internalType": "address",
          "name": "token",
          "type": "address"
        },
        {
          "indexed": true,
          "internalType": "address",
          "name": "to",
          "type": "address"
        },
        {
          "indexed": false,
          "internalType": "uint256",
          "name": "amount",
          "type": "uint256"
        },
        {
          "indexed": true,
          "internalType": "address",
          "name": "withdrawnBy",
          "type": "address"
        },
        {
          "indexed": false,
          "internalType": "uint256",
          "name": "timestamp",
          "type": "uint256"
        }
      ],
      "name": "ERC20Withdrawn",
      "type": "event"
    },
    {
      "anonymous": false,
      "inputs": [
        {
          "indexed": true,
          "internalType": "uint256",
          "name": "chainId",
          "type": "uint256"
        },
        {
          "indexed": true,
          "internalType": "address",
          "name": "clearedBy",
          "type": "address"
        },
        {
          "indexed": false,
          "internalType": "string",
          "name": "unifiedId",
          "type": "string"
        },
        {
          "indexed": false,
          "internalType": "uint256",
          "name": "timestamp",
          "type": "uint256"
        }
      ],
      "name": "EmergencyChainDataCleared",
      "type": "event"
    },
    {
      "anonymous": false,
      "inputs": [
        {
          "indexed": false,
          "internalType": "bool",
          "name": "enabled",
          "type": "bool"
        },
        {
          "indexed": true,
          "internalType": "address",
          "name": "updatedBy",
          "type": "address"
        },
        {
          "indexed": false,
          "internalType": "uint256",
          "name": "timestamp",
          "type": "uint256"
        }
      ],
      "name": "EmergencyModeToggled",
      "type": "event"
    },
    {
      "anonymous": false,
      "inputs": [
        {
          "indexed": true,
          "internalType": "address",
          "name": "updatedBy",
          "type": "address"
        },
        {
          "indexed": false,
          "internalType": "bool",
          "name": "available",
          "type": "bool"
        },
        {
          "indexed": false,
          "internalType": "string",
          "name": "unifiedId",
          "type": "string"
        },
        {
          "indexed": false,
          "internalType": "uint256",
          "name": "timestamp",
          "type": "uint256"
        }
      ],
      "name": "EmergencyUnifiedIdMarked",
      "type": "event"
    },
    {
      "anonymous": false,
      "inputs": [
        {
          "indexed": true,
          "internalType": "address",
          "name": "to",
          "type": "address"
        },
        {
          "indexed": false,
          "internalType": "uint256",
          "name": "amount",
          "type": "uint256"
        },
        {
          "indexed": true,
          "internalType": "address",
          "name": "withdrawnBy",
          "type": "address"
        },
        {
          "indexed": false,
          "internalType": "uint256",
          "name": "timestamp",
          "type": "uint256"
        }
      ],
      "name": "EthWithdrawn",
      "type": "event"
    },
    {
      "anonymous": false,
      "inputs": [
        {
          "indexed": false,
          "internalType": "uint64",
          "name": "version",
          "type": "uint64"
        }
      ],
      "name": "Initialized",
      "type": "event"
    },
    {
      "anonymous": false,
      "inputs": [
        {
          "indexed": true,
          "internalType": "address",
          "name": "oldMasterAddress",
          "type": "address"
        },
        {
          "indexed": true,
          "internalType": "address",
          "name": "newMasterAddress",
          "type": "address"
        },
        {
          "indexed": false,
          "internalType": "string",
          "name": "unifiedId",
          "type": "string"
        },
        {
          "indexed": false,
          "internalType": "uint256",
          "name": "timestamp",
          "type": "uint256"
        }
      ],
      "name": "MasterAddressUpdated",
      "type": "event"
    },
    {
      "anonymous": false,
      "inputs": [
        {
          "indexed": false,
          "internalType": "uint256",
          "name": "oldMax",
          "type": "uint256"
        },
        {
          "indexed": false,
          "internalType": "uint256",
          "name": "newMax",
          "type": "uint256"
        },
        {
          "indexed": true,
          "internalType": "address",
          "name": "updatedBy",
          "type": "address"
        },
        {
          "indexed": false,
          "internalType": "uint256",
          "name": "timestamp",
          "type": "uint256"
        }
      ],
      "name": "MaxChainsPerUnifiedIdUpdated",
      "type": "event"
    },
    {
      "anonymous": false,
      "inputs": [
        {
          "indexed": false,
          "internalType": "uint256",
          "name": "oldMax",
          "type": "uint256"
        },
        {
          "indexed": false,
          "internalType": "uint256",
          "name": "newMax",
          "type": "uint256"
        },
        {
          "indexed": true,
          "internalType": "address",
          "name": "updatedBy",
          "type": "address"
        },
        {
          "indexed": false,
          "internalType": "uint256",
          "name": "timestamp",
          "type": "uint256"
        }
      ],
      "name": "MaxSecondaryAddressesPerChainUpdated",
      "type": "event"
    },
    {
      "anonymous": false,
      "inputs": [
        {
          "indexed": true,
          "internalType": "address",
          "name": "previousOwner",
          "type": "address"
        },
        {
          "indexed": true,
          "internalType": "address",
          "name": "newOwner",
          "type": "address"
        },
        {
          "indexed": false,
          "internalType": "uint256",
          "name": "timestamp",
          "type": "uint256"
        }
      ],
      "name": "OwnershipTransferStarted",
      "type": "event"
    },
    {
      "anonymous": false,
      "inputs": [
        {
          "indexed": true,
          "internalType": "address",
          "name": "previousOwner",
          "type": "address"
        },
        {
          "indexed": true,
          "internalType": "address",
          "name": "newOwner",
          "type": "address"
        },
        {
          "indexed": false,
          "internalType": "uint256",
          "name": "timestamp",
          "type": "uint256"
        }
      ],
      "name": "OwnershipTransferred",
      "type": "event"
    },
    {
      "anonymous": false,
      "inputs": [
        {
          "indexed": false,
          "internalType": "address",
          "name": "account",
          "type": "address"
        }
      ],
      "name": "Paused",
      "type": "event"
    },
    {
      "anonymous": false,
      "inputs": [
        {
          "indexed": true,
          "internalType": "uint256",
          "name": "chainId",
          "type": "uint256"
        },
        {
          "indexed": true,
          "internalType": "address",
          "name": "oldPrimary",
          "type": "address"
        },
        {
          "indexed": true,
          "internalType": "address",
          "name": "newPrimary",
          "type": "address"
        },
        {
          "indexed": false,
          "internalType": "string",
          "name": "unifiedId",
          "type": "string"
        },
        {
          "indexed": false,
          "internalType": "uint256",
          "name": "timestamp",
          "type": "uint256"
        }
      ],
      "name": "PrimaryAddressUpdated",
      "type": "event"
    },
    {
      "anonymous": false,
      "inputs": [
        {
          "indexed": true,
          "internalType": "address",
          "name": "relayer",
          "type": "address"
        },
        {
          "indexed": false,
          "internalType": "bool",
          "name": "authorized",
          "type": "bool"
        },
        {
          "indexed": true,
          "internalType": "address",
          "name": "updatedBy",
          "type": "address"
        },
        {
          "indexed": false,
          "internalType": "uint256",
          "name": "timestamp",
          "type": "uint256"
        }
      ],
      "name": "RelayerAuthorizationUpdated",
      "type": "event"
    },
    {
      "anonymous": false,
      "inputs": [
        {
          "indexed": true,
          "internalType": "address",
          "name": "oldResolver",
          "type": "address"
        },
        {
          "indexed": true,
          "internalType": "address",
          "name": "newResolver",
          "type": "address"
        },
        {
          "indexed": true,
          "internalType": "address",
          "name": "updatedBy",
          "type": "address"
        },
        {
          "indexed": false,
          "internalType": "uint256",
          "name": "timestamp",
          "type": "uint256"
        }
      ],
      "name": "ResolverUpdated",
      "type": "event"
    },
    {
      "anonymous": false,
      "inputs": [
        {
          "indexed": true,
          "internalType": "bytes32",
          "name": "role",
          "type": "bytes32"
        },
        {
          "indexed": true,
          "internalType": "bytes32",
          "name": "previousAdminRole",
          "type": "bytes32"
        },
        {
          "indexed": true,
          "internalType": "bytes32",
          "name": "newAdminRole",
          "type": "bytes32"
        }
      ],
      "name": "RoleAdminChanged",
      "type": "event"
    },
    {
      "anonymous": false,
      "inputs": [
        {
          "indexed": true,
          "internalType": "bytes32",
          "name": "role",
          "type": "bytes32"
        },
        {
          "indexed": true,
          "internalType": "address",
          "name": "account",
          "type": "address"
        },
        {
          "indexed": true,
          "internalType": "address",
          "name": "sender",
          "type": "address"
        }
      ],
      "name": "RoleGranted",
      "type": "event"
    },
    {
      "anonymous": false,
      "inputs": [
        {
          "indexed": true,
          "internalType": "bytes32",
          "name": "role",
          "type": "bytes32"
        },
        {
          "indexed": true,
          "internalType": "address",
          "name": "account",
          "type": "address"
        },
        {
          "indexed": true,
          "internalType": "address",
          "name": "sender",
          "type": "address"
        }
      ],
      "name": "RoleRevoked",
      "type": "event"
    },
    {
      "anonymous": false,
      "inputs": [
        {
          "indexed": true,
          "internalType": "uint256",
          "name": "chainId",
          "type": "uint256"
        },
        {
          "indexed": true,
          "internalType": "address",
          "name": "secondaryAddress",
          "type": "address"
        },
        {
          "indexed": false,
          "internalType": "string",
          "name": "unifiedId",
          "type": "string"
        },
        {
          "indexed": false,
          "internalType": "uint256",
          "name": "timestamp",
          "type": "uint256"
        }
      ],
      "name": "SecondaryAddressAdded",
      "type": "event"
    },
    {
      "anonymous": false,
      "inputs": [
        {
          "indexed": true,
          "internalType": "uint256",
          "name": "chainId",
          "type": "uint256"
        },
        {
          "indexed": true,
          "internalType": "address",
          "name": "secondaryAddress",
          "type": "address"
        },
        {
          "indexed": false,
          "internalType": "string",
          "name": "unifiedId",
          "type": "string"
        },
        {
          "indexed": false,
          "internalType": "uint256",
          "name": "timestamp",
          "type": "uint256"
        }
      ],
      "name": "SecondaryAddressRemoved",
      "type": "event"
    },
    {
      "anonymous": false,
      "inputs": [
        {
          "indexed": true,
          "internalType": "address",
          "name": "masterAddress",
          "type": "address"
        },
        {
          "indexed": true,
          "internalType": "address",
          "name": "primary",
          "type": "address"
        },
        {
          "indexed": true,
          "internalType": "uint256",
          "name": "chainId",
          "type": "uint256"
        },
        {
          "indexed": false,
          "internalType": "string",
          "name": "unifiedId",
          "type": "string"
        },
        {
          "indexed": false,
          "internalType": "uint256",
          "name": "timestamp",
          "type": "uint256"
        }
      ],
      "name": "UnifiedIdRegistered",
      "type": "event"
    },
    {
      "anonymous": false,
      "inputs": [
        {
          "indexed": true,
          "internalType": "address",
          "name": "masterAddress",
          "type": "address"
        },
        {
          "indexed": false,
          "internalType": "string",
          "name": "oldUnifiedId",
          "type": "string"
        },
        {
          "indexed": false,
          "internalType": "string",
          "name": "newUnifiedId",
          "type": "string"
        },
        {
          "indexed": false,
          "internalType": "uint256",
          "name": "timestamp",
          "type": "uint256"
        }
      ],
      "name": "UnifiedIdUpdated",
      "type": "event"
    },
    {
      "anonymous": false,
      "inputs": [
        {
          "indexed": false,
          "internalType": "address",
          "name": "account",
          "type": "address"
        }
      ],
      "name": "Unpaused",
      "type": "event"
    },
    {
      "anonymous": false,
      "inputs": [
        {
          "indexed": true,
          "internalType": "address",
          "name": "newImplementation",
          "type": "address"
        },
        {
          "indexed": true,
          "internalType": "address",
          "name": "authorizedBy",
          "type": "address"
        },
        {
          "indexed": false,
          "internalType": "uint256",
          "name": "timestamp",
          "type": "uint256"
        }
      ],
      "name": "UpgradeAuthorized",
      "type": "event"
    },
    {
      "anonymous": false,
      "inputs": [
        {
          "indexed": true,
          "internalType": "address",
          "name": "implementation",
          "type": "address"
        }
      ],
      "name": "Upgraded",
      "type": "event"
    },
    {
      "stateMutability": "payable",
      "type": "fallback"
    },
    {
      "inputs": [],
      "name": "ADMIN_ROLE",
      "outputs": [
        {
          "internalType": "bytes32",
          "name": "",
          "type": "bytes32"
        }
      ],
      "stateMutability": "view",
      "type": "function"
    },
    {
      "inputs": [],
      "name": "DEFAULT_ADMIN_ROLE",
      "outputs": [
        {
          "internalType": "bytes32",
          "name": "",
          "type": "bytes32"
        }
      ],
      "stateMutability": "view",
      "type": "function"
    },
    {
      "inputs": [],
      "name": "EMERGENCY_ROLE",
      "outputs": [
        {
          "internalType": "bytes32",
          "name": "",
          "type": "bytes32"
        }
      ],
      "stateMutability": "view",
      "type": "function"
    },
    {
      "inputs": [],
      "name": "RELAYER_ROLE",
      "outputs": [
        {
          "internalType": "bytes32",
          "name": "",
          "type": "bytes32"
        }
      ],
      "stateMutability": "view",
      "type": "function"
    },
    {
      "inputs": [],
      "name": "UPGRADER_ROLE",
      "outputs": [
        {
          "internalType": "bytes32",
          "name": "",
          "type": "bytes32"
        }
      ],
      "stateMutability": "view",
      "type": "function"
    },
    {
      "inputs": [],
      "name": "UPGRADE_INTERFACE_VERSION",
      "outputs": [
        {
          "internalType": "string",
          "name": "",
          "type": "string"
        }
      ],
      "stateMutability": "view",
      "type": "function"
    },
    {
      "inputs": [],
      "name": "acceptOwnership",
      "outputs": [],
      "stateMutability": "nonpayable",
      "type": "function"
    },
    {
      "inputs": [
        {
          "internalType": "string",
          "name": "unifiedId",
          "type": "string"
        },
        {
          "internalType": "uint256",
          "name": "chainId",
          "type": "uint256"
        },
        {
          "internalType": "address",
          "name": "secondary",
          "type": "address"
        },
        {
          "internalType": "bytes",
          "name": "primarySignature",
          "type": "bytes"
        },
        {
          "internalType": "bytes",
          "name": "secondarySignature",
          "type": "bytes"
        }
      ],
      "name": "addSecondaryAddress",
      "outputs": [],
      "stateMutability": "nonpayable",
      "type": "function"
    },
    {
      "inputs": [],
      "name": "config",
      "outputs": [
        {
          "internalType": "uint128",
          "name": "maxSecondaryAddressesPerChain",
          "type": "uint128"
        },
        {
          "internalType": "uint128",
          "name": "maxChainsPerUnifiedId",
          "type": "uint128"
        },
        {
          "internalType": "bool",
          "name": "emergencyMode",
          "type": "bool"
        }
      ],
      "stateMutability": "view",
      "type": "function"
    },
    {
      "inputs": [
        {
          "internalType": "string",
          "name": "_unifiedId",
          "type": "string"
        },
        {
          "internalType": "uint256",
          "name": "_chainId",
          "type": "uint256"
        }
      ],
      "name": "emergencyCleanupChainData",
      "outputs": [],
      "stateMutability": "nonpayable",
      "type": "function"
    },
    {
      "inputs": [
        {
          "internalType": "string",
          "name": "_unifiedId",
          "type": "string"
        }
      ],
      "name": "emergencyMarkAvailable",
      "outputs": [],
      "stateMutability": "nonpayable",
      "type": "function"
    },
    {
      "inputs": [
        {
          "internalType": "string",
          "name": "_unifiedId",
          "type": "string"
        }
      ],
      "name": "emergencyMarkUnavailable",
      "outputs": [],
      "stateMutability": "nonpayable",
      "type": "function"
    },
    {
      "inputs": [
        {
          "internalType": "string",
          "name": "unifiedId",
          "type": "string"
        },
        {
          "internalType": "uint256",
          "name": "chainId",
          "type": "uint256"
        }
      ],
      "name": "getAddressCount",
      "outputs": [
        {
          "internalType": "uint256",
          "name": "count",
          "type": "uint256"
        }
      ],
      "stateMutability": "view",
      "type": "function"
    },
    {
      "inputs": [
        {
          "internalType": "string",
          "name": "unifiedId",
          "type": "string"
        },
        {
          "internalType": "uint256",
          "name": "chainId",
          "type": "uint256"
        }
      ],
      "name": "getAllAddresses",
      "outputs": [
        {
          "internalType": "address[]",
          "name": "allAddresses",
          "type": "address[]"
        }
      ],
      "stateMutability": "view",
      "type": "function"
    },
    {
      "inputs": [
        {
          "internalType": "string",
          "name": "unifiedId",
          "type": "string"
        }
      ],
      "name": "getAllAddressesAcrossChains",
      "outputs": [
        {
          "internalType": "uint256[]",
          "name": "chainIds",
          "type": "uint256[]"
        },
        {
          "internalType": "address[][]",
          "name": "allAddressesPerChain",
          "type": "address[][]"
        }
      ],
      "stateMutability": "view",
      "type": "function"
    },
    {
      "inputs": [
        {
          "internalType": "string",
          "name": "unifiedId",
          "type": "string"
        },
        {
          "internalType": "uint256",
          "name": "chainId",
          "type": "uint256"
        }
      ],
      "name": "getChainData",
      "outputs": [
        {
          "internalType": "address",
          "name": "primary",
          "type": "address"
        },
        {
          "internalType": "address[]",
          "name": "secondaries",
          "type": "address[]"
        }
      ],
      "stateMutability": "view",
      "type": "function"
    },
    {
      "inputs": [],
      "name": "getConfiguration",
      "outputs": [
        {
          "internalType": "uint256",
          "name": "_maxSecondaryAddressesPerChain",
          "type": "uint256"
        },
        {
          "internalType": "uint256",
          "name": "_maxChainsPerUnifiedId",
          "type": "uint256"
        },
        {
          "internalType": "bool",
          "name": "_emergencyMode",
          "type": "bool"
        }
      ],
      "stateMutability": "view",
      "type": "function"
    },
    {
      "inputs": [
        {
          "internalType": "string",
          "name": "unifiedId",
          "type": "string"
        }
      ],
      "name": "getMasterAddress",
      "outputs": [
        {
          "internalType": "address",
          "name": "",
          "type": "address"
        }
      ],
      "stateMutability": "view",
      "type": "function"
    },
    {
      "inputs": [
        {
          "internalType": "string",
          "name": "unifiedId",
          "type": "string"
        }
      ],
      "name": "getNonce",
      "outputs": [
        {
          "internalType": "uint256",
          "name": "",
          "type": "uint256"
        }
      ],
      "stateMutability": "view",
      "type": "function"
    },
    {
      "inputs": [
        {
          "internalType": "string",
          "name": "unifiedId",
          "type": "string"
        }
      ],
      "name": "getRegisteredChainIds",
      "outputs": [
        {
          "internalType": "uint256[]",
          "name": "",
          "type": "uint256[]"
        }
      ],
      "stateMutability": "view",
      "type": "function"
    },
    {
      "inputs": [
        {
          "internalType": "bytes32",
          "name": "role",
          "type": "bytes32"
        }
      ],
      "name": "getRoleAdmin",
      "outputs": [
        {
          "internalType": "bytes32",
          "name": "",
          "type": "bytes32"
        }
      ],
      "stateMutability": "view",
      "type": "function"
    },
    {
      "inputs": [
        {
          "internalType": "address",
          "name": "admin",
          "type": "address"
        }
      ],
      "name": "grantAdminRole",
      "outputs": [],
      "stateMutability": "nonpayable",
      "type": "function"
    },
    {
      "inputs": [
        {
          "internalType": "address",
          "name": "emergency",
          "type": "address"
        }
      ],
      "name": "grantEmergencyRole",
      "outputs": [],
      "stateMutability": "nonpayable",
      "type": "function"
    },
    {
      "inputs": [
        {
          "internalType": "address",
          "name": "relayer",
          "type": "address"
        }
      ],
      "name": "grantRelayerRole",
      "outputs": [],
      "stateMutability": "nonpayable",
      "type": "function"
    },
    {
      "inputs": [
        {
          "internalType": "bytes32",
          "name": "role",
          "type": "bytes32"
        },
        {
          "internalType": "address",
          "name": "account",
          "type": "address"
        }
      ],
      "name": "grantRole",
      "outputs": [],
      "stateMutability": "nonpayable",
      "type": "function"
    },
    {
      "inputs": [
        {
          "internalType": "address",
          "name": "upgrader",
          "type": "address"
        }
      ],
      "name": "grantUpgraderRole",
      "outputs": [],
      "stateMutability": "nonpayable",
      "type": "function"
    },
    {
      "inputs": [
        {
          "internalType": "string",
          "name": "unifiedId",
          "type": "string"
        },
        {
          "internalType": "uint256",
          "name": "chainId",
          "type": "uint256"
        }
      ],
      "name": "hasMultipleAddresses",
      "outputs": [
        {
          "internalType": "bool",
          "name": "hasMultiple",
          "type": "bool"
        }
      ],
      "stateMutability": "view",
      "type": "function"
    },
    {
      "inputs": [
        {
          "internalType": "bytes32",
          "name": "role",
          "type": "bytes32"
        },
        {
          "internalType": "address",
          "name": "account",
          "type": "address"
        }
      ],
      "name": "hasRole",
      "outputs": [
        {
          "internalType": "bool",
          "name": "",
          "type": "bool"
        }
      ],
      "stateMutability": "view",
      "type": "function"
    },
    {
      "inputs": [
        {
          "internalType": "address",
          "name": "_util",
          "type": "address"
        },
        {
          "internalType": "address",
          "name": "_resolver",
          "type": "address"
        }
      ],
      "name": "initialize",
      "outputs": [],
      "stateMutability": "nonpayable",
      "type": "function"
    },
    {
      "inputs": [
        {
          "internalType": "address",
          "name": "account",
          "type": "address"
        }
      ],
      "name": "isAdmin",
      "outputs": [
        {
          "internalType": "bool",
          "name": "",
          "type": "bool"
        }
      ],
      "stateMutability": "view",
      "type": "function"
    },
    {
      "inputs": [
        {
          "internalType": "string",
          "name": "unifiedId",
          "type": "string"
        },
        {
          "internalType": "uint256",
          "name": "chainId",
          "type": "uint256"
        }
      ],
      "name": "isChainRegistered",
      "outputs": [
        {
          "internalType": "bool",
          "name": "",
          "type": "bool"
        }
      ],
      "stateMutability": "view",
      "type": "function"
    },
    {
      "inputs": [
        {
          "internalType": "address",
          "name": "account",
          "type": "address"
        }
      ],
      "name": "isEmergencyResponder",
      "outputs": [
        {
          "internalType": "bool",
          "name": "",
          "type": "bool"
        }
      ],
      "stateMutability": "view",
      "type": "function"
    },
    {
      "inputs": [
        {
          "internalType": "address",
          "name": "account",
          "type": "address"
        }
      ],
      "name": "isRelayer",
      "outputs": [
        {
          "internalType": "bool",
          "name": "",
          "type": "bool"
        }
      ],
      "stateMutability": "view",
      "type": "function"
    },
    {
      "inputs": [
        {
          "internalType": "string",
          "name": "",
          "type": "string"
        }
      ],
      "name": "isUnavailableUnifiedId",
      "outputs": [
        {
          "internalType": "bool",
          "name": "",
          "type": "bool"
        }
      ],
      "stateMutability": "view",
      "type": "function"
    },
    {
      "inputs": [
        {
          "internalType": "address",
          "name": "account",
          "type": "address"
        }
      ],
      "name": "isUpgrader",
      "outputs": [
        {
          "internalType": "bool",
          "name": "",
          "type": "bool"
        }
      ],
      "stateMutability": "view",
      "type": "function"
    },
    {
      "inputs": [
        {
          "internalType": "string",
          "name": "",
          "type": "string"
        }
      ],
      "name": "nonces",
      "outputs": [
        {
          "internalType": "uint256",
          "name": "",
          "type": "uint256"
        }
      ],
      "stateMutability": "view",
      "type": "function"
    },
    {
      "inputs": [],
      "name": "owner",
      "outputs": [
        {
          "internalType": "address",
          "name": "",
          "type": "address"
        }
      ],
      "stateMutability": "view",
      "type": "function"
    },
    {
      "inputs": [],
      "name": "pause",
      "outputs": [],
      "stateMutability": "nonpayable",
      "type": "function"
    },
    {
      "inputs": [],
      "name": "paused",
      "outputs": [
        {
          "internalType": "bool",
          "name": "",
          "type": "bool"
        }
      ],
      "stateMutability": "view",
      "type": "function"
    },
    {
      "inputs": [],
      "name": "pendingOwner",
      "outputs": [
        {
          "internalType": "address",
          "name": "",
          "type": "address"
        }
      ],
      "stateMutability": "view",
      "type": "function"
    },
    {
      "inputs": [],
      "name": "proxiableUUID",
      "outputs": [
        {
          "internalType": "bytes32",
          "name": "",
          "type": "bytes32"
        }
      ],
      "stateMutability": "view",
      "type": "function"
    },
    {
      "inputs": [
        {
          "internalType": "string",
          "name": "unifiedId",
          "type": "string"
        },
        {
          "internalType": "uint256",
          "name": "chainId",
          "type": "uint256"
        },
        {
          "internalType": "address",
          "name": "primary",
          "type": "address"
        },
        {
          "internalType": "bytes",
          "name": "masterSignature",
          "type": "bytes"
        },
        {
          "internalType": "bytes",
          "name": "primarySignature",
          "type": "bytes"
        }
      ],
      "name": "registerUnifiedId",
      "outputs": [],
      "stateMutability": "nonpayable",
      "type": "function"
    },
    {
      "inputs": [
        {
          "internalType": "string",
          "name": "unifiedId",
          "type": "string"
        },
        {
          "internalType": "uint256",
          "name": "chainId",
          "type": "uint256"
        },
        {
          "internalType": "address",
          "name": "secondary",
          "type": "address"
        },
        {
          "internalType": "bytes",
          "name": "signature",
          "type": "bytes"
        }
      ],
      "name": "removeSecondaryAddress",
      "outputs": [],
      "stateMutability": "nonpayable",
      "type": "function"
    },
    {
      "inputs": [],
      "name": "renounceOwnership",
      "outputs": [],
      "stateMutability": "nonpayable",
      "type": "function"
    },
    {
      "inputs": [
        {
          "internalType": "bytes32",
          "name": "role",
          "type": "bytes32"
        },
        {
          "internalType": "address",
          "name": "callerConfirmation",
          "type": "address"
        }
      ],
      "name": "renounceRole",
      "outputs": [],
      "stateMutability": "nonpayable",
      "type": "function"
    },
    {
      "inputs": [
        {
          "internalType": "address",
          "name": "addr",
          "type": "address"
        },
        {
          "internalType": "uint256",
          "name": "chainId",
          "type": "uint256"
        }
      ],
      "name": "resolveAddressToUnifiedId",
      "outputs": [
        {
          "internalType": "string",
          "name": "",
          "type": "string"
        }
      ],
      "stateMutability": "view",
      "type": "function"
    },
    {
      "inputs": [
        {
          "internalType": "string",
          "name": "unifiedId",
          "type": "string"
        },
        {
          "internalType": "uint256",
          "name": "chainId",
          "type": "uint256"
        }
      ],
      "name": "resolveAllAddresses",
      "outputs": [
        {
          "internalType": "address",
          "name": "primary",
          "type": "address"
        },
        {
          "internalType": "address[]",
          "name": "secondaries",
          "type": "address[]"
        }
      ],
      "stateMutability": "view",
      "type": "function"
    },
    {
      "inputs": [
        {
          "internalType": "string",
          "name": "unifiedId",
          "type": "string"
        },
        {
          "internalType": "uint256",
          "name": "chainId",
          "type": "uint256"
        }
      ],
      "name": "resolvePrimaryAddress",
      "outputs": [
        {
          "internalType": "address",
          "name": "",
          "type": "address"
        }
      ],
      "stateMutability": "view",
      "type": "function"
    },
    {
      "inputs": [],
      "name": "resolver",
      "outputs": [
        {
          "internalType": "contract IUnifiedIdResolver",
          "name": "",
          "type": "address"
        }
      ],
      "stateMutability": "view",
      "type": "function"
    },
    {
      "inputs": [
        {
          "internalType": "address",
          "name": "admin",
          "type": "address"
        }
      ],
      "name": "revokeAdminRole",
      "outputs": [],
      "stateMutability": "nonpayable",
      "type": "function"
    },
    {
      "inputs": [
        {
          "internalType": "address",
          "name": "emergency",
          "type": "address"
        }
      ],
      "name": "revokeEmergencyRole",
      "outputs": [],
      "stateMutability": "nonpayable",
      "type": "function"
    },
    {
      "inputs": [
        {
          "internalType": "address",
          "name": "relayer",
          "type": "address"
        }
      ],
      "name": "revokeRelayerRole",
      "outputs": [],
      "stateMutability": "nonpayable",
      "type": "function"
    },
    {
      "inputs": [
        {
          "internalType": "bytes32",
          "name": "role",
          "type": "bytes32"
        },
        {
          "internalType": "address",
          "name": "account",
          "type": "address"
        }
      ],
      "name": "revokeRole",
      "outputs": [],
      "stateMutability": "nonpayable",
      "type": "function"
    },
    {
      "inputs": [
        {
          "internalType": "address",
          "name": "upgrader",
          "type": "address"
        }
      ],
      "name": "revokeUpgraderRole",
      "outputs": [],
      "stateMutability": "nonpayable",
      "type": "function"
    },
    {
      "inputs": [
        {
          "internalType": "bool",
          "name": "_enabled",
          "type": "bool"
        }
      ],
      "name": "setEmergencyMode",
      "outputs": [],
      "stateMutability": "nonpayable",
      "type": "function"
    },
    {
      "inputs": [
        {
          "internalType": "uint256",
          "name": "_maxChains",
          "type": "uint256"
        }
      ],
      "name": "setMaxChainsPerUnifiedId",
      "outputs": [],
      "stateMutability": "nonpayable",
      "type": "function"
    },
    {
      "inputs": [
        {
          "internalType": "uint256",
          "name": "_maxSecondaryAddresses",
          "type": "uint256"
        }
      ],
      "name": "setMaxSecondaryAddressesPerChain",
      "outputs": [],
      "stateMutability": "nonpayable",
      "type": "function"
    },
    {
      "inputs": [
        {
          "internalType": "address",
          "name": "_resolver",
          "type": "address"
        }
      ],
      "name": "setResolver",
      "outputs": [],
      "stateMutability": "nonpayable",
      "type": "function"
    },
    {
      "inputs": [
        {
          "internalType": "bytes4",
          "name": "interfaceId",
          "type": "bytes4"
        }
      ],
      "name": "supportsInterface",
      "outputs": [
        {
          "internalType": "bool",
          "name": "",
          "type": "bool"
        }
      ],
      "stateMutability": "view",
      "type": "function"
    },
    {
      "inputs": [
        {
          "internalType": "address",
          "name": "newOwner",
          "type": "address"
        }
      ],
      "name": "transferOwnership",
      "outputs": [],
      "stateMutability": "nonpayable",
      "type": "function"
    },
    {
      "inputs": [],
      "name": "unpause",
      "outputs": [],
      "stateMutability": "nonpayable",
      "type": "function"
    },
    {
      "inputs": [
        {
          "internalType": "string",
          "name": "unifiedId",
          "type": "string"
        },
        {
          "internalType": "address",
          "name": "newMasterAddress",
          "type": "address"
        },
        {
          "internalType": "bytes",
          "name": "signature",
          "type": "bytes"
        }
      ],
      "name": "updateMasterAddress",
      "outputs": [],
      "stateMutability": "nonpayable",
      "type": "function"
    },
    {
      "inputs": [
        {
          "internalType": "string",
          "name": "unifiedId",
          "type": "string"
        },
        {
          "internalType": "uint256",
          "name": "chainId",
          "type": "uint256"
        },
        {
          "internalType": "address",
          "name": "newPrimary",
          "type": "address"
        },
        {
          "internalType": "bytes",
          "name": "currentSignature",
          "type": "bytes"
        },
        {
          "internalType": "bytes",
          "name": "newSignature",
          "type": "bytes"
        }
      ],
      "name": "updatePrimaryAddress",
      "outputs": [],
      "stateMutability": "nonpayable",
      "type": "function"
    },
    {
      "inputs": [
        {
          "internalType": "string",
          "name": "oldUnifiedId",
          "type": "string"
        },
        {
          "internalType": "string",
          "name": "newUnifiedId",
          "type": "string"
        },
        {
          "internalType": "bytes",
          "name": "signature",
          "type": "bytes"
        }
      ],
      "name": "updateUnifiedId",
      "outputs": [],
      "stateMutability": "nonpayable",
      "type": "function"
    },
    {
      "inputs": [
        {
          "internalType": "address",
          "name": "newImplementation",
          "type": "address"
        },
        {
          "internalType": "bytes",
          "name": "data",
          "type": "bytes"
        }
      ],
      "name": "upgradeToAndCall",
      "outputs": [],
      "stateMutability": "payable",
      "type": "function"
    },
    {
      "inputs": [],
      "name": "util",
      "outputs": [
        {
          "internalType": "contract RegistrarStorageUtil",
          "name": "",
          "type": "address"
        }
      ],
      "stateMutability": "view",
      "type": "function"
    },
    {
      "inputs": [
        {
          "internalType": "address",
          "name": "token",
          "type": "address"
        },
        {
          "internalType": "address",
          "name": "to",
          "type": "address"
        },
        {
          "internalType": "uint256",
          "name": "amount",
          "type": "uint256"
        }
      ],
      "name": "withdrawERC20",
      "outputs": [],
      "stateMutability": "nonpayable",
      "type": "function"
    },
    {
      "inputs": [
        {
          "internalType": "address payable",
          "name": "to",
          "type": "address"
        },
        {
          "internalType": "uint256",
          "name": "amount",
          "type": "uint256"
        }
      ],
      "name": "withdrawEth",
      "outputs": [],
      "stateMutability": "nonpayable",
      "type": "function"
    },
    {
      "stateMutability": "payable",
      "type": "receive"
    }
  ],
  "bytecode": "0x60a0806040523460c857306080527ff0c57e16840df040f15088dc2f81fe391c3923bec73e23a9662efc9c229c6a009081549060ff8260401c1660b957506001600160401b036002600160401b0319828216016075575b604051614d3b90816100ce823960805181818161204e015261231a0152f35b6001600160401b031990911681179091556040519081527fc7f505b2f371ae2175ee4913f4499e1f2633a7b5936321eed1cdaeb6115181d290602090a13880806056565b63f92ee8a960e01b8152600490fd5b600080fdfe60806040526004361015610018575b361561001657005b005b6000803560e01c8063010c931b1461386f57806301ffc9a71461381857806304f3bcec146137ef578063101a2d2d146137c2578063142b7b3714613769578063175c6323146136e65780631b9a91a4146135ab5780631e0af67e146135515780631f5c9057146134ec57806320df4359146134c357806323eacf231461304a578063248a9ca31461301057806324d7806c14612fab5780632923cf9614612f815780632f2ff15d14612f365780632fba7e8d14612ea3578063336e7f2714612e4757806336568abe14612dff57806339ba1dae14612d955780633f4ba83a14612cf157806344004cc114612988578063485cc955146126595780634e543b26146125695780634f1ef286146122c9578063500a6886146120a657806352d1902d1461203b578063541d554814611fd657806355b7c6fe14611f84578063595a1d3f14611f5a57806359de1bca14611eec5780635bebf9d214611b285780635c975abb14611af8578063630a743514611a635780636bd50cef14611958578063715018a614611a0b57806371c23dd2146119e75780637314eb0c146119bd57806375b238fc1461199457806379502c551461195857806379ba5097146118e75780638456cb5914611853578063850e739f14611428578063857d02de146113665780638da5cb5b1461133d5780638e87abec1461129b5780638f7a52881461124c57806391d14854146111f3578063926d7d7f146111ca578063938a468814610d8d5780639561387514610d665780639a19c7b014610d3c578063a217fddf14610d20578063a70bc82814610b35578063acef2efc14610b0b578063ad3cb1cc14610a9d578063b24fce8814610a62578063be32b3f8146109f3578063c421e56514610964578063c634b78e1461093a578063cb6629d3146108d5578063cf8ff81f14610820578063d547741f146107d1578063d8ef8b62146106cc578063e30c3978146106a3578063ee3be3f814610489578063f2cf5890146103d8578063f2fde38b1461033b5763f72c0d8b14610310575061000e565b346103385780600319360112610338576020604051600080516020614b068339815191528152f35b80fd5b503461033857602036600319011261033857610355613ba0565b6002546001600160a01b03908116913383036103c657169081156103b457600380546001600160a01b031916831790556040514281527f2ac05566ef5f778eb7c7dc3f0b38cff7ea0add92e735667d6f405cff3a132b7b90602090a380f35b604051633485c51360e21b8152600490fd5b60405163440a57bf60e01b8152600490fd5b5034610338576104209060206103ed36613d32565b949160018060a01b03600154169160405196879485938493631cdd0ed760e11b8552604060048601526044850191613e8d565b90602483015203915afa90811561047d5790610445575b602090600160405191118152f35b506020813d602011610475575b8161045f60209383613c5c565b810103126104705760209051610437565b600080fd5b3d9150610452565b604051903d90823e3d90fd5b50346103385761049836613d32565b906104a1614370565b60405192818185378184016004815260ff60038681936020988991030190200154161561069157604051908383833760018483019260048452878183950301902001858852865260ff6002604089200154161561067f57600160405185858237878187810160048152030190200185885286528660026040822082815561053060018201805490858155614118565b0155600260405185858237878187810160048152030190200190815460075460801c908181116000146106775750915b885b8381106105a2575b898989600080516020614b868339815191528a6105938b60405192604084526040840191613e8d565b9342908201528033940390a380f35b876105ad82846140ba565b905490851b1c146105bf578401610562565b81549294509092506000199182810190811161066357906105f36105e661060c93866140ba565b905490871b1c91856140ba565b90919082549060031b91821b91600019901b1916179055565b8154801561064f5791816105939492600080516020614b86833981519152979694019261063984846140ba565b81939154921b1b1916905555919238808061056a565b634e487b7160e01b89526031600452602489fd5b634e487b7160e01b8a52601160045260248afd5b905091610560565b6040516302b0eba760e21b8152600490fd5b604051631bd18a1960e31b8152600490fd5b50346103385780600319360112610338576003546040516001600160a01b039091168152602090f35b503461033857604036600319011261033857610714816106ea613ba0565b60018060a01b036001541660405180809581946335b0ce6160e11b835260243590600484016142e4565b03915afa9081156107c6578291610740575b6040516020808252819061073c90820185613df7565b0390f35b90503d8083833e6107518183613c5c565b8101906020818303126107be578051906001600160401b0382116107c2570181601f820112156107be5780519261078784613c7f565b926107956040519485613c5c565b84845260208584010111610338575061073c926107b89160208085019101613d0f565b38610726565b8280fd5b8380fd5b6040513d84823e3d90fd5b50346103385760403660031901126103385761081c6004356107f1613bb6565b90808452600080516020614bc683398151915260205261081760016040862001546143e0565b614629565b5080f35b50346103385760209061087161083536613d32565b600154604080516306a3206b60e31b81526004810191909152966001600160a01b03959094889492871693859384939192604485019190613e8d565b90602483015203915afa91821561047d578092610896575b6020838360405191168152f35b9091506020833d6020116108cd575b816108b260209383613c5c565b8101031261033857506108c660209261415f565b9038610889565b3d91506108a5565b50346103385760203660031901126103385760406108f1613ba0565b91600080516020614b068339815191528152600080516020614bc6833981519152602052209060018060a01b0316600052602052602060ff604060002054166040519015158152f35b50346103385760203660031901126103385761081c610957613ba0565b61095f61432a565b6147cc565b5034610338576020366003190112610338576004356109816143a8565b80156109e1577f31a0ec6844d8efbdda3c6ff9d10a9dc1c4672a24237a92df29bbe2f4b405f4406109db60075460018060801b03198460801b1660018060801b038216176007556040519182913395429160801c84614258565b0390a280f35b604051633b61ed8960e21b8152600490fd5b503461033857602036600319011261033857600435801515809103610a5e57610a1a614370565b60ff196008541660ff8216176008556040519081524260208201527f396cec788d05878eebf032e9f16bad414f3c8da39bce3a8dc6ecca264ccaf0d260403392a280f35b5080fd5b5034610338576020610a8a81610a7736613cd1565b8160405193828580945193849201613d0f565b8101600681520301902054604051908152f35b503461033857806003193601126103385760408051908101906001600160401b03821181831017610af55761073c9160405260058152640352e302e360dc1b6020820152604051918291602083526020830190613df7565b634e487b7160e01b600052604160045260246000fd5b50346103385760203660031901126103385761081c610b28613ba0565b610b3061432a565b6145a5565b503461033857602080600319360112610a5e576004356001600160401b0381116107be57610b6883913690600401613b73565b91610b88600260405185858237868187810160048152030190200161403d565b92835194610bae610b9887614148565b96610ba66040519889613c5c565b808852614148565b601f1992908301845b818110610d115750506001805490956001600160a01b039091169085875b610c4e575b50505050610bf360405195604087526040870190613da1565b858103828701528651928382528282019083808660051b850101990195925b858410610c1f57888a0389f35b909192939495968580610c3b8c8686869f030188528b51613d64565b9b99019796959190910193019190610c12565b889997999694959651811015610d0557610c68818a614090565b5185604051808093632fba7e8d60e01b825260406004830152610c8f604483018a89613e8d565b9060248301520381875afa908115610cfa57918b959493929186928891610cd8575b50610cbc828c614090565b52610cc7818b614090565b500190919293979996959496610bd5565b610cf491503d808a833e610cec8183613c5c565b8101906141dc565b8d610cb1565b6040513d88823e3d90fd5b98969895949395610bda565b60608982018501528301610bb7565b5034610338578060031936011261033857602090604051908152f35b50346103385760203660031901126103385761081c610d59613ba0565b610d6161432a565b614521565b5034610338578060031936011261033857546040516001600160a01b039091168152602090f35b5034610338576080366003190112610338576001600160401b036004358181116107be57610dbf903690600401613b73565b6024929091906044356001600160a01b0381169003610470576064359081116111c657610df0903690600401613b73565b90600080516020614ac68339815191528652600080516020614bc68339815191526020526040862033600052602052610e3060ff60406000205416613e1c565b610e386142ff565b60ff600360405186868237602081888101600481520301902001541615610691576001604051858582376004868201526020818781010301902001602435875260205260ff6002604088200154161561067f576020906001604051868682378381888101600481520301902001602435885282528460018060a01b03604089205416610f19610f2d60408051610ee881610eda8c8b830199604435918b613eae565b03601f198101835282613c5c565b81518b8b823788818d81016006815203019020548d60018060a01b039054169683519586935180928c860190613d0f565b820190898201520387810184520182613c5c565b610f4d60405196879586948594632813749760e01b865260048601613eef565b03915afa9081156111bb57859161118c575b501561117a57604051828282376020818481016006815203019020610f848154613f25565b9055600160405183838237602081858101600481520301902001602435855260205260016040852001805460018060801b03600754161061116857845b81548082101561115f57610fd582846140ba565b905460039190911b1c6001600160a01b0390811660443590911614610ffd5750600101610fc1565b91929394906000199283810190811161114c579061103a61102161105893876140ba565b905460039190911b1c6001600160a01b031691866140ba565b90919060018060a01b038084549260031b9316831b921b1916179055565b825490811561113a5750019061106e82826140ba565b81546001600160a01b0360039290921b82901b1916909155919055600154849116803b15610a5e578160405180926342f0afe960e01b82528183816110bd6044356024358c8c60048601613f4a565b03925af180156107c657611126575b50506110e49060405192604084526040840191613e8d565b4260208301526044356001600160a01b031691602435917f057de9796a44a3b781ad6ddd3517aa25294d7d74f28c77a6db701545cdb64e4c919081900390a380f35b61112f90613c49565b6107be5782386110cc565b634e487b7160e01b8752603160045286fd5b634e487b7160e01b885260116004528288fd5b50505050505080f35b60405163f139695160e01b8152600490fd5b604051633b2a9d4560e01b8152600490fd5b6111ae915060203d6020116111b4575b6111a68183613c5c565b810190613ed7565b38610f5f565b503d61119c565b6040513d87823e3d90fd5b8480fd5b50346103385780600319360112610338576020604051600080516020614ac68339815191528152f35b503461033857604036600319011261033857604061120f613bb6565b916004358152600080516020614bc6833981519152602052209060018060a01b0316600052602052602060ff604060002054166040519015158152f35b503461033857602036600319011261033857600435906001600160401b0382116103385760206112916112823660048601613b73565b6001600160a01b039291613e74565b5416604051908152f35b5034610338576112aa36613d32565b91929080604051948537830191600483526001809460208181960301902001908252602052604081209160018060a01b0393600185855416940190604051809687946020855493848152019487526020872096915b83831061132357868961131482890383613c5c565b61073c60405192839283613dd5565b8754811686529684019689965094810194918401916112ff565b50346103385780600319360112610338576002546040516001600160a01b039091168152602090f35b5034610338576113ac8161137936613d32565b939160018060a01b03600154169160405195869485938493630194b1eb60e51b8552604060048601526044850191613e8d565b90602483015203915afa91821561047d57809181936113d7575b505061073c60405192839283613dd5565b915091503d8083833e6113ea8183613c5c565b81016040828203126107be576113ff8261415f565b602083015190926001600160401b0382116111c65761142093945001614173565b9038806113c6565b50346103385761143736613bcc565b95949692600080516020614ac68339815191528995929552600080516020614bc6833981519152602052604089203360005260205261147d60ff60406000205416613e1c565b6114856142ff565b60ff600854166118415760ff604051878682376020818981016005815203019020541661182f5760405186858237602081888101600481520301902094888a526001860160205260408a209760ff60028a01541661181d57600287015460075460801c111561180b5760206040519261151484611506888d8c878501613eae565b03601f198101865285613c5c565b8c546040516001600160a01b0390911690879084818e808e833781016006815203019020546115546040805180938a51610f19818d8c8087019101613d0f565b61157460405196879586948594632813749760e01b865260048601613eef565b03915afa908115611800578b916117e1575b501561117a578993604051888782376020818a810160068152030190206115ad8154613f25565b9055600387019283549260ff8416156000146116d457505086546001600160a01b0319166001600160a01b0385161787555060ff191660011790555b85546001600160a01b0319166001600160a01b03821690811787556002968701805460ff191660011790559561162290889086016140d2565b6001546001600160a01b0316803b156107be5761165b9183918983604051809681958294631f50fead60e01b84528d8c60048601613f4a565b03925af180156107c6576116bc575b50507f13164734c3c89c203564ab63bf5ff0449bf7f5b6b64321506f8b33801f6298159160018060a01b03905416926116b0604051928392604084526040840191613e8d565b4260208301520390a480f35b6116c590613c49565b6116d057853861166a565b8580fd5b9193509150826116e7575b5050506115e9565b8a54604051949550929391926001600160a01b031691888782376020818a810160068152030190205490816000198101116117cd5790611756604060209594938151938161173e86935180928b8087019101613d0f565b82019060001901888201520386810184520182613c5c565b60018060a01b038854169061178160405196879586948594632813749760e01b865260048601613eef565b03915afa9081156117c25788916117a3575b501561117a5786903880806116df565b6117bc915060203d6020116111b4576111a68183613c5c565b38611793565b6040513d8a823e3d90fd5b634e487b7160e01b8c52601160045260248cfd5b6117fa915060203d6020116111b4576111a68183613c5c565b38611586565b6040513d8d823e3d90fd5b604051633c96bfd560e11b8152600490fd5b6040516340079e1f60e11b8152600490fd5b604051633c4117f160e21b8152600490fd5b6040516301899ea960e01b8152600490fd5b503461033857806003193601126103385761186c6143a8565b6118746142ff565b600080516020614c26833981519152600160ff198254161790557f62e78cea01bee320cd4e420270b5ea74000d11b0c9f74754ebdbfc544b05a2586020604051338152a16040514281527f80170b5fcdd2bf1e0660ef4b8851f86685f64d41b1a19de1471947ece8725aac60203392a280f35b50346103385780600319360112610338576003546001600160a01b0333818316036119465760018060a01b0319809216600355600254913390831617600255600080516020614ba683398151915260206040519242845233941692a380f35b604051632fd8225d60e21b8152600490fd5b5034610338578060031936011261033857606060075460ff600854166040519160018060801b038116835260801c602083015215156040820152f35b50346103385780600319360112610338576020604051600080516020614c868339815191528152f35b50346103385760203660031901126103385761081c6119da613ba0565b6119e261432a565b614852565b5034610338576020611a016119fb36613d32565b9161426e565b6040519015158152f35b50346103385780600319360112610338576002546001600160a01b0381163381036103c65760009160018060a01b031990816003541660035516600255600080516020614ba68339815191526020604051428152a380f35b5034610338576020366003190112610338576004356001600160401b038111610a5e57600080516020614c06833981519152611aa6611ae8923690600401613b73565b9290611ab0614370565b604051848282376020818681016005815203019020600160ff1982541617905560405193858552606060208601526060850191613e8d565b914260408201528033930390a280f35b5034610338578060031936011261033857602060ff600080516020614c2683398151915254166040519015158152f35b503461033857611b3736613bcc565b9091600080516020614ac68339815191528998959897969752600080516020614bc68339815191526020526040892033600052602052611b7e60ff60406000205416613e1c565b611b866142ff565b60ff6003604051888882376020818a810160048152030190200154161561069157600160405187878237602081898101600481520301902001878a5260205260ff600260408b200154161561067f57600160405187878237602081898101600481520301902001878a5260205260018060a01b0360408a2054169360018060a01b0389168514611eda576001604051888882376020818a8101600481520301902001888b52602052600160408b200194855460018060801b0360075416811015611ec857908a918c5b818110611e80575050604051611c6f81610eda60208201958d8d88613eae565b8c6040518b8b82376020818d810160068152030190205495602060018060a01b038354169660405195611cc26040888851611cae818d89850190613d0f565b81018d87820152038581018a520188613c5c565b611ce26040519485938493632813749760e01b9a8b865260048601613eef565b0381895afa91821561047d5791611e61575b501561117a57602095611d316040611d46938f98611d1d9783519889935180928e860190613d0f565b8201908b8201520389810187520185613c5c565b60405197889687958695865260048601613eef565b03915afa908115611e56578791611e37575b501561117a5784611d8991604051858582376020818781016006815203019020611d828154613f25565b90556140f5565b60015485906001600160a01b0316803b15610a5e57816040518092630dbde82b60e41b8252818381611dc18c8c8c8c60048601613f4a565b03925af180156107c657611e23575b50507fa535ca637b62e082e601d1220618b512366262b226d2e9f47351f1db5d82d71591611e0b604051928392604084526040840191613e8d565b4260208301526001600160a01b03909516940390a380f35b611e2c90613c49565b6111c6578438611dd0565b611e50915060203d6020116111b4576111a68183613c5c565b38611d58565b6040513d89823e3d90fd5b611e7a915060203d6020116111b4576111a68183613c5c565b38611cf4565b90919250611e8e81896140ba565b905460039190911b1c6001600160a01b03908116908d1614611eb657600101908b9291611c4f565b60405163066d598f60e41b8152600490fd5b60405163a97809f560e01b8152600490fd5b604051635b85f48960e11b8152600490fd5b503461033857602036600319011261033857600435611f096143a8565b7fad6906149fde015dd036994281834c729ee4271bbf06872f3e645418e76cd41660075460018060801b039283811660018060801b03198316176007556109db604051928392339642921684614258565b50346103385760203660031901126103385761081c611f77613ba0565b611f7f61432a565b6148d8565b503461033857602036600319011261033857600435906001600160401b03821161033857602080611fb83660048601613b73565b91908260405193849283378101600681520301902054604051908152f35b5034610338576020366003190112610338576040611ff2613ba0565b91600080516020614ac68339815191528152600080516020614bc6833981519152602052209060018060a01b0316600052602052602060ff604060002054166040519015158152f35b50346103385780600319360112610338577f00000000000000000000000000000000000000000000000000000000000000006001600160a01b03163003612094576020604051600080516020614b468339815191528152f35b60405163703e46dd60e11b8152600490fd5b5034610338576060366003190112610338576001600160401b036004358181116107be576120d8903690600401613b73565b6120e0613bb6565b926044359081116111c6576120f9903690600401613b73565b600080516020614ac68339815191528694929452600080516020614bc6833981519152602052604086203360005260205261213b60ff60406000205416613e1c565b6121436142ff565b60ff600360405185858237602081878101600481520301902001541615610691576020604051848482378481019060048252828160018060a01b0393030190205416948386610f196121da60408b6121a78b610eda84519384928c84019a8b613eae565b81518e9089818e808f833781016006815203019020549060018060a01b039054169683519586935180928c860190613d0f565b6121fa60405196879586948594632813749760e01b865260048601613eef565b03915afa908115610cfa5786916122aa575b501561117a577f5438efcc7e01fd876333d6d8e2dbec5c34e7267bac6e1c507bdb7b908d41bc31916040518183823760208183810160068152030190206122538154613f25565b9055604051818382376004828201908152819003602001902080546001600160a01b0319166001600160a01b0390961695861790556040805181815292839261229e92840191613e8d565b4260208301520390a380f35b6122c3915060203d6020116111b4576111a68183613c5c565b3861220c565b506040366003190112610338576122de613ba0565b60249182356001600160401b038111610a5e5736602382011215610a5e5761230f9036908581600401359101613c9a565b6001600160a01b03927f0000000000000000000000000000000000000000000000000000000000000000841630811490811561254d575b5061209457600080516020614b068339815191528352602093600080516020614bc683398151915285526040842033600052855260ff604060002054168015612540575b156124ee57811693604051428152857ff7a81b9e2db2d749afc0192f53fe6ae42d522fa790809cd8ec7f8acb2589ff6a833393a36040516352d1902d60e01b81528181600481895afa8591816124bf575b506123f857604051634c9c8ce360e01b8152600481018790528790fd5b859087600080516020614b46833981519152918281036124aa5750843b15612494575080546001600160a01b031916821790556040518592917fbc7cd75a20ee27fd9adebab32041f755214dbc6bffa90cc0225b39da2e5c2d3b8480a28451156124775750835161081c94839201845af461247161400d565b91614a02565b935050505034612485575080f35b63b398979f60e01b8152600490fd5b604051634c9c8ce360e01b815260048101849052fd5b60405190632a87526960e21b82526004820152fd5b9091508281813d83116124e7575b6124d78183613c5c565b810103126116d0575190386123db565b503d6124cd565b60405162461bcd60e51b8152600481018690526025818801527f416363657373436f6e74726f6c3a2063616c6c6572206973206e6f74207570676044820152643930b232b960d91b6064820152608490fd5b508060025416331461238a565b905084600080516020614b468339815191525416141538612346565b503461033857602036600319011261033857612583613ba0565b61258b6143a8565b6001600160a01b03908116801561264757602460208385541660405192838092631627905560e01b82528660048301525afa801561263c576125d491859161261d575b50614201565b600180546001600160a01b0319811683179091556040514281523393909116907facfa6846f94e7f6e311a45a56bbcf01770190d5798dacbda1bd185f3b2a3ad2190602090a480f35b612636915060203d6020116111b4576111a68183613c5c565b386125ce565b6040513d86823e3d90fd5b60405163496abc0760e01b8152600490fd5b503461033857604036600319011261033857612673613ba0565b61267b613bb6565b600080516020614ce6833981519152805490926001600160401b0380831692604081901c60ff16159290841580612981575b60018096149081612977575b15908161296e575b5061295c576001600160401b031981168517875583612941575b506001600160a01b0390811694851561292f5716908115612647576126fe6149d3565b6127066149d3565b61270e6149d3565b60ff1991600080516020614c2683398151915283815416905561272f6149d3565b6127376149d3565b61273f6149d3565b600080516020614c6683398151915285905587546001600160a01b031980821688178a55604051631627905560e01b808252600482018a905260209992938c1690921791908981602481865afa908115612924578c91612907575b50156128c257889060246040518094819382528760048301525afa80156128b7576127cb918b916128a05750614201565b3381600254161760025560405142815289600080516020614ba6833981519152893393a3855416178455604051906060820190811182821017610af55787916040918252600a81526032878201520152600a601960811b016007556008541660ff861515161760085561283d33614750565b50612847336147cc565b5061285133614852565b5061285b336148d8565b50612864578380f35b825460ff60401b19169092556040519182527fc7f505b2f371ae2175ee4913f4499e1f2633a7b5936321eed1cdaeb6115181d291a13880808380f35b6126369150893d8b116111b4576111a68183613c5c565b6040513d8c823e3d90fd5b60405162461bcd60e51b8152600481018a9052601e60248201527f5574696c2061646472657373206973206e6f74206120636f6e747261637400006044820152606490fd5b61291e91508a3d8c116111b4576111a68183613c5c565b3861279a565b6040513d8e823e3d90fd5b60405163652399f960e11b8152600490fd5b6001600160481b0319166001600160401b01178655386126db565b60405163f92ee8a960e01b8152600490fd5b905015386126c1565b303b1591506126b9565b50836126ad565b5034610338576060366003190112610338576129a2613ba0565b6129aa613bb6565b600254604435926001600160a01b039291831633036103c65782906129cd61469a565b16908115612cb457828116926129e4841515613f79565b6129ef851515613fc1565b85541660405191828092631627905560e01b8252856004830152602094859160249586915afa9081156117c2578891612c97575b5015612c53576040516370a0823160e01b808252306004830152919084818581895afa8015612c485788918a91612c17575b5010612bd6578790604051978389523060048a0152858986818a5afa988915612bcb578399612b94575b5090610eda612aa68794936040519283918783019563a9059cbb60e01b87528a84016142e4565b519082885af115610cfa5786513d612b8b5750833b155b612b745760405190815230600482015282818381875afa908115611e56578791612b47575b508503948511612b33575060405193845242908401527f653fd24a43258ba683ba4ff10cabaccaf460426f1a6190340988a203e46d7d1660403394a46001600080516020614c668339815191525580f35b634e487b7160e01b60009081526011600452fd5b90508281813d8311612b6d575b612b5e8183613c5c565b81010312610470575138612ae2565b503d612b54565b50604051635274afe760e01b815260048101849052fd5b60011415612abd565b8680929a50819394503d8311612bc4575b612baf8183613c5c565b81010312610470575196889190610eda612a7f565b503d612ba5565b6040513d85823e3d90fd5b60405162461bcd60e51b815260048101859052601a8185015279496e73756666696369656e7420746f6b656e2062616c616e636560301b6044820152606490fd5b809250868092503d8311612c41575b612c308183613c5c565b810103126104705787905138612a55565b503d612c26565b6040513d8b823e3d90fd5b60405162461bcd60e51b815260048101849052601f818401527f546f6b656e2061646472657373206973206e6f74206120636f6e7472616374006044820152606490fd5b612cae9150843d86116111b4576111a68183613c5c565b38612a23565b60405162461bcd60e51b8152602060048201526015602482015274496e76616c696420746f6b656e206164647265737360581b6044820152606490fd5b5034610338578060031936011261033857612d0a6143a8565b600080516020614c26833981519152805460ff811615612d835760ff191690557f5db9ee0a495bf2e6ff9c91a7834c1ba4fdd244a5e8aa4e537bd38aeae4b073aa6020604051338152a16040514281527f107553d8191d85b405879cf752997865edd48d94e20bda4dd27223c94b31a7cc60203392a280f35b604051638dfc202b60e01b8152600490fd5b503461033857612daa9060206103ed36613d32565b90602483015203915afa90811561047d5790612dcc575b602090604051908152f35b506020813d602011612df7575b81612de660209383613c5c565b810103126104705760209051612dc1565b3d9150612dd9565b503461033857604036600319011261033857612e19613bb6565b336001600160a01b03821603612e355761081c90600435614629565b60405163334bd91960e11b8152600490fd5b503461033857602036600319011261033857600435906001600160401b0382116103385761073c612e8f6002612e89612e833660048801613b73565b90613e74565b0161403d565b604051918291602083526020830190613da1565b503461033857612ee981612eb636613d32565b939160018060a01b03600154169160405195869485938493632fba7e8d60e01b8552604060048601526044850191613e8d565b90602483015203915afa9081156107c6578261073c9392612f1b575b5050604051918291602083526020830190613d64565b612f2f92503d8091833e610cec8183613c5c565b3880612f05565b50346103385760403660031901126103385761081c600435612f56613bb6565b90808452600080516020614bc6833981519152602052612f7c60016040862001546143e0565b61495e565b50346103385760203660031901126103385761081c612f9e613ba0565b612fa661432a565b61449d565b5034610338576020366003190112610338576040612fc7613ba0565b91600080516020614c868339815191528152600080516020614bc6833981519152602052209060018060a01b0316600052602052602060ff604060002054166040519015158152f35b503461033857602036600319011261033857600160406020926004358152600080516020614bc68339815191528452200154604051908152f35b5034610338576060366003190112610338576001600160401b036004358181116107be5761307c903690600401613b73565b6024358381116111c657613094903690600401613b73565b90936044359081116116d0576130ae903690600401613b73565b93600080516020614ac68339815191528752600080516020614bc683398151915260205260408720336000526020526130ee60ff60406000205416613e1c565b6130f66142ff565b60ff604051858382376020818781016005815203019020541661182f5760ff604051848882376020818681016005815203019020541661182f5760ff6003604051868482376020818881016004815203019020015416156134b15760ff600360405185898237602081878101600481520301902001541661349f57869460206131d593604086610f1961321383886131e18f8e84518185823781810190600482528c8160018060a01b03930301902054169d8e986131c287519687948f86019d8e526060860191613e8d565b90601f1994858584030189860152613e8d565b03908101835282613c5c565b815188818f808e83378101600681520301902054809e60018060a01b039054169683519586935180928c860190613d0f565b61323360405196879586948594632813749760e01b865260048601613eef565b03915afa9081156117c2578891613480575b501561117a5794929591936040518787823760208189810160048152030190206040518686823760048782019081528190036020019020815481546001600160a01b0319166001600160a01b039190911617815560038101805460ff19166001179055926132b56002830161403d565b9085985b82518a1015613384576132dc6132d28b859d9b9d614090565b51600288016140d2565b6132e68a84614090565b51875260018401602052604087209860018701602052604088209860018060a01b038b541660018060a01b03198b5416178a5560ff60028c01541660028b019060ff8019835416911515161790556001808a9c019a019a5b8a54811015613372578061336c8d6133586001948f6140ba565b858060a01b0391549060031b1c16906140f5565b0161333e565b50909b6001909b019a995097506132b9565b8692508a888a6001880180891161346c5791613460917f74188df5f1527b1c6489928f1898b625a2c39f51b37270afb8d64f4fc8efad179594936040518284823760208184810160068152030190205587600360405186888237602081888101600481520301902082815561340160028201805490858155614118565b0155600060405185878237602081878101600681520301902055604051848682376020818681016005815203019020600160ff19825416179055613452604051958695606087526060870191613e8d565b918483036020860152613e8d565b4260408301520390a280f35b634e487b7160e01b87526011600452602487fd5b613499915060203d6020116111b4576111a68183613c5c565b38613245565b60405163bf68d22160e01b8152600490fd5b604051632c4b588360e21b8152600490fd5b50346103385780600319360112610338576020604051600080516020614aa68339815191528152f35b5034610338576020366003190112610338576040613508613ba0565b91600080516020614aa68339815191528152600080516020614bc6833981519152602052209060018060a01b0316600052602052602060ff604060002054166040519015158152f35b50346103385760203660031901126103385761356b613ba0565b61357361432a565b61357c816146ca565b50604080516001815242602082015233926001600160a01b031691600080516020614c4683398151915291a380f35b5034610338576040366003190112610338576001600160a01b03600435818116908190036107be57602435916002541633036103c6576135e961469a565b6135f4811515613f79565b6135ff821515613fc1565b4782116136a157828080938193604051828152426020820152817f53fc9acaaa83a2617d29f4e13421aaab72894ef63d1db85828aa37e33255f79d60403393a361c350f161364b61400d565b5015613666576001600080516020614c668339815191525580f35b60405162461bcd60e51b8152602060048201526013602482015272115512081d1c985b9cd9995c8819985a5b1959606a1b6044820152606490fd5b60405162461bcd60e51b815260206004820152601d60248201527f496e73756666696369656e7420636f6e74726163742062616c616e63650000006044820152606490fd5b5034610338576020366003190112610338576004356001600160401b038111610a5e57600080516020614c06833981519152613729611ae8923690600401613b73565b9290613733614370565b60405184828237602081868101600581520301902060ff1981541690556040519360018552606060208601526060850191613e8d565b503461033857602036600319011261033857613783613ba0565b61378b61432a565b61379481614413565b506040805183815242602082015233926001600160a01b031691600080516020614c4683398151915291a380f35b503461033857602060ff6137d982610a7736613cd1565b8101600581520301902054166040519015158152f35b50346103385780600319360112610338576001546040516001600160a01b039091168152602090f35b50346103385760203660031901126103385760043563ffffffff60e01b8116809103610a5e57602090637965db0b60e01b811490811561385e575b506040519015158152f35b6301ffc9a760e01b14905082613853565b50346103385761387e36613bcc565b909195929693600080516020614ac68339815191528952602092600080516020614bc6833981519152845260408a20338b5284526138c260ff60408c205416613e1c565b6138ca6142ff565b60ff6003604051878982378681898101600481520301902001541615610691576001604051868882378581888101600481520301902001878b52845260ff600260408c200154161561067f576001604051868882378581888101600481520301902001878b52845260018060a01b03928360408c205416988484169a8b8b14613b61578b15613b4f57848b8a8f8b8b6040519361397e856139708482019986858c613eae565b03601f198101875286613c5c565b8260405193849283378101600681520301902054958b8b83541696604051956139b36040888851611cae818d89850190613d0f565b6139d36040519485938493632813749760e01b9a8b865260048601613eef565b0381895afa91821561047d5791613b32575b501561117a578995611d316040613a0e938b988a97611d1d8451998a9451928391860190613d0f565b03915afa9081156128b7578a91613b15575b501561117a5788916040518587823784818781016006815203019020613a468154613f25565b90556001604051868882376004878201908152819003860190208885520184526040832080546001600160a01b0319168a1790556001541690813b156107be578291613aab916040519485809481936338e1552760e21b83528c8b8d60048601613f4a565b03925af180156117c257613af0575b5090600080516020614cc68339815191529291613ae4604051938493604085526040850191613e8d565b9042908301520390a480f35b96613b0c600080516020614cc683398151915294939298613c49565b96909192613aba565b613b2c9150843d86116111b4576111a68183613c5c565b38613a20565b613b4991508b3d8d116111b4576111a68183613c5c565b386139e5565b6040516310f67ed760e01b8152600490fd5b6040516303df1f6360e01b8152600490fd5b9181601f84011215610470578235916001600160401b038311610470576020838186019501011161047057565b600435906001600160a01b038216820361047057565b602435906001600160a01b038216820361047057565b60a0600319820112610470576001600160401b03906004358281116104705781613bf891600401613b73565b90939092602435926044356001600160a01b038116810361047057926064358381116104705782613c2b91600401613b73565b9390939260843591821161047057613c4591600401613b73565b9091565b6001600160401b038111610af557604052565b601f909101601f19168101906001600160401b03821190821017610af557604052565b6001600160401b038111610af557601f01601f191660200190565b929192613ca682613c7f565b91613cb46040519384613c5c565b829481845281830111610470578281602093846000960137010152565b602060031982011261047057600435906001600160401b038211610470578060238301121561047057816024613d0c93600401359101613c9a565b90565b60005b838110613d225750506000910152565b8181015183820152602001613d12565b604060031982011261047057600435906001600160401b03821161047057613d5c91600401613b73565b909160243590565b90815180825260208080930193019160005b828110613d84575050505090565b83516001600160a01b031685529381019392810192600101613d76565b90815180825260208080930193019160005b828110613dc1575050505090565b835185529381019392810192600101613db3565b6001600160a01b039091168152604060208201819052613d0c92910190613d64565b90602091613e1081518092818552858086019101613d0f565b601f01601f1916010190565b15613e2357565b60405162461bcd60e51b8152602060048201526024808201527f416363657373436f6e74726f6c3a2063616c6c6572206973206e6f742072656c60448201526330bcb2b960e11b6064820152608490fd5b6020908260405193849283378101600481520301902090565b908060209392818452848401376000828201840152601f01601f1916010190565b91602091613ec791959495604085526040850191613e8d565b6001600160a01b03909416910152565b90816020910312610470575180151581036104705790565b613f07613d0c95939492606083526060830190613df7565b6001600160a01b039094166020820152808403604090910152613e8d565b6000198114613f345760010190565b634e487b7160e01b600052601160045260246000fd5b92949390613f6390604093606086526060860191613e8d565b60208401959095526001600160a01b0316910152565b15613f8057565b60405162461bcd60e51b8152602060048201526019602482015278496e76616c696420726563697069656e74206164647265737360381b6044820152606490fd5b15613fc857565b60405162461bcd60e51b815260206004820152601d60248201527f416d6f756e74206d7573742062652067726561746572207468616e20300000006044820152606490fd5b3d15614038573d9061401e82613c7f565b9161402c6040519384613c5c565b82523d6000602084013e565b606090565b90604051918281549182825260209260208301916000526020600020936000905b8282106140765750505061407492500383613c5c565b565b85548452600195860195889550938101939091019061405e565b80518210156140a45760209160051b010190565b634e487b7160e01b600052603260045260246000fd5b80548210156140a45760005260206000200190600090565b80549190600160401b831015610af557826105f3916001614074950181556140ba565b80549190600160401b831015610af5578261103a916001614074950181556140ba565b81614121575050565b6000906000526020600020918201915b82811061413d57505050565b818155600101614131565b6001600160401b038111610af55760051b60200190565b51906001600160a01b038216820361047057565b9080601f830112156104705781519060209161418e81614148565b9361419c6040519586613c5c565b81855260208086019260051b82010192831161047057602001905b8282106141c5575050505090565b8380916141d18461415f565b8152019101906141b7565b906020828203126104705781516001600160401b03811161047057613d0c9201614173565b1561420857565b60405162461bcd60e51b815260206004820152602260248201527f5265736f6c7665722061646472657373206973206e6f74206120636f6e74726160448201526118dd60f21b6064820152608490fd5b6040919493926060820195825260208201520152565b614290916020600292826040519384928337810160048152030190200161403d565b90815160075460801c908181116000146142dc5750915b60005b8381106142ba5750505050600090565b826142c58284614090565b51146142d3576001016142aa565b50505050600190565b9050916142a7565b6001600160a01b039091168152602081019190915260400190565b60ff600080516020614c26833981519152541661431857565b60405163d93c066560e01b8152600490fd5b336000908152600080516020614b26833981519152602052604081205460ff16156143525750565b6044906040519063e2517d3f60e01b82523360048301526024820152fd5b336000908152600080516020614a868339815191526020526040902054600080516020614aa68339815191529060ff16156143525750565b336000908152600080516020614ae68339815191526020526040902054600080516020614c868339815191529060ff16156143525750565b80600052600080516020614bc683398151915260205260406000203360005260205260ff60406000205416156143525750565b6001600160a01b03166000818152600080516020614b668339815191526020526040812054909190600080516020614ac683398151915290600080516020614bc68339815191529060ff161561449757818452602052604083208284526020526040832060ff198154169055600080516020614be6833981519152339380a4600190565b50505090565b6001600160a01b03166000818152600080516020614ca68339815191526020526040812054909190600080516020614b0683398151915290600080516020614bc68339815191529060ff161561449757818452602052604083208284526020526040832060ff198154169055600080516020614be6833981519152339380a4600190565b6001600160a01b03166000818152600080516020614ae68339815191526020526040812054909190600080516020614c8683398151915290600080516020614bc68339815191529060ff161561449757818452602052604083208284526020526040832060ff198154169055600080516020614be6833981519152339380a4600190565b6001600160a01b03166000818152600080516020614a868339815191526020526040812054909190600080516020614aa683398151915290600080516020614bc68339815191529060ff161561449757818452602052604083208284526020526040832060ff198154169055600080516020614be6833981519152339380a4600190565b90600091808352600080516020614bc683398151915280602052604084209260018060a01b03169283855260205260ff60408520541660001461449757818452602052604083208284526020526040832060ff198154169055600080516020614be6833981519152339380a4600190565b600080516020614c6683398151915260028154146146b85760029055565b604051633ee5aeb560e01b8152600490fd5b6001600160a01b03166000818152600080516020614b668339815191526020526040812054909190600080516020614ac683398151915290600080516020614bc68339815191529060ff16614497578184526020526040832082845260205260408320600160ff19825416179055600080516020614a66833981519152339380a4600190565b6001600160a01b03166000818152600080516020614b268339815191526020526040812054909190600080516020614bc68339815191529060ff166147c7578280526020526040822081835260205260408220600160ff198254161790553391600080516020614a668339815191528180a4600190565b505090565b6001600160a01b03166000818152600080516020614ae68339815191526020526040812054909190600080516020614c8683398151915290600080516020614bc68339815191529060ff16614497578184526020526040832082845260205260408320600160ff19825416179055600080516020614a66833981519152339380a4600190565b6001600160a01b03166000818152600080516020614a868339815191526020526040812054909190600080516020614aa683398151915290600080516020614bc68339815191529060ff16614497578184526020526040832082845260205260408320600160ff19825416179055600080516020614a66833981519152339380a4600190565b6001600160a01b03166000818152600080516020614ca68339815191526020526040812054909190600080516020614b0683398151915290600080516020614bc68339815191529060ff16614497578184526020526040832082845260205260408320600160ff19825416179055600080516020614a66833981519152339380a4600190565b90600091808352600080516020614bc683398151915280602052604084209260018060a01b03169283855260205260ff60408520541615600014614497578184526020526040832082845260205260408320600160ff19825416179055600080516020614a66833981519152339380a4600190565b60ff600080516020614ce68339815191525460401c16156149f057565b604051631afcd79f60e31b8152600490fd5b90614a295750805115614a1757805190602001fd5b60405163d6bda27560e01b8152600490fd5b81511580614a5c575b614a3a575090565b604051639996b31560e01b81526001600160a01b039091166004820152602490fd5b50803b15614a3256fe2f8788117e7eff1d82e926ec794901d17c78024a50270940304540a733656f0d762c7c328dd70a077c65c77b60e4c38eed3d2f6aa056d4d0fa114aeff8234b56bf233dd2aafeb4d50879c4aa5c81e96d92f6e6945c906a58f9f2d1c1631b4b26e2b7fb3b832174769106daebcfd6d1970523240dda11281102db9363b83b0dc4b16e88c42fd4e48df2dd6a2eabd6bc9aec654ec170056b470819f8892cc6431c189ab7a9244df0848122154315af71fe140f3db0fe014031783b0946b8c9d2e3b7db2dd08fcb62d0c9e08c51941cae53c267786a0b75803fb7960902fc8ef97d360894a13ba1a3210667c828492db98dca3e2076cc3735a920a3ca505d382bbca9ed30483ca8e7e18edb58c7d68a44612fe881c88cebad0b52b41698e9844de2cf924c0ee8de1a156b6ac032063b87aafd29cd35d39d53f805f58a2846eb0acdc13a1166d81cd3b0b352a367aebab95f3a6f6bc695fdab8e9a9d335239c3861b02dd7bc7dec4dceedda775e58dd541e08a116c6c53815c0bd028192f7b626800f6391f5c32d9c69d2a47ea670b442974b53935d1edc7fd64eb21e047a839171b9689963ab6768bca6eb66bd7875e757365ab65b717377e75be09cf75a9d480adcd5ed15c6e187e77e9aee88184c21f4f2182ab5827cb3b7e07fbedcd63f033007a91b329e00fce0cb14cbc9bd3ff44acb82afeef7eb7cc41c70c88dd9dca39549b779b17422d0df92223018b32b4d1fa46e071723d6817e2486d003becc55f00a49807205ce4d355092ef5a8a18f56e8913cf4a201fbe287825b095693c21775ab71e3f32666744d246edff3f96e4bdafee2e9867098cdd118a979a7464786a82439f5795990002419d047347b9d9390d40a4333a1c5b59863c99ad157290aa0f0c57e16840df040f15088dc2f81fe391c3923bec73e23a9662efc9c229c6a00a26469706673582212202d99d1087549a2b5ff31372cf7a86a5bb5963ef4a88f87478a066264b4dbef0e64736f6c63430008190033",
  "linkReferences": {},
  "deployedLinkReferences": {}
}