{
  "_format": "hh-sol-artifact-1",
  "contractName": "RegistrarStorageUtil",
  "sourceName": "contracts/RegistrarStorageUtil.sol",
  "abi": [
    {
      "inputs": [],
      "stateMutability": "nonpayable",
      "type": "constructor"
    },
    {
      "inputs": [],
      "name": "AccessControlBadConfirmation",
      "type": "error"
    },
    {
      "inputs": [
        {
          "internalType": "address",
          "name": "account",
          "type": "address"
        },
        {
          "internalType": "bytes32",
          "name": "neededRole",
          "type": "bytes32"
        }
      ],
      "name": "AccessControlUnauthorizedAccount",
      "type": "error"
    },
    {
      "inputs": [
        {
          "internalType": "address",
          "name": "target",
          "type": "address"
        }
      ],
      "name": "AddressEmptyCode",
      "type": "error"
    },
    {
      "inputs": [
        {
          "internalType": "address",
          "name": "implementation",
          "type": "address"
        }
      ],
      "name": "ERC1967InvalidImplementation",
      "type": "error"
    },
    {
      "inputs": [],
      "name": "ERC1967NonPayable",
      "type": "error"
    },
    {
      "inputs": [],
      "name": "FailedCall",
      "type": "error"
    },
    {
      "inputs": [],
      "name": "InvalidInitialization",
      "type": "error"
    },
    {
      "inputs": [],
      "name": "NotInitializing",
      "type": "error"
    },
    {
      "inputs": [],
      "name": "UUPSUnauthorizedCallContext",
      "type": "error"
    },
    {
      "inputs": [
        {
          "internalType": "bytes32",
          "name": "slot",
          "type": "bytes32"
        }
      ],
      "name": "UUPSUnsupportedProxiableUUID",
      "type": "error"
    },
    {
      "anonymous": false,
      "inputs": [
        {
          "indexed": true,
          "internalType": "address",
          "name": "priceFeed",
          "type": "address"
        }
      ],
      "name": "EthPriceFeedSet",
      "type": "event"
    },
    {
      "anonymous": false,
      "inputs": [
        {
          "indexed": false,
          "internalType": "uint64",
          "name": "version",
          "type": "uint64"
        }
      ],
      "name": "Initialized",
      "type": "event"
    },
    {
      "anonymous": false,
      "inputs": [
        {
          "indexed": true,
          "internalType": "address",
          "name": "previousOwner",
          "type": "address"
        },
        {
          "indexed": true,
          "internalType": "address",
          "name": "newOwner",
          "type": "address"
        }
      ],
      "name": "OwnershipTransferStarted",
      "type": "event"
    },
    {
      "anonymous": false,
      "inputs": [
        {
          "indexed": true,
          "internalType": "address",
          "name": "previousOwner",
          "type": "address"
        },
        {
          "indexed": true,
          "internalType": "address",
          "name": "newOwner",
          "type": "address"
        }
      ],
      "name": "OwnershipTransferred",
      "type": "event"
    },
    {
      "anonymous": false,
      "inputs": [
        {
          "indexed": true,
          "internalType": "bytes32",
          "name": "role",
          "type": "bytes32"
        },
        {
          "indexed": true,
          "internalType": "bytes32",
          "name": "previousAdminRole",
          "type": "bytes32"
        },
        {
          "indexed": true,
          "internalType": "bytes32",
          "name": "newAdminRole",
          "type": "bytes32"
        }
      ],
      "name": "RoleAdminChanged",
      "type": "event"
    },
    {
      "anonymous": false,
      "inputs": [
        {
          "indexed": true,
          "internalType": "bytes32",
          "name": "role",
          "type": "bytes32"
        },
        {
          "indexed": true,
          "internalType": "address",
          "name": "account",
          "type": "address"
        },
        {
          "indexed": true,
          "internalType": "address",
          "name": "sender",
          "type": "address"
        }
      ],
      "name": "RoleGranted",
      "type": "event"
    },
    {
      "anonymous": false,
      "inputs": [
        {
          "indexed": true,
          "internalType": "bytes32",
          "name": "role",
          "type": "bytes32"
        },
        {
          "indexed": true,
          "internalType": "address",
          "name": "account",
          "type": "address"
        },
        {
          "indexed": true,
          "internalType": "address",
          "name": "sender",
          "type": "address"
        }
      ],
      "name": "RoleRevoked",
      "type": "event"
    },
    {
      "anonymous": false,
      "inputs": [
        {
          "indexed": true,
          "internalType": "address",
          "name": "token",
          "type": "address"
        },
        {
          "indexed": false,
          "internalType": "uint256",
          "name": "oldDecimal",
          "type": "uint256"
        },
        {
          "indexed": false,
          "internalType": "uint256",
          "name": "newDecimal",
          "type": "uint256"
        }
      ],
      "name": "TokenDecimalUpdated",
      "type": "event"
    },
    {
      "anonymous": false,
      "inputs": [
        {
          "indexed": true,
          "internalType": "address",
          "name": "token",
          "type": "address"
        },
        {
          "indexed": true,
          "internalType": "address",
          "name": "priceFeed",
          "type": "address"
        }
      ],
      "name": "TokenPriceFeedSet",
      "type": "event"
    },
    {
      "anonymous": false,
      "inputs": [
        {
          "indexed": false,
          "internalType": "uint8",
          "name": "minLength",
          "type": "uint8"
        },
        {
          "indexed": false,
          "internalType": "uint8",
          "name": "maxLength",
          "type": "uint8"
        }
      ],
      "name": "UnifiedIdLengthLimitsUpdated",
      "type": "event"
    },
    {
      "anonymous": false,
      "inputs": [
        {
          "indexed": true,
          "internalType": "address",
          "name": "implementation",
          "type": "address"
        }
      ],
      "name": "Upgraded",
      "type": "event"
    },
    {
      "inputs": [],
      "name": "ADMIN_ROLE",
      "outputs": [
        {
          "internalType": "bytes32",
          "name": "",
          "type": "bytes32"
        }
      ],
      "stateMutability": "view",
      "type": "function"
    },
    {
      "inputs": [],
      "name": "CONFIG_MANAGER_ROLE",
      "outputs": [
        {
          "internalType": "bytes32",
          "name": "",
          "type": "bytes32"
        }
      ],
      "stateMutability": "view",
      "type": "function"
    },
    {
      "inputs": [],
      "name": "DEFAULT_ADMIN_ROLE",
      "outputs": [
        {
          "internalType": "bytes32",
          "name": "",
          "type": "bytes32"
        }
      ],
      "stateMutability": "view",
      "type": "function"
    },
    {
      "inputs": [],
      "name": "PRICE_FEED_MANAGER_ROLE",
      "outputs": [
        {
          "internalType": "bytes32",
          "name": "",
          "type": "bytes32"
        }
      ],
      "stateMutability": "view",
      "type": "function"
    },
    {
      "inputs": [],
      "name": "UPGRADER_ROLE",
      "outputs": [
        {
          "internalType": "bytes32",
          "name": "",
          "type": "bytes32"
        }
      ],
      "stateMutability": "view",
      "type": "function"
    },
    {
      "inputs": [],
      "name": "UPGRADE_INTERFACE_VERSION",
      "outputs": [
        {
          "internalType": "string",
          "name": "",
          "type": "string"
        }
      ],
      "stateMutability": "view",
      "type": "function"
    },
    {
      "inputs": [],
      "name": "acceptOwnership",
      "outputs": [],
      "stateMutability": "nonpayable",
      "type": "function"
    },
    {
      "inputs": [
        {
          "internalType": "string",
          "name": "unifiedId",
          "type": "string"
        }
      ],
      "name": "checkAlphaNumericAndAscii",
      "outputs": [
        {
          "internalType": "bool",
          "name": "",
          "type": "bool"
        }
      ],
      "stateMutability": "pure",
      "type": "function"
    },
    {
      "inputs": [
        {
          "internalType": "string",
          "name": "_name",
          "type": "string"
        }
      ],
      "name": "checkLength",
      "outputs": [
        {
          "internalType": "uint8",
          "name": "",
          "type": "uint8"
        }
      ],
      "stateMutability": "pure",
      "type": "function"
    },
    {
      "inputs": [],
      "name": "ethPriceFeed",
      "outputs": [
        {
          "internalType": "address",
          "name": "",
          "type": "address"
        }
      ],
      "stateMutability": "view",
      "type": "function"
    },
    {
      "inputs": [],
      "name": "getConfiguration",
      "outputs": [
        {
          "internalType": "uint8",
          "name": "_minUnifiedIdLength",
          "type": "uint8"
        },
        {
          "internalType": "uint8",
          "name": "_maxUnifiedIdIdLength",
          "type": "uint8"
        },
        {
          "internalType": "address",
          "name": "currentOwner",
          "type": "address"
        }
      ],
      "stateMutability": "view",
      "type": "function"
    },
    {
      "inputs": [
        {
          "internalType": "bytes32",
          "name": "_messageHash",
          "type": "bytes32"
        }
      ],
      "name": "getEthSignedMessageHash",
      "outputs": [
        {
          "internalType": "bytes32",
          "name": "",
          "type": "bytes32"
        }
      ],
      "stateMutability": "pure",
      "type": "function"
    },
    {
      "inputs": [
        {
          "internalType": "bytes",
          "name": "_data",
          "type": "bytes"
        }
      ],
      "name": "getMessageHash",
      "outputs": [
        {
          "internalType": "bytes32",
          "name": "",
          "type": "bytes32"
        }
      ],
      "stateMutability": "pure",
      "type": "function"
    },
    {
      "inputs": [
        {
          "internalType": "address",
          "name": "token",
          "type": "address"
        },
        {
          "internalType": "uint256",
          "name": "registrarFees",
          "type": "uint256"
        }
      ],
      "name": "getRequiredTokenAmount",
      "outputs": [
        {
          "internalType": "uint256",
          "name": "",
          "type": "uint256"
        }
      ],
      "stateMutability": "view",
      "type": "function"
    },
    {
      "inputs": [
        {
          "internalType": "bytes32",
          "name": "role",
          "type": "bytes32"
        }
      ],
      "name": "getRoleAdmin",
      "outputs": [
        {
          "internalType": "bytes32",
          "name": "",
          "type": "bytes32"
        }
      ],
      "stateMutability": "view",
      "type": "function"
    },
    {
      "inputs": [
        {
          "internalType": "address",
          "name": "token",
          "type": "address"
        }
      ],
      "name": "getTokenAmount",
      "outputs": [
        {
          "internalType": "uint256[]",
          "name": "",
          "type": "uint256[]"
        }
      ],
      "stateMutability": "view",
      "type": "function"
    },
    {
      "inputs": [
        {
          "internalType": "address",
          "name": "admin",
          "type": "address"
        }
      ],
      "name": "grantAdminRole",
      "outputs": [],
      "stateMutability": "nonpayable",
      "type": "function"
    },
    {
      "inputs": [
        {
          "internalType": "address",
          "name": "manager",
          "type": "address"
        }
      ],
      "name": "grantConfigManagerRole",
      "outputs": [],
      "stateMutability": "nonpayable",
      "type": "function"
    },
    {
      "inputs": [
        {
          "internalType": "address",
          "name": "manager",
          "type": "address"
        }
      ],
      "name": "grantPriceFeedManagerRole",
      "outputs": [],
      "stateMutability": "nonpayable",
      "type": "function"
    },
    {
      "inputs": [
        {
          "internalType": "bytes32",
          "name": "role",
          "type": "bytes32"
        },
        {
          "internalType": "address",
          "name": "account",
          "type": "address"
        }
      ],
      "name": "grantRole",
      "outputs": [],
      "stateMutability": "nonpayable",
      "type": "function"
    },
    {
      "inputs": [
        {
          "internalType": "address",
          "name": "upgrader",
          "type": "address"
        }
      ],
      "name": "grantUpgraderRole",
      "outputs": [],
      "stateMutability": "nonpayable",
      "type": "function"
    },
    {
      "inputs": [
        {
          "internalType": "bytes32",
          "name": "role",
          "type": "bytes32"
        },
        {
          "internalType": "address",
          "name": "account",
          "type": "address"
        }
      ],
      "name": "hasRole",
      "outputs": [
        {
          "internalType": "bool",
          "name": "",
          "type": "bool"
        }
      ],
      "stateMutability": "view",
      "type": "function"
    },
    {
      "inputs": [
        {
          "internalType": "address",
          "name": "initialOwner",
          "type": "address"
        }
      ],
      "name": "initialize",
      "outputs": [],
      "stateMutability": "nonpayable",
      "type": "function"
    },
    {
      "inputs": [
        {
          "internalType": "address",
          "name": "account",
          "type": "address"
        }
      ],
      "name": "isAdmin",
      "outputs": [
        {
          "internalType": "bool",
          "name": "",
          "type": "bool"
        }
      ],
      "stateMutability": "view",
      "type": "function"
    },
    {
      "inputs": [
        {
          "internalType": "address",
          "name": "account",
          "type": "address"
        }
      ],
      "name": "isConfigManager",
      "outputs": [
        {
          "internalType": "bool",
          "name": "",
          "type": "bool"
        }
      ],
      "stateMutability": "view",
      "type": "function"
    },
    {
      "inputs": [
        {
          "internalType": "address",
          "name": "_resolverAddress",
          "type": "address"
        }
      ],
      "name": "isContract",
      "outputs": [
        {
          "internalType": "bool",
          "name": "",
          "type": "bool"
        }
      ],
      "stateMutability": "view",
      "type": "function"
    },
    {
      "inputs": [
        {
          "internalType": "address",
          "name": "account",
          "type": "address"
        }
      ],
      "name": "isPriceFeedManager",
      "outputs": [
        {
          "internalType": "bool",
          "name": "",
          "type": "bool"
        }
      ],
      "stateMutability": "view",
      "type": "function"
    },
    {
      "inputs": [
        {
          "internalType": "string",
          "name": "_unifiedId",
          "type": "string"
        }
      ],
      "name": "isUnifiedIdValid",
      "outputs": [
        {
          "internalType": "bool",
          "name": "",
          "type": "bool"
        }
      ],
      "stateMutability": "view",
      "type": "function"
    },
    {
      "inputs": [
        {
          "internalType": "address",
          "name": "account",
          "type": "address"
        }
      ],
      "name": "isUpgrader",
      "outputs": [
        {
          "internalType": "bool",
          "name": "",
          "type": "bool"
        }
      ],
      "stateMutability": "view",
      "type": "function"
    },
    {
      "inputs": [],
      "name": "maxUnifiedIdLength",
      "outputs": [
        {
          "internalType": "uint8",
          "name": "",
          "type": "uint8"
        }
      ],
      "stateMutability": "view",
      "type": "function"
    },
    {
      "inputs": [],
      "name": "minUnifiedIdLength",
      "outputs": [
        {
          "internalType": "uint8",
          "name": "",
          "type": "uint8"
        }
      ],
      "stateMutability": "view",
      "type": "function"
    },
    {
      "inputs": [],
      "name": "owner",
      "outputs": [
        {
          "internalType": "address",
          "name": "",
          "type": "address"
        }
      ],
      "stateMutability": "view",
      "type": "function"
    },
    {
      "inputs": [],
      "name": "pendingOwner",
      "outputs": [
        {
          "internalType": "address",
          "name": "",
          "type": "address"
        }
      ],
      "stateMutability": "view",
      "type": "function"
    },
    {
      "inputs": [],
      "name": "proxiableUUID",
      "outputs": [
        {
          "internalType": "bytes32",
          "name": "",
          "type": "bytes32"
        }
      ],
      "stateMutability": "view",
      "type": "function"
    },
    {
      "inputs": [
        {
          "internalType": "bytes32",
          "name": "hash",
          "type": "bytes32"
        },
        {
          "internalType": "bytes",
          "name": "_signature",
          "type": "bytes"
        }
      ],
      "name": "recoverSigner",
      "outputs": [
        {
          "internalType": "address",
          "name": "",
          "type": "address"
        }
      ],
      "stateMutability": "pure",
      "type": "function"
    },
    {
      "inputs": [],
      "name": "renounceOwnership",
      "outputs": [],
      "stateMutability": "nonpayable",
      "type": "function"
    },
    {
      "inputs": [
        {
          "internalType": "bytes32",
          "name": "role",
          "type": "bytes32"
        },
        {
          "internalType": "address",
          "name": "callerConfirmation",
          "type": "address"
        }
      ],
      "name": "renounceRole",
      "outputs": [],
      "stateMutability": "nonpayable",
      "type": "function"
    },
    {
      "inputs": [
        {
          "internalType": "address",
          "name": "admin",
          "type": "address"
        }
      ],
      "name": "revokeAdminRole",
      "outputs": [],
      "stateMutability": "nonpayable",
      "type": "function"
    },
    {
      "inputs": [
        {
          "internalType": "address",
          "name": "manager",
          "type": "address"
        }
      ],
      "name": "revokeConfigManagerRole",
      "outputs": [],
      "stateMutability": "nonpayable",
      "type": "function"
    },
    {
      "inputs": [
        {
          "internalType": "address",
          "name": "manager",
          "type": "address"
        }
      ],
      "name": "revokePriceFeedManagerRole",
      "outputs": [],
      "stateMutability": "nonpayable",
      "type": "function"
    },
    {
      "inputs": [
        {
          "internalType": "bytes32",
          "name": "role",
          "type": "bytes32"
        },
        {
          "internalType": "address",
          "name": "account",
          "type": "address"
        }
      ],
      "name": "revokeRole",
      "outputs": [],
      "stateMutability": "nonpayable",
      "type": "function"
    },
    {
      "inputs": [
        {
          "internalType": "address",
          "name": "upgrader",
          "type": "address"
        }
      ],
      "name": "revokeUpgraderRole",
      "outputs": [],
      "stateMutability": "nonpayable",
      "type": "function"
    },
    {
      "inputs": [
        {
          "internalType": "address",
          "name": "_ethPriceFeed",
          "type": "address"
        }
      ],
      "name": "setEthPriceFeed",
      "outputs": [],
      "stateMutability": "nonpayable",
      "type": "function"
    },
    {
      "inputs": [
        {
          "internalType": "address",
          "name": "token",
          "type": "address"
        },
        {
          "internalType": "address",
          "name": "priceFeed",
          "type": "address"
        },
        {
          "internalType": "uint256",
          "name": "decimal",
          "type": "uint256"
        }
      ],
      "name": "setTokenPriceFeed",
      "outputs": [],
      "stateMutability": "nonpayable",
      "type": "function"
    },
    {
      "inputs": [
        {
          "internalType": "uint8",
          "name": "_minLength",
          "type": "uint8"
        },
        {
          "internalType": "uint8",
          "name": "_maxLength",
          "type": "uint8"
        }
      ],
      "name": "setUnifiedIdLengthLimits",
      "outputs": [],
      "stateMutability": "nonpayable",
      "type": "function"
    },
    {
      "inputs": [
        {
          "internalType": "bytes4",
          "name": "interfaceId",
          "type": "bytes4"
        }
      ],
      "name": "supportsInterface",
      "outputs": [
        {
          "internalType": "bool",
          "name": "",
          "type": "bool"
        }
      ],
      "stateMutability": "view",
      "type": "function"
    },
    {
      "inputs": [
        {
          "internalType": "string",
          "name": "str",
          "type": "string"
        }
      ],
      "name": "toLower",
      "outputs": [
        {
          "internalType": "string",
          "name": "",
          "type": "string"
        }
      ],
      "stateMutability": "pure",
      "type": "function"
    },
    {
      "inputs": [
        {
          "internalType": "address",
          "name": "",
          "type": "address"
        }
      ],
      "name": "tokenDecimal",
      "outputs": [
        {
          "internalType": "uint256",
          "name": "",
          "type": "uint256"
        }
      ],
      "stateMutability": "view",
      "type": "function"
    },
    {
      "inputs": [
        {
          "internalType": "address",
          "name": "",
          "type": "address"
        }
      ],
      "name": "tokenPriceFeed",
      "outputs": [
        {
          "internalType": "address",
          "name": "",
          "type": "address"
        }
      ],
      "stateMutability": "view",
      "type": "function"
    },
    {
      "inputs": [
        {
          "internalType": "address",
          "name": "newOwner",
          "type": "address"
        }
      ],
      "name": "transferOwnership",
      "outputs": [],
      "stateMutability": "nonpayable",
      "type": "function"
    },
    {
      "inputs": [
        {
          "internalType": "string",
          "name": "_registrarName",
          "type": "string"
        }
      ],
      "name": "unifiedIdValid",
      "outputs": [
        {
          "internalType": "bool",
          "name": "",
          "type": "bool"
        }
      ],
      "stateMutability": "view",
      "type": "function"
    },
    {
      "inputs": [
        {
          "internalType": "address",
          "name": "newImplementation",
          "type": "address"
        },
        {
          "internalType": "bytes",
          "name": "data",
          "type": "bytes"
        }
      ],
      "name": "upgradeToAndCall",
      "outputs": [],
      "stateMutability": "payable",
      "type": "function"
    },
    {
      "inputs": [
        {
          "internalType": "bytes",
          "name": "_data",
          "type": "bytes"
        },
        {
          "internalType": "address",
          "name": "_expectedSigner",
          "type": "address"
        },
        {
          "internalType": "bytes",
          "name": "_signature",
          "type": "bytes"
        }
      ],
      "name": "verifySignature",
      "outputs": [
        {
          "internalType": "bool",
          "name": "",
          "type": "bool"
        }
      ],
      "stateMutability": "pure",
      "type": "function"
    }
  ],
  "bytecode": "0x60a0806040523460c857306080527ff0c57e16840df040f15088dc2f81fe391c3923bec73e23a9662efc9c229c6a009081549060ff8260401c1660b957506001600160401b036002600160401b0319828216016075575b604051612b8190816100ce8239608051818181610a490152610ba80152f35b6001600160401b031990911681179091556040519081527fc7f505b2f371ae2175ee4913f4499e1f2633a7b5936321eed1cdaeb6115181d290602090a13880806056565b63f92ee8a960e01b8152600490fd5b600080fdfe6080604052600436101561001257600080fd5b60003560e01c806301ffc9a714610362578063024327d71461035d5780630a1028c4146103585780630c50139a14610353578063139c8deb146102e0578063162790551461034e578063248a9ca31461034957806324d7806c14610344578063281374971461033f5780632923cf961461033a5780632f2ff15d1461033557806330f1fe821461033057806333cccdb11461032b57806334c2c0681461032657806336568abe146103215780634f1ef2861461031c57806352d1902d1461031757806357c8a60114610312578063595a1d3f1461030d5780636054ace0146103085780636bd50cef14610303578063715018a6146102fe57806375b238fc146102f957806379ba5097146102f45780637bce97ee146102ef5780638a2ac0c4146102ea5780638da5cb5b146102e55780638e237a62146102e057806391d14854146102db578063940ab2e4146102d65780639416b423146102d157806397aba7f9146102cc5780639878cbb3146102c757806399bf716e146102c25780639a19c7b0146102bd5780639b598934146102b8578063a0c7f799146102b3578063a217fddf146102ae578063a2fd773d146102a9578063ad3cb1cc146102a4578063af7665ce1461029f578063bcbfdc281461029a578063c011c9eb14610295578063c4d66de814610290578063c634b78e1461028b578063cb6629d314610286578063d547741f14610281578063e30c39781461027c578063e6ae1a9714610277578063f2fde38b14610272578063f72c0d8b1461026d578063fa540801146102685763fb1d185c1461026357600080fd5b6117a2565b611784565b61175b565b611660565b6115fb565b6115d2565b611586565b611539565b611510565b6113e4565b6112c5565b61128b565b611262565b611224565b6111fb565b6111df565b6111b6565b61118d565b611164565b61113b565b611100565b611066565b61103d565b610fcb565b610f8a565b610588565b610f61565b610f14565b610ee5565b610e03565b610dda565b610d7e565b610d3f565b610d1b565b610cf2565b610bf9565b610b95565b610a0a565b6109c3565b6109a1565b610851565b61082e565b6107e2565b6107b9565b610738565b6106df565b6106a3565b610677565b610522565b6104aa565b6103bd565b346103b85760203660031901126103b85760043563ffffffff60e01b81168091036103b857602090637965db0b60e01b81149081156103a7575b506040519015158152f35b6301ffc9a760e01b1490503861039c565b600080fd5b346103b85760003660031901126103b857602060ff60045460a01c16604051908152f35b634e487b7160e01b600052604160045260246000fd5b604081019081106001600160401b0382111761041257604052565b6103e1565b601f909101601f19168101906001600160401b0382119082101761041257604052565b6001600160401b03811161041257601f01601f191660200190565b9291926104618261043a565b9161046f6040519384610417565b8294818452818301116103b8578281602093846000960137010152565b9080601f830112156103b8578160206104a793359101610455565b90565b346103b85760203660031901126103b8576004356001600160401b0381116103b8576104dc602091369060040161048c565b818151910120604051908152f35b6001600160a01b031690565b600435906001600160a01b03821682036103b857565b602435906001600160a01b03821682036103b857565b346103b85760203660031901126103b85761054b61053e6104f6565b610546612354565b61249e565b005b60206003198201126103b857600435906001600160401b0382116103b857806023830112156103b8578160246104a793600401359101610455565b346103b8576105963661054d565b6105b16105ab6105a583611c73565b926117ef565b9161198d565b156106365760ff600454911660ff8260a01c168111159182610625575b5050156105e057602060405160018152f35b60405162461bcd60e51b815260206004820152601f60248201527f556e6966696564204964206c656e677468206f7574206f6620626f756e6473006044820152606490fd5b60a81c60ff161115905038806105ce565b60405162461bcd60e51b81526020600482015260196024820152781bdb9b1e48185b1c1a185b9d5b595c9a58c8185b1b1bddd959603a1b6044820152606490fd5b346103b85760203660031901126103b857602063ffffffff6106976104f6565b3b161515604051908152f35b346103b85760203660031901126103b857600435600052600080516020612aec8339815191526020526020600160406000200154604051908152f35b346103b85760203660031901126103b857602060ff61072c6106ff6104f6565b600080516020612b0c833981519152600052600080516020612aec833981519152845260406000206110e9565b54166040519015158152f35b346103b85760603660031901126103b8576001600160401b036004358181116103b85761076990369060040161048c565b9061077261050c565b906044359081116103b8576020926107a06107946107a593369060040161048c565b918581519101206122c7565b611de0565b60018060a01b038060405193169116148152f35b346103b85760203660031901126103b85761054b6107d56104f6565b6107dd612354565b61266a565b346103b85760403660031901126103b85761054b60043561080161050c565b9080600052600080516020612aec833981519152602052610829600160406000200154612478565b612642565b346103b85760206108466108413661054d565b6117ef565b60ff60405191168152f35b346103b85760603660031901126103b85761086a6104f6565b61087261050c565b6044359161087e6123ac565b6001600160a01b0381811693908415610966576108ff82918516936108a4851515611854565b6108c463ffffffff6108ba81843b16151561189b565b873b1615156118e7565b6108fa6108d0826110b5565b54966108db836110cf565b80546001600160a01b0319166001600160a01b03909216919091179055565b6110b5565b5560405191847f06450d77a493ade91a66792442980e4499d56e1565b15d80f0790f2a962a135d600080a380830361093357005b91815260208101919091527f690b75f4c3c04d41beff4465ee4ae31b288c78cb115baab910a352eee32df36590604090a2005b60405162461bcd60e51b8152602060048201526013602482015272546f6b656e3a207a65726f206164647265737360681b6044820152606490fd5b346103b85760206109b96109b43661054d565b61198d565b6040519015158152f35b346103b85760403660031901126103b8576109dc61050c565b336001600160a01b038216036109f85761054b9060043561279d565b60405163334bd91960e11b8152600490fd5b60403660031901126103b857610a1e6104f6565b6024356001600160401b0381116103b857610a3d90369060040161048c565b6001600160a01b0391907f00000000000000000000000000000000000000000000000000000000000000008316308114908115610b79575b50610b6757600092600080516020612a4c8339815191528452600080516020612aec833981519152908160205260ff610ab133604088206110e9565b5416918215610b38575b508115610b2a575b5015610ad557610ad2916127d4565b80f35b60405162461bcd60e51b815260206004820152602760248201527f416363657373436f6e74726f6c3a2063616c6c6572206973206e6f74206175746044820152661a1bdc9a5e995960ca1b6064820152608490fd5b905060035416331438610ac3565b909150600080516020612b0c833981519152855260205260ff610b5e33604087206110e9565b54169038610abb565b60405163703e46dd60e11b8152600490fd5b905083600080516020612a8c8339815191525416141538610a75565b346103b85760003660031901126103b8577f00000000000000000000000000000000000000000000000000000000000000006001600160a01b03163003610b67576020604051600080516020612a8c8339815191528152f35b60ff8116036103b857565b346103b85760403660031901126103b857600435610c1681610bee565b602435610c2281610bee565b610c2a612426565b60ff821680151580610ce6575b15610ca95760ff604092610c827f8babb26f1e348047292ac8dd3e028ce423fcc836c1ec2fef72a32e75be3987ce956004549060ff60a81b9060a81b169060ff60a81b191617600455565b6004805460ff60a01b191660a083901b60ff60a01b161790558351928352166020820152a1005b60405162461bcd60e51b8152602060048201526015602482015274496e76616c6964206c656e677468206c696d69747360581b6044820152606490fd5b508060ff831611610c37565b346103b85760203660031901126103b85761054b610d0e6104f6565b610d16612354565b612523565b346103b85760003660031901126103b857602060ff60045460a81c16604051908152f35b346103b85760003660031901126103b857606060045460018060a01b036003541660ff60405192818160a81c16845260a01c1660208301526040820152f35b346103b857600080600319360112610dd75760035481906001600160a01b03811690610dab338314611a83565b600480546001600160a01b031990811690915516600355600080516020612acc8339815191528280a380f35b80fd5b346103b85760003660031901126103b8576020604051600080516020612b0c8339815191528152f35b346103b857600080600319360112610dd7576004546001600160a01b03903382821603610e8e576001600160a01b03191660045560035416610e443361193f565b33610e61575b3390600080516020612acc8339815191528380a380f35b610e6a33612591565b50610e743361249e565b50610e7e3361255a565b50610e8833612523565b50610e4a565b60405162461bcd60e51b815260206004820152602960248201527f4f776e61626c6532537465703a2063616c6c6572206973206e6f7420746865206044820152683732bb9037bbb732b960b91b6064820152608490fd5b346103b85760403660031901126103b8576020610f0c610f036104f6565b60243590611b67565b604051908152f35b346103b85760203660031901126103b857602060ff61072c610f346104f6565b600080516020612a2c833981519152600052600080516020612aec833981519152845260406000206110e9565b346103b85760003660031901126103b8576003546040516001600160a01b039091168152602090f35b346103b85760403660031901126103b857602060ff61072c610faa61050c565b600435600052600080516020612aec833981519152845260406000206110e9565b346103b85760203660031901126103b85761054b610fe76104f6565b610fef612354565b6126f8565b6020808252825181830181905290939260005b82811061102957505060409293506000838284010152601f8019910116010190565b818101860151848201604001528501611007565b346103b8576110626110566110513661054d565b611c73565b60405191829182610ff4565b0390f35b346103b85760403660031901126103b8576024356001600160401b0381116103b8576110a361109b602092369060040161048c565b600435611de0565b6040516001600160a01b039091168152f35b6001600160a01b0316600090815260016020526040902090565b6001600160a01b0316600090815260208190526040902090565b9060018060a01b0316600052602052604060002090565b346103b85760203660031901126103b85760206001600160a01b03806111246104f6565b166000526000825260406000205416604051908152f35b346103b85760203660031901126103b85761054b6111576104f6565b61115f612354565b61272f565b346103b85760203660031901126103b85761054b6111806104f6565b611188612354565b612766565b346103b85760203660031901126103b85761054b6111a96104f6565b6111b1612354565b61255a565b346103b85760003660031901126103b8576020604051600080516020612a2c8339815191528152f35b346103b85760003660031901126103b857602060405160008152f35b346103b85760003660031901126103b8576020604051600080516020612aac8339815191528152f35b346103b85760003660031901126103b857611062604051611244816103f7565b60058152640352e302e360dc1b602082015260405191829182610ff4565b346103b85760003660031901126103b8576002546040516001600160a01b039091168152602090f35b346103b85760203660031901126103b8576001600160a01b036112ac6104f6565b1660005260016020526020604060002054604051908152f35b346103b85760203660031901126103b8576112de6104f6565b6112e66123ac565b6001600160a01b0381169081156113a05763ffffffff813b161561134a57600280546001600160a01b0319166001600160a01b039092169190911790557f4df8ecfaf1f8260a9e53fa3dc20ec818af8ef0a73e1f46ad43d105ece05a8487600080a2005b60405162461bcd60e51b815260206004820152602860248201527f45544820707269636520666565642061646472657373206973206e6f7420612060448201526718dbdb9d1c9858dd60c21b6064820152608490fd5b60405162461bcd60e51b815260206004820152601c60248201527b45544820707269636520666565643a207a65726f206164647265737360201b6044820152606490fd5b346103b85760203660031901126103b8576113fd6104f6565b600080516020612b2c83398151915254604081901c60ff161591906001600160401b031680159081611508575b60011490816114fe575b1590816114f5575b506114e357600080516020612b2c83398151915280546001600160401b031916600117905561146f90826114be57611ec3565b61147557005b600080516020612b2c833981519152805460ff60401b19169055604051600181527fc7f505b2f371ae2175ee4913f4499e1f2633a7b5936321eed1cdaeb6115181d290602090a1005b600080516020612b2c833981519152805460ff60401b1916600160401b179055611ec3565b60405163f92ee8a960e01b8152600490fd5b9050153861143c565b303b159150611434565b83915061142a565b346103b85760203660031901126103b85761054b61152c6104f6565b611534612354565b612591565b346103b85760203660031901126103b857602060ff61072c6115596104f6565b600080516020612a4c833981519152600052600080516020612aec833981519152845260406000206110e9565b346103b85760403660031901126103b85761054b6004356115a561050c565b9080600052600080516020612aec8339815191526020526115cd600160406000200154612478565b61279d565b346103b85760003660031901126103b8576004546040516001600160a01b039091168152602090f35b346103b8576020806003193601126103b85761161d6116186104f6565b6120a2565b906040519181839283018184528251809152816040850193019160005b82811061164957505050500390f35b83518552869550938101939281019260010161163a565b346103b85760203660031901126103b8576116796104f6565b6003546001600160a01b0390811690611693338314611a83565b8216918215611707576116ab6116cd92841415612263565b600480546001600160a01b0319166001600160a01b0392909216919091179055565b6116e06116db6003546104ea565b6104ea565b7f38d16b8cac22d99fc7c124b9cd0de2d3fa1faef420bfe791d8c362d765e22700600080a3005b60405162461bcd60e51b815260206004820152602660248201527f4f776e61626c653a206e6577206f776e657220697320746865207a65726f206160448201526564647265737360d01b6064820152608490fd5b346103b85760003660031901126103b8576020604051600080516020612a4c8339815191528152f35b346103b85760203660031901126103b8576020610f0c6004356122c7565b346103b85760203660031901126103b857602060ff61072c6117c26104f6565b600080516020612aac833981519152600052600080516020612aec833981519152845260406000206110e9565b8051156117fd575160ff1690565b60405162461bcd60e51b815260206004820152602960248201527f4c696272617279203a20537472696e6720706173736564206973206f66207a656044820152680e4de40d8cadccee8d60bb1b6064820152608490fd5b1561185b57565b60405162461bcd60e51b8152602060048201526018602482015277507269636520666565643a207a65726f206164647265737360401b6044820152606490fd5b156118a257565b60405162461bcd60e51b815260206004820152601f60248201527f546f6b656e2061646472657373206973206e6f74206120636f6e7472616374006044820152606490fd5b156118ee57565b60405162461bcd60e51b8152602060048201526024808201527f507269636520666565642061646472657373206973206e6f74206120636f6e746044820152631c9858dd60e21b6064820152608490fd5b600380546001600160a01b0319166001600160a01b0392909216919091179055565b634e487b7160e01b600052603260045260246000fd5b908151811015611988570160200190565b611961565b6000805b8251811015611a7b576119b56119a78285611977565b516001600160f81b03191690565b600360fc1b6001600160f81b0319821690811015919082611a6c575b8215611a48575b8215611a1f575b5081156119fb575b50156119f557600101611991565b50905090565b905060f81c60208110159081611a13575b50386119e7565b607e9150111538611a0c565b909150604160f81b8110159081611a39575b5090386119df565b602d60f91b1015905038611a31565b9150606160f81b82101580611a5e575b916119d8565b50603d60f91b821115611a58565b603960f81b81111592506119d1565b505050600190565b15611a8a57565b606460405162461bcd60e51b815260206004820152602060248201527f4f776e61626c653a2063616c6c6572206973206e6f7420746865206f776e65726044820152fd5b8051600210156119885760600190565b8051156119885760200190565b8051600110156119885760400190565b8051600310156119885760800190565b634e487b7160e01b600052601160045260246000fd5b81810292918115918404141715611b3457565b611b0b565b8115611b43570490565b634e487b7160e01b600052601260045260246000fd5b604d8111611b3457600a0a90565b6001600160a01b038116611b79575090565b611b82906120a2565b8051156119885760208101519080516001101561198857611ba7604082015191611ace565b519082151580611c26575b15611bec57611be1611bdb611bcd611be7946104a797611b21565b670de0b6b3a7640000900490565b91611b59565b90611b21565b611b39565b60405162461bcd60e51b8152602060048201526012602482015271496e76616c6964207072696365206461746160701b6044820152606490fd5b50811515611bb2565b90611c398261043a565b611c466040519182610417565b8281528092611c57601f199161043a565b0190602036910137565b60ff60209116019060ff8211611b3457565b90611c7e8251611c2f565b60009260005b8151811015611d3957806041611cb1611cab611ca56119a760019688611977565b60f81c90565b60ff1690565b101580611d1c575b15611cfd57611ce9611cd9611cd4611ca56119a78588611977565b611c61565b60f81b6001600160f81b03191690565b861a611cf58286611977565b535b01611c84565b611d0a6119a78285611977565b861a611d168286611977565b53611cf7565b50605a60ff611d31611ca56119a78588611977565b161115611cb9565b5090925050565b15611d4757565b60405162461bcd60e51b815260206004820152601b60248201527a496e76616c6964207369676e6174757265202773272076616c756560281b6044820152606490fd5b15611d9157565b60405162461bcd60e51b815260206004820152601b60248201527a496e76616c6964207369676e6174757265202776272076616c756560281b6044820152606490fd5b6040513d6000823e3d90fd5b6041825103611e835781600091611e606020809501519260606040820151910151851a93611e266fa2a8918ca85bafe22016d0b997e4df60600160ff1b03831115611d40565b601b85148015611e79575b611e3a90611d8a565b604051948594859094939260ff6060936080840197845216602083015260408201520152565b838052039060015afa15611e745760005190565b611dd4565b50601c8514611e31565b60405162461bcd60e51b8152602060048201526018602482015277092dcecc2d8d2c840e6d2cedcc2e8eae4ca40d8cadccee8d60431b6044820152606490fd5b611ecb612937565b611ed3612937565b6001600160a01b038116908115611f4957611f4691611ef18261193f565b6000600080516020612acc8339815191528180a36004805461ffff60a01b1916604160a41b179055611f22816125c8565b50611f2c81612591565b50611f368161249e565b50611f408161255a565b50612523565b50565b60405162461bcd60e51b8152602060048201526024808201527f496e697469616c206f776e65722063616e6e6f74206265207a65726f206164646044820152637265737360e01b6064820152608490fd5b51906001600160501b03821682036103b857565b908160a09103126103b857611fc281611f9a565b916020820151916040810151916104a7608060608401519301611f9a565b15611fe757565b60405162461bcd60e51b8152602060048201526013602482015272496e76616c696420746f6b656e20707269636560681b6044820152606490fd5b908160209103126103b857516104a781610bee565b1561203e57565b60405162461bcd60e51b8152602060048201526011602482015270496e76616c69642045544820707269636560781b6044820152606490fd5b6040519060a082016001600160401b0381118382101761041257604052600482526080366020840137565b6116db6116db6120b46120c1936110cf565b546001600160a01b031690565b604051633fabe5a360e21b808252909160a0918284600481855afa938415611e745760009461223f575b506120f7841515611fe0565b604051809363313ce56760e01b9384835282600460209788935afa918215611e7457600092612220575b506121336116db6116db6002546104ea565b936040519384528184600481885afa938415611e745786926000956121ec575b5050612160841515612037565b60046040518096819382525afa928315611e745760ff946000946121b9575b5050839061218b612077565b9561219587611ade565b52166121a085611aeb565b526121aa84611ace565b52166121b582611afb565b5290565b8592945090816121dd92903d106121e5575b6121d58183610417565b810190612022565b92903861217f565b503d6121cb565b61220c929550803d10612219575b6122048183610417565b810190611fae565b5050509050923880612153565b503d6121fa565b612238919250853d87116121e5576121d58183610417565b9038612121565b612257919450833d8511612219576122048183610417565b505050905092386120eb565b1561226a57565b60405162461bcd60e51b815260206004820152602f60248201527f4f776e61626c653a206e6577206f776e6572206973207468652073616d65206160448201526e399031bab93932b73a1037bbb732b960891b6064820152608490fd5b604051906122d4826103f7565b601c8083526020907b0ca2ba3432b932bab69029b4b3b732b21026b2b9b9b0b3b29d05199960211b60208501526040519360005b8281106123415750505050603c828101919091528152606081016001600160401b03811182821017610412576040526020815191012090565b8181018401518682018501528301612308565b60008052600080516020612aec83398151915260205260ff61238433600080516020612a6c8339815191526110e9565b54161561238d57565b60405163e2517d3f60e01b815233600482015260006024820152604490fd5b600080516020612aac8339815191526000819052600080516020612aec83398151915260205260ff6123fe337fb4fe636378ae8a58bee108dadf918bcedb0309f181ff802c263cef699255f0cd6110e9565b5416156124085750565b6044906040519063e2517d3f60e01b82523360048301526024820152fd5b600080516020612a2c8339815191526000819052600080516020612aec83398151915260205260ff6123fe337fb1bc21c383d8eaa04f767bc24f4766bdcfb82793a66ed9ff650de8d37261be1a6110e9565b80600052600080516020612aec83398151915260205260ff6123fe3360406000206110e9565b600080516020612aac833981519152600090808252600080516020612aec8339815191528060205260ff6124d585604086206110e9565b541661251c578183526020526124ee83604084206110e9565b805460ff1916600117905533926001600160a01b031691600080516020612a0c8339815191529080a4600190565b5050905090565b600080516020612a4c833981519152600090808252600080516020612aec8339815191528060205260ff6124d585604086206110e9565b600080516020612a2c833981519152600090808252600080516020612aec8339815191528060205260ff6124d585604086206110e9565b600080516020612b0c833981519152600090808252600080516020612aec8339815191528060205260ff6124d585604086206110e9565b6000808052600080516020612aec833981519152602081905260ff6125fb84600080516020612a6c8339815191526110e9565b54166119f55781805260205261261482604083206110e9565b805460ff1916600117905533916001600160a01b031690600080516020612a0c8339815191528180a4600190565b600090808252600080516020612aec8339815191528060205260ff6124d585604086206110e9565b600080516020612a4c833981519152600090808252600080516020612aec8339815191528060205260ff6126a185604086206110e9565b54161561251c578183526020526126bb83604084206110e9565b805460ff1916905533926001600160a01b0316917ff6391f5c32d9c69d2a47ea670b442974b53935d1edc7fd64eb21e047a839171b9080a4600190565b600080516020612aac833981519152600090808252600080516020612aec8339815191528060205260ff6126a185604086206110e9565b600080516020612a2c833981519152600090808252600080516020612aec8339815191528060205260ff6126a185604086206110e9565b600080516020612b0c833981519152600090808252600080516020612aec8339815191528060205260ff6126a185604086206110e9565b600090808252600080516020612aec8339815191528060205260ff6126a185604086206110e9565b908160209103126103b8575190565b6040516352d1902d60e01b81529290916020846004816001600160a01b0387165afa60009481612862575b5061282557604051634c9c8ce360e01b81526001600160a01b0384166004820152602490fd5b9091600080516020612a8c833981519152840361284957612847929350612893565b565b604051632a87526960e21b815260048101859052602490fd5b61288591955060203d60201161288c575b61287d8183610417565b8101906127c5565b93386127ff565b503d612873565b90813b1561291657600080516020612a8c83398151915280546001600160a01b0319166001600160a01b0384169081179091557fbc7cd75a20ee27fd9adebab32041f755214dbc6bffa90cc0225b39da2e5c2d3b600080a28051156128fb57611f4691612966565b50503461290457565b60405163b398979f60e01b8152600490fd5b604051634c9c8ce360e01b81526001600160a01b0383166004820152602490fd5b60ff600080516020612b2c8339815191525460401c161561295457565b604051631afcd79f60e31b8152600490fd5b6000806104a793602081519101845af43d156129a4573d916129878361043a565b926129956040519485610417565b83523d6000602085013e6129a8565b6060915b906129cf57508051156129bd57805190602001fd5b60405163d6bda27560e01b8152600490fd5b81511580612a02575b6129e0575090565b604051639996b31560e01b81526001600160a01b039091166004820152602490fd5b50803b156129d856fe2f8788117e7eff1d82e926ec794901d17c78024a50270940304540a733656f0dbbfb55d933c2bfa638763473275b1d84c4418e58d26cf9d2cd5758237756d9f0189ab7a9244df0848122154315af71fe140f3db0fe014031783b0946b8c9d2e3b7db2dd08fcb62d0c9e08c51941cae53c267786a0b75803fb7960902fc8ef97d360894a13ba1a3210667c828492db98dca3e2076cc3735a920a3ca505d382bbcd83007455b073bdf2abc6e8b18ce2847f802b368f0ad3a285cbb1773ec2f4c838be0079c531659141344cd1fd0a4f28419497f9722a3daafe3b4186f6b6457e002dd7bc7dec4dceedda775e58dd541e08a116c6c53815c0bd028192f7b626800a49807205ce4d355092ef5a8a18f56e8913cf4a201fbe287825b095693c21775f0c57e16840df040f15088dc2f81fe391c3923bec73e23a9662efc9c229c6a00a2646970667358221220305afa594e9a1c12593eec66f9a1067fa149056193a1ec28d46eef5fe326361e64736f6c63430008190033",
  "linkReferences": {},
  "deployedLinkReferences": {}
}